Component: ARM Compiler 5.06 update 4 (build 422) Tool: armlink [4d35d2]

==============================================================================

Section Cross References

    startup_hc32f460.o(RESET) refers to startup_hc32f460.o(STACK) for __initial_sp
    startup_hc32f460.o(RESET) refers to startup_hc32f460.o(.text) for Reset_Handler
    startup_hc32f460.o(RESET) refers to hc32_ll_interrupts.o(i.IRQ000_Handler) for IRQ000_Handler
    startup_hc32f460.o(RESET) refers to hc32_ll_interrupts.o(i.IRQ001_Handler) for IRQ001_Handler
    startup_hc32f460.o(RESET) refers to hc32_ll_interrupts.o(i.IRQ002_Handler) for IRQ002_Handler
    startup_hc32f460.o(RESET) refers to hc32_ll_interrupts.o(i.IRQ003_Handler) for IRQ003_Handler
    startup_hc32f460.o(RESET) refers to hc32_ll_interrupts.o(i.IRQ004_Handler) for IRQ004_Handler
    startup_hc32f460.o(RESET) refers to hc32_ll_interrupts.o(i.IRQ005_Handler) for IRQ005_Handler
    startup_hc32f460.o(RESET) refers to hc32_ll_interrupts.o(i.IRQ006_Handler) for IRQ006_Handler
    startup_hc32f460.o(RESET) refers to hc32_ll_interrupts.o(i.IRQ007_Handler) for IRQ007_Handler
    startup_hc32f460.o(RESET) refers to hc32_ll_interrupts.o(i.IRQ008_Handler) for IRQ008_Handler
    startup_hc32f460.o(RESET) refers to hc32_ll_interrupts.o(i.IRQ009_Handler) for IRQ009_Handler
    startup_hc32f460.o(RESET) refers to hc32_ll_interrupts.o(i.IRQ010_Handler) for IRQ010_Handler
    startup_hc32f460.o(RESET) refers to hc32_ll_interrupts.o(i.IRQ011_Handler) for IRQ011_Handler
    startup_hc32f460.o(RESET) refers to hc32_ll_interrupts.o(i.IRQ012_Handler) for IRQ012_Handler
    startup_hc32f460.o(RESET) refers to hc32_ll_interrupts.o(i.IRQ013_Handler) for IRQ013_Handler
    startup_hc32f460.o(RESET) refers to hc32_ll_interrupts.o(i.IRQ014_Handler) for IRQ014_Handler
    startup_hc32f460.o(RESET) refers to hc32_ll_interrupts.o(i.IRQ015_Handler) for IRQ015_Handler
==============================================================================

Removing Unused input sections from the image.

    Removing startup_hc32f460.o(HEAP), (1024 bytes).
    Removing system_hc32f460.o(.rev16_text), (4 bytes).
    Removing system_hc32f460.o(.revsh_text), (4 bytes).
    Removing system_hc32f460.o(.rrx_text), (6 bytes).
    Removing main.o(.rev16_text), (4 bytes).
    Removing main.o(.revsh_text), (4 bytes).
    Removing main.o(.rrx_text), (6 bytes).
    Removing cdc_data_process.o(.rev16_text), (4 bytes).
    Removing cdc_data_process.o(.revsh_text), (4 bytes).
    Removing cdc_data_process.o(.rrx_text), (6 bytes).
    Removing usb_bsp.o(.rev16_text), (4 bytes).
    Removing usb_bsp.o(.revsh_text), (4 bytes).
    Removing usb_bsp.o(.rrx_text), (6 bytes).
    Removing usb_dev_desc.o(.rev16_text), (4 bytes).
    Removing usb_dev_desc.o(.revsh_text), (4 bytes).
    Removing usb_dev_desc.o(.rrx_text), (6 bytes).
    Removing usb_dev_user.o(.rev16_text), (4 bytes).
    Removing usb_dev_user.o(.revsh_text), (4 bytes).
==============================================================================

Image Symbol Table

    Local Symbols

    Symbol Name                              Value     Ov Type        Size  Object(Section)

    RESET                                    0x00000000   Section      640  startup_hc32f460.o(RESET)
    ../../../../../../drivers/bsp/ev_hc32f460_lqfp100_v2/ev_hc32f460_lqfp100_v2.c 0x00000000   Number         0  ev_hc32f460_lqfp100_v2.o ABSOLUTE
    ../../../../../../drivers/cmsis/Device/HDSC/hc32f4xx/Source/system_hc32f460.c 0x00000000   Number         0  system_hc32f460.o ABSOLUTE
    ../../../../../../drivers/hc32_ll_driver/src/hc32_ll.c 0x00000000   Number         0  hc32_ll.o ABSOLUTE
    ../../../../../../drivers/hc32_ll_driver/src/hc32_ll_clk.c 0x00000000   Number         0  hc32_ll_clk.o ABSOLUTE
    ../../../../../../drivers/hc32_ll_driver/src/hc32_ll_efm.c 0x00000000   Number         0  hc32_ll_efm.o ABSOLUTE
    ../../../../../../drivers/hc32_ll_driver/src/hc32_ll_fcg.c 0x00000000   Number         0  hc32_ll_fcg.o ABSOLUTE
    ../../../../../../drivers/hc32_ll_driver/src/hc32_ll_fcm.c 0x00000000   Number         0  hc32_ll_fcm.o ABSOLUTE
    ../../../../../../drivers/hc32_ll_driver/src/hc32_ll_gpio.c 0x00000000   Number         0  hc32_ll_gpio.o ABSOLUTE
    ../../../../../../drivers/hc32_ll_driver/src/hc32_ll_i2c.c 0x00000000   Number         0  hc32_ll_i2c.o ABSOLUTE
    ../../../../../../drivers/hc32_ll_driver/src/hc32_ll_icg.c 0x00000000   Number         0  hc32_ll_icg.o ABSOLUTE
    ../../../../../../drivers/hc32_ll_driver/src/hc32_ll_interrupts.c 0x00000000   Number         0  hc32_ll_interrupts.o ABSOLUTE
    ../../../../../../drivers/hc32_ll_driver/src/hc32_ll_keyscan.c 0x00000000   Number         0  hc32_ll_keyscan.o ABSOLUTE
    ../../../../../../drivers/hc32_ll_driver/src/hc32_ll_pwc.c 0x00000000   Number         0  hc32_ll_pwc.o ABSOLUTE
    ../../../../../../drivers/hc32_ll_driver/src/hc32_ll_sram.c 0x00000000   Number         0  hc32_ll_sram.o ABSOLUTE
    ../../../../../../drivers/hc32_ll_driver/src/hc32_ll_usart.c 0x00000000   Number         0  hc32_ll_usart.o ABSOLUTE
    ../../../../../../drivers/hc32_ll_driver/src/hc32_ll_usb.c 0x00000000   Number         0  hc32_ll_usb.o ABSOLUTE
    ../../../../../../drivers/hc32_ll_driver/src/hc32_ll_utility.c 0x00000000   Number         0  hc32_ll_utility.o ABSOLUTE
    ../../../../../../midwares/hc32/usb/usb_device_lib/device_class/single_cdc/usb_dev_cdc_class.c 0x00000000   Number         0  usb_dev_cdc_class.o ABSOLUTE
    ../../../../../../midwares/hc32/usb/usb_device_lib/device_core/usb_dev_core.c 0x00000000   Number         0  usb_dev_core.o ABSOLUTE
    ../../../../../../midwares/hc32/usb/usb_device_lib/device_core/usb_dev_ctrleptrans.c 0x00000000   Number         0  usb_dev_ctrleptrans.o ABSOLUTE
    ../../../../../../midwares/hc32/usb/usb_device_lib/device_core/usb_dev_driver.c 0x00000000   Number         0  usb_dev_driver.o ABSOLUTE
    ../../../../../../midwares/hc32/usb/usb_device_lib/device_core/usb_dev_int.c 0x00000000   Number         0  usb_dev_int.o ABSOLUTE
    ../../../../../../midwares/hc32/usb/usb_device_lib/device_core/usb_dev_stdreq.c 0x00000000   Number         0  usb_dev_stdreq.o ABSOLUTE
    ../clib/../cmprslib/zerorunl.c           0x00000000   Number         0  __dczerorl.o ABSOLUTE
    ../clib/microlib/division.c              0x00000000   Number         0  uidiv.o ABSOLUTE
    ../clib/microlib/division.c              0x00000000   Number         0  uldiv.o ABSOLUTE
    ../clib/microlib/init/entry.s            0x00000000   Number         0  entry7a.o ABSOLUTE
    ../clib/microlib/init/entry.s            0x00000000   Number         0  entry11b.o ABSOLUTE
    ../clib/microlib/init/entry.s            0x00000000   Number         0  entry7b.o ABSOLUTE
    ../clib/microlib/init/entry.s            0x00000000   Number         0  entry8a.o ABSOLUTE
    ../clib/microlib/init/entry.s            0x00000000   Number         0  entry8b.o ABSOLUTE
    ../clib/microlib/init/entry.s            0x00000000   Number         0  entry2.o ABSOLUTE
    ../clib/microlib/init/entry.s            0x00000000   Number         0  entry5.o ABSOLUTE
    ../clib/microlib/init/entry.s            0x00000000   Number         0  entry9a.o ABSOLUTE
    ../clib/microlib/init/entry.s            0x00000000   Number         0  entry9b.o ABSOLUTE
    ../clib/microlib/init/entry.s            0x00000000   Number         0  entry10a.o ABSOLUTE
    ../clib/microlib/init/entry.s            0x00000000   Number         0  entry.o ABSOLUTE
    ../clib/microlib/init/entry.s            0x00000000   Number         0  entry10b.o ABSOLUTE
    ../clib/microlib/init/entry.s            0x00000000   Number         0  entry11a.o ABSOLUTE
    ../clib/microlib/longlong.c              0x00000000   Number         0  llshl.o ABSOLUTE
    ../clib/microlib/longlong.c              0x00000000   Number         0  llushr.o ABSOLUTE
    ../clib/microlib/longlong.c              0x00000000   Number         0  llsshr.o ABSOLUTE
    ../clib/microlib/printf/printf.c         0x00000000   Number         0  printf3.o ABSOLUTE
    ../clib/microlib/printf/printf.c         0x00000000   Number         0  printf4.o ABSOLUTE
    ../clib/microlib/printf/printf.c         0x00000000   Number         0  printf2.o ABSOLUTE
    ../clib/microlib/printf/printf.c         0x00000000   Number         0  printf1.o ABSOLUTE
    ../clib/microlib/printf/printf.c         0x00000000   Number         0  printf0.o ABSOLUTE
    ../clib/microlib/printf/printf.c         0x00000000   Number         0  printfb.o ABSOLUTE
    ../clib/microlib/printf/printf.c         0x00000000   Number         0  printfa.o ABSOLUTE
    ../clib/microlib/printf/printf.c         0x00000000   Number         0  printf8.o ABSOLUTE
    ../clib/microlib/printf/printf.c         0x00000000   Number         0  printf7.o ABSOLUTE
    ../clib/microlib/printf/printf.c         0x00000000   Number         0  printf6.o ABSOLUTE
    ../clib/microlib/printf/printf.c         0x00000000   Number         0  printf5.o ABSOLUTE
    ../clib/microlib/printf/stubs.s          0x00000000   Number         0  stubs.o ABSOLUTE
    ../clib/microlib/stdio/streams.c         0x00000000   Number         0  stdout.o ABSOLUTE
    ../clib/microlib/string/memcpy.c         0x00000000   Number         0  memcpya.o ABSOLUTE
    ../clib/microlib/string/memcpy.c         0x00000000   Number         0  memcpyb.o ABSOLUTE
    ../clib/microlib/stubs.s                 0x00000000   Number         0  iusefp.o ABSOLUTE
    ../fplib/microlib/d2f.c                  0x00000000   Number         0  d2f.o ABSOLUTE
    ../fplib/microlib/fpadd.c                0x00000000   Number         0  dadd.o ABSOLUTE
    ../fplib/microlib/fpadd.c                0x00000000   Number         0  fadd.o ABSOLUTE
    ../fplib/microlib/fpdiv.c                0x00000000   Number         0  ddiv.o ABSOLUTE
    ../fplib/microlib/fpdiv.c                0x00000000   Number         0  fdiv.o ABSOLUTE
    ../fplib/microlib/fpepilogue.c           0x00000000   Number         0  depilogue.o ABSOLUTE
    ../fplib/microlib/fpepilogue.c           0x00000000   Number         0  fepilogue.o ABSOLUTE
    ../fplib/microlib/fpfix.c                0x00000000   Number         0  dfixul.o ABSOLUTE
    ../fplib/microlib/fpfix.c                0x00000000   Number         0  ffixui.o ABSOLUTE
    ../fplib/microlib/fpflt.c                0x00000000   Number         0  dfltul.o ABSOLUTE
    ../fplib/microlib/fpflt.c                0x00000000   Number         0  dfltui.o ABSOLUTE
    ../fplib/microlib/fpflt.c                0x00000000   Number         0  ffltui.o ABSOLUTE
    ../fplib/microlib/fpmul.c                0x00000000   Number         0  dmul.o ABSOLUTE
    ../fplib/microlib/fpmul.c                0x00000000   Number         0  fmul.o ABSOLUTE
    ../source/cdc_data_process.c             0x00000000   Number         0  cdc_data_process.o ABSOLUTE
    ../source/usb_bsp.c                      0x00000000   Number         0  usb_bsp.o ABSOLUTE
    ../source/usb_dev_desc.c                 0x00000000   Number         0  usb_dev_desc.o ABSOLUTE
    ../source/usb_dev_user.c                 0x00000000   Number         0  usb_dev_user.o ABSOLUTE
    ..\..\..\..\..\..\drivers\bsp\ev_hc32f460_lqfp100_v2\ev_hc32f460_lqfp100_v2.c 0x00000000   Number         0  ev_hc32f460_lqfp100_v2.o ABSOLUTE
    ..\..\..\..\..\..\drivers\cmsis\Device\HDSC\hc32f4xx\Source\system_hc32f460.c 0x00000000   Number         0  system_hc32f460.o ABSOLUTE
    ..\..\..\..\..\..\drivers\hc32_ll_driver\src\hc32_ll.c 0x00000000   Number         0  hc32_ll.o ABSOLUTE
    ..\..\..\..\..\..\drivers\hc32_ll_driver\src\hc32_ll_clk.c 0x00000000   Number         0  hc32_ll_clk.o ABSOLUTE
    ..\..\..\..\..\..\drivers\hc32_ll_driver\src\hc32_ll_efm.c 0x00000000   Number         0  hc32_ll_efm.o ABSOLUTE
    ..\..\..\..\..\..\drivers\hc32_ll_driver\src\hc32_ll_fcg.c 0x00000000   Number         0  hc32_ll_fcg.o ABSOLUTE
    ..\..\..\..\..\..\drivers\hc32_ll_driver\src\hc32_ll_fcm.c 0x00000000   Number         0  hc32_ll_fcm.o ABSOLUTE
    ..\..\..\..\..\..\drivers\hc32_ll_driver\src\hc32_ll_gpio.c 0x00000000   Number         0  hc32_ll_gpio.o ABSOLUTE
    ..\..\..\..\..\..\drivers\hc32_ll_driver\src\hc32_ll_i2c.c 0x00000000   Number         0  hc32_ll_i2c.o ABSOLUTE
    ..\..\..\..\..\..\drivers\hc32_ll_driver\src\hc32_ll_icg.c 0x00000000   Number         0  hc32_ll_icg.o ABSOLUTE
    ..\..\..\..\..\..\drivers\hc32_ll_driver\src\hc32_ll_interrupts.c 0x00000000   Number         0  hc32_ll_interrupts.o ABSOLUTE
    ..\..\..\..\..\..\drivers\hc32_ll_driver\src\hc32_ll_keyscan.c 0x00000000   Number         0  hc32_ll_keyscan.o ABSOLUTE
    ..\..\..\..\..\..\drivers\hc32_ll_driver\src\hc32_ll_pwc.c 0x00000000   Number         0  hc32_ll_pwc.o ABSOLUTE
    ..\..\..\..\..\..\drivers\hc32_ll_driver\src\hc32_ll_sram.c 0x00000000   Number         0  hc32_ll_sram.o ABSOLUTE
    ..\..\..\..\..\..\drivers\hc32_ll_driver\src\hc32_ll_usart.c 0x00000000   Number         0  hc32_ll_usart.o ABSOLUTE
    ..\..\..\..\..\..\drivers\hc32_ll_driver\src\hc32_ll_usb.c 0x00000000   Number         0  hc32_ll_usb.o ABSOLUTE
    ..\..\..\..\..\..\drivers\hc32_ll_driver\src\hc32_ll_utility.c 0x00000000   Number         0  hc32_ll_utility.o ABSOLUTE
    ..\..\..\..\..\..\midwares\hc32\usb\usb_device_lib\device_class\single_cdc\usb_dev_cdc_class.c 0x00000000   Number         0  usb_dev_cdc_class.o ABSOLUTE
    ..\..\..\..\..\..\midwares\hc32\usb\usb_device_lib\device_core\usb_dev_core.c 0x00000000   Number         0  usb_dev_core.o ABSOLUTE
    ..\..\..\..\..\..\midwares\hc32\usb\usb_device_lib\device_core\usb_dev_ctrleptrans.c 0x00000000   Number         0  usb_dev_ctrleptrans.o ABSOLUTE
    ..\..\..\..\..\..\midwares\hc32\usb\usb_device_lib\device_core\usb_dev_driver.c 0x00000000   Number         0  usb_dev_driver.o ABSOLUTE
    ..\..\..\..\..\..\midwares\hc32\usb\usb_device_lib\device_core\usb_dev_int.c 0x00000000   Number         0  usb_dev_int.o ABSOLUTE
    ..\..\..\..\..\..\midwares\hc32\usb\usb_device_lib\device_core\usb_dev_stdreq.c 0x00000000   Number         0  usb_dev_stdreq.o ABSOLUTE
    ..\\source\\main.c                       0x00000000   Number         0  main.o ABSOLUTE
    ..\source\cdc_data_process.c             0x00000000   Number         0  cdc_data_process.o ABSOLUTE
    ..\source\main.c                         0x00000000   Number         0  main.o ABSOLUTE
    ..\source\usb_bsp.c                      0x00000000   Number         0  usb_bsp.o ABSOLUTE
    ..\source\usb_dev_desc.c                 0x00000000   Number         0  usb_dev_desc.o ABSOLUTE
    ..\source\usb_dev_user.c                 0x00000000   Number         0  usb_dev_user.o ABSOLUTE
    cdrcmple.s                               0x00000000   Number         0  cdrcmple.o ABSOLUTE
    cfcmple.s                                0x00000000   Number         0  cfcmple.o ABSOLUTE
    cfrcmple.s                               0x00000000   Number         0  cfrcmple.o ABSOLUTE
    dc.s                                     0x00000000   Number         0  dc.o ABSOLUTE
    handlers.s                               0x00000000   Number         0  handlers.o ABSOLUTE
    init.s                                   0x00000000   Number         0  init.o ABSOLUTE
    startup_hc32f460.s                       0x00000000   Number         0  startup_hc32f460.o ABSOLUTE
    .ARM.Collect$$$$00000000                 0x00000280   Section        0  entry.o(.ARM.Collect$$$$00000000)
    .ARM.Collect$$$$00000001                 0x00000280   Section        4  entry2.o(.ARM.Collect$$$$00000001)
    .ARM.Collect$$$$00000004                 0x00000284   Section        4  entry5.o(.ARM.Collect$$$$00000004)
    .ARM.Collect$$$$00000008                 0x00000288   Section        0  entry7b.o(.ARM.Collect$$$$00000008)
    .ARM.Collect$$$$0000000A                 0x00000288   Section        0  entry8b.o(.ARM.Collect$$$$0000000A)
    .ARM.Collect$$$$0000000B                 0x00000288   Section        8  entry9a.o(.ARM.Collect$$$$0000000B)
    .ARM.Collect$$$$0000000D                 0x00000290   Section        0  entry10a.o(.ARM.Collect$$$$0000000D)
    .ARM.Collect$$$$0000000F                 0x00000290   Section        0  entry11a.o(.ARM.Collect$$$$0000000F)
    .ARM.Collect$$$$00002712                 0x00000290   Section        4  entry2.o(.ARM.Collect$$$$00002712)
    __lit__00000000                          0x00000290   Data           4  entry2.o(.ARM.Collect$$$$00002712)
    .text                                    0x00000294   Section       88  startup_hc32f460.o(.text)
    .text                                    0x000002ec   Section        0  uldiv.o(.text)
    .text                                    0x0000034e   Section        0  memcpya.o(.text)
    .text                                    0x00000372   Section        0  dfltui.o(.text)
    .text                                    0x0000038c   Section        0  dfltul.o(.text)
    .text                                    0x000003a4   Section        0  d2f.o(.text)
    .text                                    0x000003dc   Section       20  cfcmple.o(.text)
    .text                                    0x000003f0   Section        0  iusefp.o(.text)
    i.CLK_SetSysClockSrc                     0x000003f0   Section        0  hc32_ll_clk.o(i.CLK_SetSysClockSrc)
    .ARM.__AT_0x00000400                     0x00000400   Section       32  hc32_ll_icg.o(.ARM.__AT_0x00000400)
    .text                                    0x00000420   Section        0  fadd.o(.text)
    .text                                    0x000004d0   Section        0  ddiv.o(.text)
    .text                                    0x000005ae   Section        0  uidiv.o(.text)
    .text                                    0x000005da   Section        0  llshl.o(.text)
    .text                                    0x000005f8   Section        0  llushr.o(.text)
    .text                                    0x00000618   Section        0  fepilogue.o(.text)
    .text                                    0x00000686   Section        0  depilogue.o(.text)
    .text                                    0x00000740   Section       36  init.o(.text)
    .text                                    0x00000764   Section        0  __dczerorl.o(.text)
    i.BSP_CLK_Init                           0x000007a0   Section        0  ev_hc32f460_lqfp100_v2.o(i.BSP_CLK_Init)
    i.BSP_KEY_KEY10_IrqHandler               0x00000848   Section        0  ev_hc32f460_lqfp100_v2.o(i.BSP_KEY_KEY10_IrqHandler)
    i.BSP_LED_Init                           0x00000870   Section        0  ev_hc32f460_lqfp100_v2.o(i.BSP_LED_Init)
    i.BSP_PRINTF_Preinit                     0x000008a8   Section        0  ev_hc32f460_lqfp100_v2.o(i.BSP_PRINTF_Preinit)
    i.CLK_GetStableStatus                    0x00000938   Section        0  hc32_ll_clk.o(i.CLK_GetStableStatus)
    i.CLK_PLLCmd                             0x000009a8   Section        0  hc32_ll_clk.o(i.CLK_PLLCmd)
    i.CLK_PLLInit                            0x00000a80   Section        0  hc32_ll_clk.o(i.CLK_PLLInit)
    i.CLK_PLLStructInit                      0x00000d34   Section        0  hc32_ll_clk.o(i.CLK_PLLStructInit)
    i.CLK_PLLxCmd                            0x00000d88   Section        0  hc32_ll_clk.o(i.CLK_PLLxCmd)
    i.CLK_PLLxInit                           0x00000e4c   Section        0  hc32_ll_clk.o(i.CLK_PLLxInit)
    i.CLK_PLLxStructInit                     0x00000e84   Section        0  hc32_ll_clk.o(i.CLK_PLLxStructInit)
    i.CLK_SetClockDiv                        0x00000ece   Section        0  hc32_ll_clk.o(i.CLK_SetClockDiv)
    i.CLK_SetUSBClockSrc                     0x00000ee4   Section        0  hc32_ll_clk.o(i.CLK_SetUSBClockSrc)
    i.CLK_WaitStable                         0x00000f88   Section        0  hc32_ll_clk.o(i.CLK_WaitStable)
    CLK_WaitStable                           0x00000f89   Thumb Code    48  hc32_ll_clk.o(i.CLK_WaitStable)
    i.CLK_XtalStructInit                     0x00000fb8   Section        0  hc32_ll_clk.o(i.CLK_XtalStructInit)
    i.ClockSync_CalculateBrr                 0x00000fd8   Section        0  hc32_ll_usart.o(i.ClockSync_CalculateBrr)
    ClockSync_CalculateBrr                   0x00000fd9   Thumb Code   484  hc32_ll_usart.o(i.ClockSync_CalculateBrr)
    i.DDL_AssertHandler                      0x0000120c   Section        0  hc32_ll_utility.o(i.DDL_AssertHandler)
    i.DDL_ConsoleOutputChar                  0x00001250   Section        0  hc32_ll_utility.o(i.DDL_ConsoleOutputChar)
    i.DDL_DelayUS                            0x0000129c   Section        0  hc32_ll_utility.o(i.DDL_DelayUS)
    i.EFM_SetWaitCycle                       0x000012dc   Section        0  hc32_ll_efm.o(i.EFM_SetWaitCycle)
    i.EXTINT_ClearExtIntStatus               0x000013a4   Section        0  hc32_ll_interrupts.o(i.EXTINT_ClearExtIntStatus)
    i.FCG_Fcg1PeriphClockCmd                 0x000013dc   Section        0  hc32_ll_fcg.o(i.FCG_Fcg1PeriphClockCmd)
    i.GPIO_Init                              0x00001470   Section        0  hc32_ll_gpio.o(i.GPIO_Init)
    i.GPIO_ReadInputPins                     0x0000167c   Section        0  hc32_ll_gpio.o(i.GPIO_ReadInputPins)
    i.GPIO_SetFunc                           0x00001714   Section        0  hc32_ll_gpio.o(i.GPIO_SetFunc)
    i.GPIO_SetPins                           0x00001810   Section        0  hc32_ll_gpio.o(i.GPIO_SetPins)
    i.GPIO_SetReadWaitCycle                  0x000018a4   Section        0  hc32_ll_gpio.o(i.GPIO_SetReadWaitCycle)
    i.GPIO_StructInit                        0x00001940   Section        0  hc32_ll_gpio.o(i.GPIO_StructInit)
    i.INTC_IrqSignIn                         0x00001960   Section        0  hc32_ll_interrupts.o(i.INTC_IrqSignIn)
    i.IRQ000_Handler                         0x00001a14   Section        0  hc32_ll_interrupts.o(i.IRQ000_Handler)
    i.IRQ001_Handler                         0x00001a28   Section        0  hc32_ll_interrupts.o(i.IRQ001_Handler)
    i.IRQ002_Handler                         0x00001a3c   Section        0  hc32_ll_interrupts.o(i.IRQ002_Handler)
    i.IRQ003_Handler                         0x00001a50   Section        0  hc32_ll_interrupts.o(i.IRQ003_Handler)
    i.IRQ004_Handler                         0x00001a64   Section        0  hc32_ll_interrupts.o(i.IRQ004_Handler)
    i.IRQ005_Handler                         0x00001a78   Section        0  hc32_ll_interrupts.o(i.IRQ005_Handler)
    i.IRQ006_Handler                         0x00001a8c   Section        0  hc32_ll_interrupts.o(i.IRQ006_Handler)
    i.IRQ007_Handler                         0x00001aa0   Section        0  hc32_ll_interrupts.o(i.IRQ007_Handler)
    i.IRQ008_Handler                         0x00001ab4   Section        0  hc32_ll_interrupts.o(i.IRQ008_Handler)
    i.IRQ009_Handler                         0x00001ac8   Section        0  hc32_ll_interrupts.o(i.IRQ009_Handler)
    i.IRQ010_Handler                         0x00001adc   Section        0  hc32_ll_interrupts.o(i.IRQ010_Handler)
    i.IRQ011_Handler                         0x00001af0   Section        0  hc32_ll_interrupts.o(i.IRQ011_Handler)
    i.IRQ012_Handler                         0x00001b04   Section        0  hc32_ll_interrupts.o(i.IRQ012_Handler)
    i.IRQ013_Handler                         0x00001b18   Section        0  hc32_ll_interrupts.o(i.IRQ013_Handler)
    i.IRQ014_Handler                         0x00001b2c   Section        0  hc32_ll_interrupts.o(i.IRQ014_Handler)
    i.IRQ015_Handler                         0x00001b40   Section        0  hc32_ll_interrupts.o(i.IRQ015_Handler)
    i.IRQ016_Handler                         0x00001b54   Section        0  hc32_ll_interrupts.o(i.IRQ016_Handler)
    i.IRQ017_Handler                         0x00001b68   Section        0  hc32_ll_interrupts.o(i.IRQ017_Handler)
    i.IRQ018_Handler                         0x00001b7c   Section        0  hc32_ll_interrupts.o(i.IRQ018_Handler)
    i.IRQ019_Handler                         0x00001b90   Section        0  hc32_ll_interrupts.o(i.IRQ019_Handler)
    i.IRQ020_Handler                         0x00001ba4   Section        0  hc32_ll_interrupts.o(i.IRQ020_Handler)
    i.IRQ021_Handler                         0x00001bb8   Section        0  hc32_ll_interrupts.o(i.IRQ021_Handler)
    i.IRQ022_Handler                         0x00001bcc   Section        0  hc32_ll_interrupts.o(i.IRQ022_Handler)
    i.IRQ023_Handler                         0x00001be0   Section        0  hc32_ll_interrupts.o(i.IRQ023_Handler)
    i.IRQ024_Handler                         0x00001bf4   Section        0  hc32_ll_interrupts.o(i.IRQ024_Handler)
    i.IRQ025_Handler                         0x00001c08   Section        0  hc32_ll_interrupts.o(i.IRQ025_Handler)
    i.IRQ026_Handler                         0x00001c1c   Section        0  hc32_ll_interrupts.o(i.IRQ026_Handler)
    i.IRQ027_Handler                         0x00001c30   Section        0  hc32_ll_interrupts.o(i.IRQ027_Handler)
    i.IRQ028_Handler                         0x00001c44   Section        0  hc32_ll_interrupts.o(i.IRQ028_Handler)
    i.IRQ029_Handler                         0x00001c58   Section        0  hc32_ll_interrupts.o(i.IRQ029_Handler)
    i.IRQ030_Handler                         0x00001c6c   Section        0  hc32_ll_interrupts.o(i.IRQ030_Handler)
    i.IRQ031_Handler                         0x00001c80   Section        0  hc32_ll_interrupts.o(i.IRQ031_Handler)
    i.IRQ032_Handler                         0x00001c94   Section        0  hc32_ll_interrupts.o(i.IRQ032_Handler)
    i.IRQ033_Handler                         0x00001ca8   Section        0  hc32_ll_interrupts.o(i.IRQ033_Handler)
    i.IRQ034_Handler                         0x00001cbc   Section        0  hc32_ll_interrupts.o(i.IRQ034_Handler)
    i.IRQ035_Handler                         0x00001cd0   Section        0  hc32_ll_interrupts.o(i.IRQ035_Handler)
    i.IRQ036_Handler                         0x00001ce4   Section        0  hc32_ll_interrupts.o(i.IRQ036_Handler)
    i.IRQ037_Handler                         0x00001cf8   Section        0  hc32_ll_interrupts.o(i.IRQ037_Handler)
    i.IRQ038_Handler                         0x00001d0c   Section        0  hc32_ll_interrupts.o(i.IRQ038_Handler)
    i.IRQ039_Handler                         0x00001d20   Section        0  hc32_ll_interrupts.o(i.IRQ039_Handler)
    i.IRQ040_Handler                         0x00001d34   Section        0  hc32_ll_interrupts.o(i.IRQ040_Handler)
    i.IRQ041_Handler                         0x00001d48   Section        0  hc32_ll_interrupts.o(i.IRQ041_Handler)
    i.IRQ042_Handler                         0x00001d5c   Section        0  hc32_ll_interrupts.o(i.IRQ042_Handler)
    i.IRQ043_Handler                         0x00001d70   Section        0  hc32_ll_interrupts.o(i.IRQ043_Handler)
    i.IRQ044_Handler                         0x00001d84   Section        0  hc32_ll_interrupts.o(i.IRQ044_Handler)
    i.IRQ045_Handler                         0x00001d98   Section        0  hc32_ll_interrupts.o(i.IRQ045_Handler)
    i.IRQ046_Handler                         0x00001dac   Section        0  hc32_ll_interrupts.o(i.IRQ046_Handler)
    i.IRQ047_Handler                         0x00001dc0   Section        0  hc32_ll_interrupts.o(i.IRQ047_Handler)
    i.IRQ048_Handler                         0x00001dd4   Section        0  hc32_ll_interrupts.o(i.IRQ048_Handler)
    i.IRQ049_Handler                         0x00001de8   Section        0  hc32_ll_interrupts.o(i.IRQ049_Handler)
    i.IRQ050_Handler                         0x00001dfc   Section        0  hc32_ll_interrupts.o(i.IRQ050_Handler)
    i.IRQ051_Handler                         0x00001e10   Section        0  hc32_ll_interrupts.o(i.IRQ051_Handler)
    i.IRQ052_Handler                         0x00001e24   Section        0  hc32_ll_interrupts.o(i.IRQ052_Handler)
    i.IRQ053_Handler                         0x00001e38   Section        0  hc32_ll_interrupts.o(i.IRQ053_Handler)
    i.IRQ054_Handler                         0x00001e4c   Section        0  hc32_ll_interrupts.o(i.IRQ054_Handler)
    i.IRQ055_Handler                         0x00001e60   Section        0  hc32_ll_interrupts.o(i.IRQ055_Handler)
    i.IRQ056_Handler                         0x00001e74   Section        0  hc32_ll_interrupts.o(i.IRQ056_Handler)
    i.IRQ057_Handler                         0x00001e88   Section        0  hc32_ll_interrupts.o(i.IRQ057_Handler)
    i.IRQ058_Handler                         0x00001e9c   Section        0  hc32_ll_interrupts.o(i.IRQ058_Handler)
    i.IRQ059_Handler                         0x00001eb0   Section        0  hc32_ll_interrupts.o(i.IRQ059_Handler)
    i.IRQ060_Handler                         0x00001ec4   Section        0  hc32_ll_interrupts.o(i.IRQ060_Handler)
    i.IRQ061_Handler                         0x00001ed8   Section        0  hc32_ll_interrupts.o(i.IRQ061_Handler)
    i.IRQ062_Handler                         0x00001eec   Section        0  hc32_ll_interrupts.o(i.IRQ062_Handler)
    i.IRQ063_Handler                         0x00001f00   Section        0  hc32_ll_interrupts.o(i.IRQ063_Handler)
    i.IRQ064_Handler                         0x00001f14   Section        0  hc32_ll_interrupts.o(i.IRQ064_Handler)
    i.IRQ065_Handler                         0x00001f28   Section        0  hc32_ll_interrupts.o(i.IRQ065_Handler)
    i.IRQ066_Handler                         0x00001f3c   Section        0  hc32_ll_interrupts.o(i.IRQ066_Handler)
    i.IRQ067_Handler                         0x00001f50   Section        0  hc32_ll_interrupts.o(i.IRQ067_Handler)
    i.IRQ068_Handler                         0x00001f64   Section        0  hc32_ll_interrupts.o(i.IRQ068_Handler)
    i.IRQ069_Handler                         0x00001f78   Section        0  hc32_ll_interrupts.o(i.IRQ069_Handler)
    i.IRQ070_Handler                         0x00001f8c   Section        0  hc32_ll_interrupts.o(i.IRQ070_Handler)
    i.IRQ071_Handler                         0x00001fa0   Section        0  hc32_ll_interrupts.o(i.IRQ071_Handler)
    i.IRQ072_Handler                         0x00001fb4   Section        0  hc32_ll_interrupts.o(i.IRQ072_Handler)
    i.IRQ073_Handler                         0x00001fc8   Section        0  hc32_ll_interrupts.o(i.IRQ073_Handler)
    i.IRQ074_Handler                         0x00001fdc   Section        0  hc32_ll_interrupts.o(i.IRQ074_Handler)
    i.IRQ075_Handler                         0x00001ff0   Section        0  hc32_ll_interrupts.o(i.IRQ075_Handler)
    i.IRQ076_Handler                         0x00002004   Section        0  hc32_ll_interrupts.o(i.IRQ076_Handler)
    i.IRQ077_Handler                         0x00002018   Section        0  hc32_ll_interrupts.o(i.IRQ077_Handler)
    i.IRQ078_Handler                         0x0000202c   Section        0  hc32_ll_interrupts.o(i.IRQ078_Handler)
    i.IRQ079_Handler                         0x00002040   Section        0  hc32_ll_interrupts.o(i.IRQ079_Handler)
    i.IRQ080_Handler                         0x00002054   Section        0  hc32_ll_interrupts.o(i.IRQ080_Handler)
    i.IRQ081_Handler                         0x00002068   Section        0  hc32_ll_interrupts.o(i.IRQ081_Handler)
    i.IRQ082_Handler                         0x0000207c   Section        0  hc32_ll_interrupts.o(i.IRQ082_Handler)
    i.IRQ083_Handler                         0x00002090   Section        0  hc32_ll_interrupts.o(i.IRQ083_Handler)
    i.IRQ084_Handler                         0x000020a4   Section        0  hc32_ll_interrupts.o(i.IRQ084_Handler)
    i.IRQ085_Handler                         0x000020b8   Section        0  hc32_ll_interrupts.o(i.IRQ085_Handler)
    i.IRQ086_Handler                         0x000020cc   Section        0  hc32_ll_interrupts.o(i.IRQ086_Handler)
    i.IRQ087_Handler                         0x000020e0   Section        0  hc32_ll_interrupts.o(i.IRQ087_Handler)
    i.IRQ088_Handler                         0x000020f4   Section        0  hc32_ll_interrupts.o(i.IRQ088_Handler)
    i.IRQ089_Handler                         0x00002108   Section        0  hc32_ll_interrupts.o(i.IRQ089_Handler)
    i.IRQ090_Handler                         0x0000211c   Section        0  hc32_ll_interrupts.o(i.IRQ090_Handler)
    i.IRQ091_Handler                         0x00002130   Section        0  hc32_ll_interrupts.o(i.IRQ091_Handler)
    i.IRQ092_Handler                         0x00002144   Section        0  hc32_ll_interrupts.o(i.IRQ092_Handler)
    i.IRQ093_Handler                         0x00002158   Section        0  hc32_ll_interrupts.o(i.IRQ093_Handler)
    i.IRQ094_Handler                         0x0000216c   Section        0  hc32_ll_interrupts.o(i.IRQ094_Handler)
    i.IRQ095_Handler                         0x00002180   Section        0  hc32_ll_interrupts.o(i.IRQ095_Handler)
    i.IRQ096_Handler                         0x00002194   Section        0  hc32_ll_interrupts.o(i.IRQ096_Handler)
    i.IRQ097_Handler                         0x000021a8   Section        0  hc32_ll_interrupts.o(i.IRQ097_Handler)
    i.IRQ098_Handler                         0x000021bc   Section        0  hc32_ll_interrupts.o(i.IRQ098_Handler)
    i.IRQ099_Handler                         0x000021d0   Section        0  hc32_ll_interrupts.o(i.IRQ099_Handler)
    i.IRQ100_Handler                         0x000021e4   Section        0  hc32_ll_interrupts.o(i.IRQ100_Handler)
    i.IRQ101_Handler                         0x000021f8   Section        0  hc32_ll_interrupts.o(i.IRQ101_Handler)
    i.IRQ102_Handler                         0x0000220c   Section        0  hc32_ll_interrupts.o(i.IRQ102_Handler)
    i.IRQ103_Handler                         0x00002220   Section        0  hc32_ll_interrupts.o(i.IRQ103_Handler)
    i.IRQ104_Handler                         0x00002234   Section        0  hc32_ll_interrupts.o(i.IRQ104_Handler)
    i.IRQ105_Handler                         0x00002248   Section        0  hc32_ll_interrupts.o(i.IRQ105_Handler)
    i.IRQ106_Handler                         0x0000225c   Section        0  hc32_ll_interrupts.o(i.IRQ106_Handler)
    i.IRQ107_Handler                         0x00002270   Section        0  hc32_ll_interrupts.o(i.IRQ107_Handler)
    i.IRQ108_Handler                         0x00002284   Section        0  hc32_ll_interrupts.o(i.IRQ108_Handler)
    i.IRQ109_Handler                         0x00002298   Section        0  hc32_ll_interrupts.o(i.IRQ109_Handler)
    i.IRQ110_Handler                         0x000022ac   Section        0  hc32_ll_interrupts.o(i.IRQ110_Handler)
    i.IRQ111_Handler                         0x000022c0   Section        0  hc32_ll_interrupts.o(i.IRQ111_Handler)
    i.IRQ112_Handler                         0x000022d4   Section        0  hc32_ll_interrupts.o(i.IRQ112_Handler)
    i.IRQ113_Handler                         0x000022e8   Section        0  hc32_ll_interrupts.o(i.IRQ113_Handler)
    i.IRQ114_Handler                         0x000022fc   Section        0  hc32_ll_interrupts.o(i.IRQ114_Handler)
    i.IRQ115_Handler                         0x00002310   Section        0  hc32_ll_interrupts.o(i.IRQ115_Handler)
    i.IRQ116_Handler                         0x00002324   Section        0  hc32_ll_interrupts.o(i.IRQ116_Handler)
    i.IRQ117_Handler                         0x00002338   Section        0  hc32_ll_interrupts.o(i.IRQ117_Handler)
    i.IRQ118_Handler                         0x0000234c   Section        0  hc32_ll_interrupts.o(i.IRQ118_Handler)
    i.IRQ119_Handler                         0x00002360   Section        0  hc32_ll_interrupts.o(i.IRQ119_Handler)
    i.IRQ120_Handler                         0x00002374   Section        0  hc32_ll_interrupts.o(i.IRQ120_Handler)
    i.IRQ121_Handler                         0x00002388   Section        0  hc32_ll_interrupts.o(i.IRQ121_Handler)
    i.IRQ122_Handler                         0x0000239c   Section        0  hc32_ll_interrupts.o(i.IRQ122_Handler)
    i.IRQ123_Handler                         0x000023b0   Section        0  hc32_ll_interrupts.o(i.IRQ123_Handler)
    i.IRQ124_Handler                         0x000023c4   Section        0  hc32_ll_interrupts.o(i.IRQ124_Handler)
    i.IRQ125_Handler                         0x000023d8   Section        0  hc32_ll_interrupts.o(i.IRQ125_Handler)
    i.IRQ126_Handler                         0x000023ec   Section        0  hc32_ll_interrupts.o(i.IRQ126_Handler)
    i.IRQ127_Handler                         0x00002400   Section        0  hc32_ll_interrupts.o(i.IRQ127_Handler)
    i.InstalIrqHandler                       0x00002414   Section        0  cdc_data_process.o(i.InstalIrqHandler)
    InstalIrqHandler                         0x00002415   Thumb Code   118  cdc_data_process.o(i.InstalIrqHandler)
    i.LL_PERIPH_WE                           0x00002498   Section        0  hc32_ll.o(i.LL_PERIPH_WE)
    i.LL_PrintfInit                          0x00002528   Section        0  hc32_ll_utility.o(i.LL_PrintfInit)
    i.PLLxParamCheck                         0x000025dc   Section        0  hc32_ll_clk.o(i.PLLxParamCheck)
    PLLxParamCheck                           0x000025dd   Thumb Code   512  hc32_ll_clk.o(i.PLLxParamCheck)
    i.PWC_HighSpeedToHighPerformance         0x0000283c   Section        0  hc32_ll_pwc.o(i.PWC_HighSpeedToHighPerformance)
    i.PWC_REG_Unlock                         0x000028c0   Section        0  hc32_ll.o(i.PWC_REG_Unlock)
    PWC_REG_Unlock                           0x000028c1   Thumb Code    14  hc32_ll.o(i.PWC_REG_Unlock)
    i.SRAM_SetWaitCycle                      0x000028d8   Section        0  hc32_ll_sram.o(i.SRAM_SetWaitCycle)
    i.SetSysClockDiv                         0x000029d0   Section        0  hc32_ll_clk.o(i.SetSysClockDiv)
    SetSysClockDiv                           0x000029d1   Thumb Code   746  hc32_ll_clk.o(i.SetSysClockDiv)
    i.SetSysClockSrc                         0x00002d0c   Section        0  hc32_ll_clk.o(i.SetSysClockSrc)
    SetSysClockSrc                           0x00002d0d   Thumb Code   198  hc32_ll_clk.o(i.SetSysClockSrc)
    i.SmartCard_CalculateBrr                 0x00002e20   Section        0  hc32_ll_usart.o(i.SmartCard_CalculateBrr)
    SmartCard_CalculateBrr                   0x00002e21   Thumb Code   574  hc32_ll_usart.o(i.SmartCard_CalculateBrr)
    i.SystemCoreClockUpdate                  0x000030b4   Section        0  system_hc32f460.o(i.SystemCoreClockUpdate)
    i.SystemInit                             0x00003180   Section        0  system_hc32f460.o(i.SystemInit)
    i.UART_CalculateBrr                      0x00003194   Section        0  hc32_ll_usart.o(i.UART_CalculateBrr)
    UART_CalculateBrr                        0x00003195   Thumb Code   580  hc32_ll_usart.o(i.UART_CalculateBrr)
    i.USART_ClearStatus                      0x00003428   Section        0  hc32_ll_usart.o(i.USART_ClearStatus)
    i.USART_FuncCmd                          0x000034e8   Section        0  hc32_ll_usart.o(i.USART_FuncCmd)
    i.USART_GetBusClockFreq                  0x000035b4   Section        0  hc32_ll_usart.o(i.USART_GetBusClockFreq)
    USART_GetBusClockFreq                    0x000035b5   Thumb Code    20  hc32_ll_usart.o(i.USART_GetBusClockFreq)
    i.USART_GetStatus                        0x000035d0   Section        0  hc32_ll_usart.o(i.USART_GetStatus)
    i.USART_GetUsartClockFreq                0x0000367c   Section        0  hc32_ll_usart.o(i.USART_GetUsartClockFreq)
    USART_GetUsartClockFreq                  0x0000367d   Thumb Code    76  hc32_ll_usart.o(i.USART_GetUsartClockFreq)
    i.USART_ReadData                         0x00003718   Section        0  hc32_ll_usart.o(i.USART_ReadData)
    i.USART_SetBaudrate                      0x00003798   Section        0  hc32_ll_usart.o(i.USART_SetBaudrate)
    i.USART_SetClockDiv                      0x000038b0   Section        0  hc32_ll_usart.o(i.USART_SetClockDiv)
    i.USART_UART_Init                        0x0000394c   Section        0  hc32_ll_usart.o(i.USART_UART_Init)
    i.USART_UART_StructInit                  0x00003b50   Section        0  hc32_ll_usart.o(i.USART_UART_StructInit)
    i.USART_WriteData                        0x00003b80   Section        0  hc32_ll_usart.o(i.USART_WriteData)
    i.USB_IRQ_Handler                        0x00003c18   Section        0  usb_bsp.o(i.USB_IRQ_Handler)
    USB_IRQ_Handler                          0x00003c19   Thumb Code    10  usb_bsp.o(i.USB_IRQ_Handler)
    i.UsartErrIrqCallback                    0x00003c28   Section        0  cdc_data_process.o(i.UsartErrIrqCallback)
    UsartErrIrqCallback                      0x00003c29   Thumb Code    64  cdc_data_process.o(i.UsartErrIrqCallback)
    i.UsartRxIrqCallback                     0x00003c6c   Section        0  cdc_data_process.o(i.UsartRxIrqCallback)
    UsartRxIrqCallback                       0x00003c6d   Thumb Code    20  cdc_data_process.o(i.UsartRxIrqCallback)
    i.UsbClockInit                           0x00003c84   Section        0  usb_bsp.o(i.UsbClockInit)
    UsbClockInit                             0x00003c85   Thumb Code    86  usb_bsp.o(i.UsbClockInit)
    i.VCP_COMConfigDefault                   0x00003cdc   Section        0  cdc_data_process.o(i.VCP_COMConfigDefault)
    VCP_COMConfigDefault                     0x00003cdd   Thumb Code    70  cdc_data_process.o(i.VCP_COMConfigDefault)
    i.__0printf$3                            0x00003d2c   Section        0  printf3.o(i.__0printf$3)
    i.__scatterload_copy                     0x00003d4c   Section       14  handlers.o(i.__scatterload_copy)
    i.__scatterload_null                     0x00003d5a   Section        2  handlers.o(i.__scatterload_null)
    i.__scatterload_zeroinit                 0x00003d5c   Section       14  handlers.o(i.__scatterload_zeroinit)
    i._printf_core                           0x00003d6c   Section        0  printf3.o(i._printf_core)
    _printf_core                             0x00003d6d   Thumb Code   436  printf3.o(i._printf_core)
    i.comport_config                         0x00003f24   Section        0  cdc_data_process.o(i.comport_config)
    comport_config                           0x00003f25   Thumb Code   252  cdc_data_process.o(i.comport_config)
    i.fputc                                  0x0000402c   Section        0  hc32_ll_utility.o(i.fputc)
    i.main                                   0x00004044   Section        0  main.o(i.main)
    i.process_asynchdata_uart2usb            0x00004070   Section        0  usb_dev_cdc_class.o(i.process_asynchdata_uart2usb)
    i.usb_DevFSFifoConfig                    0x00004140   Section        0  hc32_ll_usb.o(i.usb_DevFSFifoConfig)
    usb_DevFSFifoConfig                      0x00004141   Thumb Code    66  hc32_ll_usb.o(i.usb_DevFSFifoConfig)
    i.usb_addrset                            0x00004188   Section        0  usb_dev_driver.o(i.usb_addrset)
    i.usb_bsp_init                           0x0000419c   Section        0  usb_bsp.o(i.usb_bsp_init)
    i.usb_bsp_nvicconfig                     0x00004220   Section        0  usb_bsp.o(i.usb_bsp_nvicconfig)
    i.usb_clearepstall                       0x000042b4   Section        0  hc32_ll_usb.o(i.usb_clearepstall)
    i.usb_clrfeature                         0x000042ee   Section        0  usb_dev_stdreq.o(i.usb_clrfeature)
    i.usb_clrstall                           0x00004330   Section        0  usb_dev_driver.o(i.usb_clrstall)
    i.usb_coresoftrst                        0x00004390   Section        0  hc32_ll_usb.o(i.usb_coresoftrst)
    i.usb_ctrlconn                           0x00004414   Section        0  usb_dev_core.o(i.usb_ctrlconn)
    i.usb_ctrldatarx                         0x0000444c   Section        0  usb_dev_ctrleptrans.o(i.usb_ctrldatarx)
    i.usb_ctrldatatx                         0x00004470   Section        0  usb_dev_ctrleptrans.o(i.usb_ctrldatatx)
    i.usb_ctrlerr                            0x00004494   Section        0  usb_dev_stdreq.o(i.usb_ctrlerr)
    i.usb_ctrlstatusrx                       0x000044b0   Section        0  usb_dev_ctrleptrans.o(i.usb_ctrlstatusrx)
    i.usb_ctrlstatustx                       0x000044ca   Section        0  usb_dev_ctrleptrans.o(i.usb_ctrlstatustx)
    i.usb_datain_process                     0x000044e4   Section        0  usb_dev_core.o(i.usb_datain_process)
    i.usb_dataout_process                    0x000045b4   Section        0  usb_dev_core.o(i.usb_dataout_process)
    i.usb_dev_cdc_ctrlep_rxready             0x00004648   Section        0  usb_dev_cdc_class.o(i.usb_dev_cdc_ctrlep_rxready)
    i.usb_dev_cdc_datain                     0x00004678   Section        0  usb_dev_cdc_class.o(i.usb_dev_cdc_datain)
    i.usb_dev_cdc_dataout                    0x00004724   Section        0  usb_dev_cdc_class.o(i.usb_dev_cdc_dataout)
    i.usb_dev_cdc_deinit                     0x00004754   Section        0  usb_dev_cdc_class.o(i.usb_dev_cdc_deinit)
    i.usb_dev_cdc_getcfgdesc                 0x00004778   Section        0  usb_dev_cdc_class.o(i.usb_dev_cdc_getcfgdesc)
    i.usb_dev_cdc_init                       0x00004788   Section        0  usb_dev_cdc_class.o(i.usb_dev_cdc_init)
    i.usb_dev_cdc_setup                      0x000047c8   Section        0  usb_dev_cdc_class.o(i.usb_dev_cdc_setup)
    i.usb_dev_cdc_sof                        0x000048b0   Section        0  usb_dev_cdc_class.o(i.usb_dev_cdc_sof)
    i.usb_dev_configstrdesc                  0x000048d8   Section        0  usb_dev_desc.o(i.usb_dev_configstrdesc)
    i.usb_dev_ctrlconfig                     0x000048fc   Section        0  usb_dev_stdreq.o(i.usb_dev_ctrlconfig)
    i.usb_dev_desc                           0x00004934   Section        0  usb_dev_desc.o(i.usb_dev_desc)
    i.usb_dev_init                           0x00004944   Section        0  usb_dev_core.o(i.usb_dev_init)
    i.usb_dev_intfstrdesc                    0x00004988   Section        0  usb_dev_desc.o(i.usb_dev_intfstrdesc)
    i.usb_dev_langiddesc                     0x000049b0   Section        0  usb_dev_desc.o(i.usb_dev_langiddesc)
    i.usb_dev_manufacturerstr                0x000049c0   Section        0  usb_dev_desc.o(i.usb_dev_manufacturerstr)
    i.usb_dev_productdesc                    0x000049e0   Section        0  usb_dev_desc.o(i.usb_dev_productdesc)
    i.usb_dev_resume                         0x00004a08   Section        0  usb_dev_core.o(i.usb_dev_resume)
    i.usb_dev_rst                            0x00004a1e   Section        0  usb_dev_core.o(i.usb_dev_rst)
    i.usb_dev_serialstr                      0x00004a4c   Section        0  usb_dev_desc.o(i.usb_dev_serialstr)
    i.usb_dev_susp                           0x00004a74   Section        0  usb_dev_core.o(i.usb_dev_susp)
    i.usb_dev_user_conn                      0x00004a90   Section        0  usb_dev_user.o(i.usb_dev_user_conn)
    i.usb_dev_user_devcfg                    0x00004ab8   Section        0  usb_dev_user.o(i.usb_dev_user_devcfg)
    i.usb_dev_user_devresume                 0x00004ae0   Section        0  usb_dev_user.o(i.usb_dev_user_devresume)
    i.usb_dev_user_devsusp                   0x00004b04   Section        0  usb_dev_user.o(i.usb_dev_user_devsusp)
    i.usb_dev_user_disconn                   0x00004b34   Section        0  usb_dev_user.o(i.usb_dev_user_disconn)
    i.usb_dev_user_init                      0x00004b60   Section        0  usb_dev_user.o(i.usb_dev_user_init)
    i.usb_dev_user_rst                       0x00004b64   Section        0  usb_dev_user.o(i.usb_dev_user_rst)
    i.usb_devepdis                           0x00004b8c   Section        0  hc32_ll_usb.o(i.usb_devepdis)
    i.usb_deveptx                            0x00004c32   Section        0  usb_dev_driver.o(i.usb_deveptx)
    i.usb_devinten                           0x00004c90   Section        0  hc32_ll_usb.o(i.usb_devinten)
    i.usb_devmodeinit                        0x00004cd4   Section        0  hc32_ll_usb.o(i.usb_devmodeinit)
    i.usb_enumfinish_isr                     0x00004d52   Section        0  usb_dev_int.o(i.usb_enumfinish_isr)
    usb_enumfinish_isr                       0x00004d53   Thumb Code    38  usb_dev_int.o(i.usb_enumfinish_isr)
    i.usb_ep0activate                        0x00004d78   Section        0  hc32_ll_usb.o(i.usb_ep0activate)
    i.usb_ep0outstart                        0x00004db4   Section        0  usb_dev_driver.o(i.usb_ep0outstart)
    i.usb_ep0revcfg                          0x00004dd8   Section        0  hc32_ll_usb.o(i.usb_ep0revcfg)
    i.usb_ep0transbegin                      0x00004dfc   Section        0  hc32_ll_usb.o(i.usb_ep0transbegin)
    i.usb_epactive                           0x00004f00   Section        0  hc32_ll_usb.o(i.usb_epactive)
    i.usb_epdeactive                         0x00004f5c   Section        0  hc32_ll_usb.o(i.usb_epdeactive)
    i.usb_epntransbegin                      0x00004fbc   Section        0  hc32_ll_usb.o(i.usb_epntransbegin)
    i.usb_getconfig                          0x0000511c   Section        0  usb_dev_stdreq.o(i.usb_getconfig)
    i.usb_getdesc                            0x00005168   Section        0  usb_dev_stdreq.o(i.usb_getdesc)
    i.usb_getintf                            0x0000526c   Section        0  usb_dev_stdreq.o(i.usb_getintf)
    i.usb_getlength                          0x00005284   Section        0  usb_dev_stdreq.o(i.usb_getlength)
    i.usb_getoepintbit                       0x00005298   Section        0  usb_dev_int.o(i.usb_getoepintbit)
    usb_getoepintbit                         0x00005299   Thumb Code    20  usb_dev_int.o(i.usb_getoepintbit)
    i.usb_getstatus                          0x000052ac   Section        0  usb_dev_stdreq.o(i.usb_getstatus)
    i.usb_getstring                          0x000052f4   Section        0  usb_dev_stdreq.o(i.usb_getstring)
    i.usb_inep_isr                           0x00005344   Section        0  usb_dev_int.o(i.usb_inep_isr)
    usb_inep_isr                             0x00005345   Thumb Code   256  usb_dev_int.o(i.usb_inep_isr)
    i.usb_initdev                            0x00005448   Section        0  usb_dev_driver.o(i.usb_initdev)
    i.usb_initusbcore                        0x00005502   Section        0  hc32_ll_usb.o(i.usb_initusbcore)
    i.usb_isoinincomplt_isr                  0x00005568   Section        0  usb_dev_int.o(i.usb_isoinincomplt_isr)
    usb_isoinincomplt_isr                    0x00005569   Thumb Code    24  usb_dev_int.o(i.usb_isoinincomplt_isr)
    i.usb_isoinincomplt_process              0x00005584   Section        0  usb_dev_core.o(i.usb_isoinincomplt_process)
    i.usb_isooutincomplt_isr                 0x00005594   Section        0  usb_dev_int.o(i.usb_isooutincomplt_isr)
    usb_isooutincomplt_isr                   0x00005595   Thumb Code    24  usb_dev_int.o(i.usb_isooutincomplt_isr)
    i.usb_isooutincomplt_process             0x000055b0   Section        0  usb_dev_core.o(i.usb_isooutincomplt_process)
    i.usb_isr_handler                        0x000055c0   Section        0  usb_dev_int.o(i.usb_isr_handler)
    i.usb_mdelay                             0x00005682   Section        0  usb_bsp.o(i.usb_mdelay)
    i.usb_modeset                            0x00005694   Section        0  hc32_ll_usb.o(i.usb_modeset)
    i.usb_opendevep                          0x000056c8   Section        0  usb_dev_driver.o(i.usb_opendevep)
    i.usb_outep_isr                          0x00005740   Section        0  usb_dev_int.o(i.usb_outep_isr)
    usb_outep_isr                            0x00005741   Thumb Code   346  usb_dev_int.o(i.usb_outep_isr)
    i.usb_parsesetupreq                      0x000058a0   Section        0  usb_dev_stdreq.o(i.usb_parsesetupreq)
    i.usb_rddevinep                          0x000058e4   Section        0  usb_dev_int.o(i.usb_rddevinep)
    usb_rddevinep                            0x000058e5   Thumb Code    38  usb_dev_int.o(i.usb_rddevinep)
    i.usb_rdineptxfspcavail                  0x0000590a   Section        0  usb_dev_int.o(i.usb_rdineptxfspcavail)
    usb_rdineptxfspcavail                    0x0000590b   Thumb Code    16  usb_dev_int.o(i.usb_rdineptxfspcavail)
    i.usb_rdpkt                              0x0000591a   Section        0  hc32_ll_usb.o(i.usb_rdpkt)
    i.usb_readytorx                          0x00005946   Section        0  usb_dev_driver.o(i.usb_readytorx)
    i.usb_reset_isr                          0x000059a8   Section        0  usb_dev_int.o(i.usb_reset_isr)
    usb_reset_isr                            0x000059a9   Thumb Code   146  usb_dev_int.o(i.usb_reset_isr)
    i.usb_resume_isr                         0x00005a40   Section        0  usb_dev_int.o(i.usb_resume_isr)
    usb_resume_isr                           0x00005a41   Thumb Code    56  usb_dev_int.o(i.usb_resume_isr)
    i.usb_rxstsqlvl_isr                      0x00005a7c   Section        0  usb_dev_int.o(i.usb_rxstsqlvl_isr)
    usb_rxstsqlvl_isr                        0x00005a7d   Thumb Code   140  usb_dev_int.o(i.usb_rxstsqlvl_isr)
    i.usb_sessionrequest_isr                 0x00005b08   Section        0  usb_dev_int.o(i.usb_sessionrequest_isr)
    usb_sessionrequest_isr                   0x00005b09   Thumb Code    46  usb_dev_int.o(i.usb_sessionrequest_isr)
    i.usb_setaddr                            0x00005b3c   Section        0  usb_dev_stdreq.o(i.usb_setaddr)
    i.usb_setconfig                          0x00005b8c   Section        0  usb_dev_stdreq.o(i.usb_setconfig)
    i.usb_setepstall                         0x00005c60   Section        0  hc32_ll_usb.o(i.usb_setepstall)
    i.usb_setfeature                         0x00005cb0   Section        0  usb_dev_stdreq.o(i.usb_setfeature)
    i.usb_setregaddr                         0x00005d08   Section        0  hc32_ll_usb.o(i.usb_setregaddr)
    i.usb_setup_process                      0x00005de4   Section        0  usb_dev_core.o(i.usb_setup_process)
    i.usb_shutdevep                          0x00005e36   Section        0  usb_dev_driver.o(i.usb_shutdevep)
    i.usb_sof_isr                            0x00005e88   Section        0  usb_dev_int.o(i.usb_sof_isr)
    usb_sof_isr                              0x00005e89   Thumb Code    22  usb_dev_int.o(i.usb_sof_isr)
    i.usb_sof_process                        0x00005ea4   Section        0  usb_dev_core.o(i.usb_sof_process)
    i.usb_stalldevep                         0x00005ebc   Section        0  usb_dev_driver.o(i.usb_stalldevep)
    i.usb_standarddevreq                     0x00005f1a   Section        0  usb_dev_stdreq.o(i.usb_standarddevreq)
    i.usb_standardepreq                      0x00005fa4   Section        0  usb_dev_stdreq.o(i.usb_standardepreq)
    i.usb_standarditfreq                     0x00006148   Section        0  usb_dev_stdreq.o(i.usb_standarditfreq)
    i.usb_susp_isr                           0x000061c0   Section        0  usb_dev_int.o(i.usb_susp_isr)
    usb_susp_isr                             0x000061c1   Thumb Code    86  usb_dev_int.o(i.usb_susp_isr)
    i.usb_txfifoflush                        0x0000621c   Section        0  hc32_ll_usb.o(i.usb_txfifoflush)
    i.usb_udelay                             0x00006270   Section        0  usb_bsp.o(i.usb_udelay)
    i.usb_wrblanktxfifo                      0x000062b0   Section        0  usb_dev_int.o(i.usb_wrblanktxfifo)
    usb_wrblanktxfifo                        0x000062b1   Thumb Code   148  usb_dev_int.o(i.usb_wrblanktxfifo)
    i.usb_wrpkt                              0x00006344   Section        0  hc32_ll_usb.o(i.usb_wrpkt)
    i.vcp_ctrlpare                           0x00006378   Section        0  cdc_data_process.o(i.vcp_ctrlpare)
    i.vcp_deinit                             0x0000641c   Section        0  cdc_data_process.o(i.vcp_deinit)
    i.vcp_init                               0x00006420   Section        0  cdc_data_process.o(i.vcp_init)
    i.vcp_rxdata                             0x000064bc   Section        0  cdc_data_process.o(i.vcp_rxdata)
    i.vcp_txdata                             0x000064e8   Section        0  cdc_data_process.o(i.vcp_txdata)
    .constdata                               0x00006548   Section       88  cdc_data_process.o(.constdata)
    .constdata                               0x000065a0   Section       16  hc32_ll_usart.o(.constdata)
    .conststring                             0x000065b0   Section       66  hc32_ll_interrupts.o(.conststring)
    .bss.noinit                              0x1fff8000   Section        8  system_hc32f460.o(.bss.noinit)
    .data                                    0x1fff8008   Section        8  cdc_data_process.o(.data)
    linecoding                               0x1fff8008   Data           8  cdc_data_process.o(.data)
    .data                                    0x1fff8010   Section       50  usb_dev_desc.o(.data)
    usb_dev_devicedesc                       0x1fff802c   Data          18  usb_dev_desc.o(.data)
    USB_DEV_LangIDDesc                       0x1fff803e   Data           4  usb_dev_desc.o(.data)
    .data                                    0x1fff8044   Section       28  usb_dev_user.o(.data)
    .data                                    0x1fff8060   Section       16  hc32_ll_utility.o(.data)
    m_u32TickStep                            0x1fff8060   Data           4  hc32_ll_utility.o(.data)
    m_u32TickCount                           0x1fff8064   Data           4  hc32_ll_utility.o(.data)
    m_pvPrintDevice                          0x1fff8068   Data           4  hc32_ll_utility.o(.data)
    m_u32PrintTimeout                        0x1fff806c   Data           4  hc32_ll_utility.o(.data)
    .data                                    0x1fff8070   Section        4  ev_hc32f460_lqfp100_v2.o(.data)
    m_u32GlobalKey                           0x1fff8070   Data           4  ev_hc32f460_lqfp100_v2.o(.data)
    .data                                    0x1fff8074   Section       48  usb_dev_core.o(.data)
    dev_int_cbk                              0x1fff8078   Data          40  usb_dev_core.o(.data)
    .data                                    0x1fff80a4   Section       13  usb_dev_stdreq.o(.data)
    dev_ep_status                            0x1fff80a4   Data           4  usb_dev_stdreq.o(.data)
    dev_default_cfg                          0x1fff80a8   Data           4  usb_dev_stdreq.o(.data)
    dev_cfg_status                           0x1fff80ac   Data           4  usb_dev_stdreq.o(.data)
    tmp_cfgidx                               0x1fff80b0   Data           1  usb_dev_stdreq.o(.data)
    .data                                    0x1fff80b4   Section      164  usb_dev_cdc_class.o(.data)
    alternate_setting                        0x1fff80e0   Data           4  usb_dev_cdc_class.o(.data)
    CmdBuff                                  0x1fff80e4   Data           8  usb_dev_cdc_class.o(.data)
    APP_Rx_length                            0x1fff80f4   Data           4  usb_dev_cdc_class.o(.data)
    USB_Tx_State                             0x1fff80f8   Data           1  usb_dev_cdc_class.o(.data)
    cdcCmd                                   0x1fff80fc   Data           4  usb_dev_cdc_class.o(.data)
    cdcLen                                   0x1fff8100   Data           4  usb_dev_cdc_class.o(.data)
    LastPackLen                              0x1fff8104   Data           4  usb_dev_cdc_class.o(.data)
    usb_dev_cdc_cfgdesc                      0x1fff8108   Data          75  usb_dev_cdc_class.o(.data)
    FrameCount                               0x1fff8154   Data           4  usb_dev_cdc_class.o(.data)
    .data                                    0x1fff8158   Section        4  stdout.o(.data)
    .bss                                     0x1fff815c   Section     1224  main.o(.bss)
    .bss                                     0x1fff8624   Section      128  usb_dev_desc.o(.bss)
    usb_dev_strdesc                          0x1fff8624   Data         128  usb_dev_desc.o(.bss)
    .bss                                     0x1fff86a4   Section      512  hc32_ll_interrupts.o(.bss)
    m_apfnIrqHandler                         0x1fff86a4   Data         512  hc32_ll_interrupts.o(.bss)
    .bss                                     0x1fff88a4   Section     2112  usb_dev_cdc_class.o(.bss)
    usb_rx_buffer                            0x1fff88a4   Data          64  usb_dev_cdc_class.o(.bss)
    STACK                                    0x1fff90e8   Section     3072  startup_hc32f460.o(STACK)

    Global Symbols

    Symbol Name                              Value     Ov Type        Size  Object(Section)

    BuildAttributes$$THM_ISAv4$E$P$D$K$B$S$7EM$PE$A:L22UL41UL21$X:L11$S22US41US21$IEEE1$IW$USESV6$~STKCKD$USESV7$~SHL$OTIME$ROPI$EBA8$MICROLIB$REQ8$PRES8$EABIv2 0x00000000   Number         0  anon$$obj.o ABSOLUTE
    __ARM_use_no_argv                        0x00000000   Number         0  main.o ABSOLUTE
    __Vectors                                0x00000000   Data           4  startup_hc32f460.o(RESET)
    _printf_a                                0x00000000   Number         0  stubs.o ABSOLUTE
    _printf_c                                0x00000000   Number         0  stubs.o ABSOLUTE
    _printf_charcount                        0x00000000   Number         0  stubs.o ABSOLUTE
    _printf_d                                0x00000000   Number         0  stubs.o ABSOLUTE
    _printf_e                                0x00000000   Number         0  stubs.o ABSOLUTE
    _printf_f                                0x00000000   Number         0  stubs.o ABSOLUTE
    _printf_flags                            0x00000000   Number         0  stubs.o ABSOLUTE
    _printf_fp_dec                           0x00000000   Number         0  stubs.o ABSOLUTE
    _printf_fp_hex                           0x00000000   Number         0  stubs.o ABSOLUTE
    _printf_g                                0x00000000   Number         0  stubs.o ABSOLUTE
    _printf_i                                0x00000000   Number         0  stubs.o ABSOLUTE
    _printf_int_dec                          0x00000000   Number         0  stubs.o ABSOLUTE
    _printf_l                                0x00000000   Number         0  stubs.o ABSOLUTE
    _printf_lc                               0x00000000   Number         0  stubs.o ABSOLUTE
    _printf_ll                               0x00000000   Number         0  stubs.o ABSOLUTE
    _printf_lld                              0x00000000   Number         0  stubs.o ABSOLUTE
    _printf_lli                              0x00000000   Number         0  stubs.o ABSOLUTE
    _printf_llo                              0x00000000   Number         0  stubs.o ABSOLUTE
    _printf_llu                              0x00000000   Number         0  stubs.o ABSOLUTE
    _printf_llx                              0x00000000   Number         0  stubs.o ABSOLUTE
    _printf_longlong_dec                     0x00000000   Number         0  stubs.o ABSOLUTE
    _printf_longlong_hex                     0x00000000   Number         0  stubs.o ABSOLUTE
    _printf_longlong_oct                     0x00000000   Number         0  stubs.o ABSOLUTE
    _printf_ls                               0x00000000   Number         0  stubs.o ABSOLUTE
    _printf_mbtowc                           0x00000000   Number         0  stubs.o ABSOLUTE
    _printf_n                                0x00000000   Number         0  stubs.o ABSOLUTE
    _printf_o                                0x00000000   Number         0  stubs.o ABSOLUTE
    _printf_p                                0x00000000   Number         0  stubs.o ABSOLUTE
    _printf_percent                          0x00000000   Number         0  stubs.o ABSOLUTE
    _printf_pre_padding                      0x00000000   Number         0  stubs.o ABSOLUTE
    _printf_return_value                     0x00000000   Number         0  stubs.o ABSOLUTE
    _printf_s                                0x00000000   Number         0  stubs.o ABSOLUTE
    _printf_sizespec                         0x00000000   Number         0  stubs.o ABSOLUTE
    _printf_str                              0x00000000   Number         0  stubs.o ABSOLUTE
    _printf_truncate_signed                  0x00000000   Number         0  stubs.o ABSOLUTE
    _printf_truncate_unsigned                0x00000000   Number         0  stubs.o ABSOLUTE
    _printf_u                                0x00000000   Number         0  stubs.o ABSOLUTE
    _printf_wc                               0x00000000   Number         0  stubs.o ABSOLUTE
    _printf_wctomb                           0x00000000   Number         0  stubs.o ABSOLUTE
    _printf_widthprec                        0x00000000   Number         0  stubs.o ABSOLUTE
    _printf_x                                0x00000000   Number         0  stubs.o ABSOLUTE
    __cpp_initialize__aeabi_                  - Undefined Weak Reference
    __cxa_finalize                            - Undefined Weak Reference
    _clock_init                               - Undefined Weak Reference
    _microlib_exit                            - Undefined Weak Reference
    __Vectors_End                            0x00000280   Data           0  startup_hc32f460.o(RESET)
    __Vectors_Size                           0x00000280   Number         0  startup_hc32f460.o ABSOLUTE
    __main                                   0x00000281   Thumb Code     0  entry.o(.ARM.Collect$$$$00000000)
    _main_stk                                0x00000281   Thumb Code     0  entry2.o(.ARM.Collect$$$$00000001)
    _main_scatterload                        0x00000285   Thumb Code     0  entry5.o(.ARM.Collect$$$$00000004)
    __main_after_scatterload                 0x00000289   Thumb Code     0  entry5.o(.ARM.Collect$$$$00000004)
    _main_clock                              0x00000289   Thumb Code     0  entry7b.o(.ARM.Collect$$$$00000008)
    _main_cpp_init                           0x00000289   Thumb Code     0  entry8b.o(.ARM.Collect$$$$0000000A)
    _main_init                               0x00000289   Thumb Code     0  entry9a.o(.ARM.Collect$$$$0000000B)
    __rt_final_cpp                           0x00000291   Thumb Code     0  entry10a.o(.ARM.Collect$$$$0000000D)
    __rt_final_exit                          0x00000291   Thumb Code     0  entry11a.o(.ARM.Collect$$$$0000000F)
    Reset_Handler                            0x00000295   Thumb Code    48  startup_hc32f460.o(.text)
    NMI_Handler                              0x000002c5   Thumb Code     2  startup_hc32f460.o(.text)
    HardFault_Handler                        0x000002c7   Thumb Code     2  startup_hc32f460.o(.text)
    MemManage_Handler                        0x000002c9   Thumb Code     2  startup_hc32f460.o(.text)
    BusFault_Handler                         0x000002cb   Thumb Code     2  startup_hc32f460.o(.text)
    UsageFault_Handler                       0x000002cd   Thumb Code     2  startup_hc32f460.o(.text)
    SVC_Handler                              0x000002cf   Thumb Code     2  startup_hc32f460.o(.text)
    DebugMon_Handler                         0x000002d1   Thumb Code     2  startup_hc32f460.o(.text)
    PendSV_Handler                           0x000002d3   Thumb Code     2  startup_hc32f460.o(.text)
    SysTick_Handler                          0x000002d5   Thumb Code     2  startup_hc32f460.o(.text)
    IRQ128_Handler                           0x000002d7   Thumb Code     0  startup_hc32f460.o(.text)
    IRQ129_Handler                           0x000002d7   Thumb Code     0  startup_hc32f460.o(.text)
    IRQ130_Handler                           0x000002d7   Thumb Code     0  startup_hc32f460.o(.text)
    IRQ131_Handler                           0x000002d7   Thumb Code     0  startup_hc32f460.o(.text)
    IRQ132_Handler                           0x000002d7   Thumb Code     0  startup_hc32f460.o(.text)
    IRQ133_Handler                           0x000002d7   Thumb Code     0  startup_hc32f460.o(.text)
    IRQ134_Handler                           0x000002d7   Thumb Code     0  startup_hc32f460.o(.text)
    IRQ135_Handler                           0x000002d7   Thumb Code     0  startup_hc32f460.o(.text)
    IRQ136_Handler                           0x000002d7   Thumb Code     0  startup_hc32f460.o(.text)
    IRQ137_Handler                           0x000002d7   Thumb Code     0  startup_hc32f460.o(.text)
    IRQ138_Handler                           0x000002d7   Thumb Code     0  startup_hc32f460.o(.text)
    IRQ139_Handler                           0x000002d7   Thumb Code     0  startup_hc32f460.o(.text)
    IRQ140_Handler                           0x000002d7   Thumb Code     0  startup_hc32f460.o(.text)
    IRQ141_Handler                           0x000002d7   Thumb Code     0  startup_hc32f460.o(.text)
    IRQ142_Handler                           0x000002d7   Thumb Code     0  startup_hc32f460.o(.text)
    IRQ143_Handler                           0x000002d7   Thumb Code     0  startup_hc32f460.o(.text)
    __aeabi_uldivmod                         0x000002ed   Thumb Code    98  uldiv.o(.text)
    __aeabi_memcpy                           0x0000034f   Thumb Code    36  memcpya.o(.text)
    __aeabi_memcpy4                          0x0000034f   Thumb Code     0  memcpya.o(.text)
    __aeabi_memcpy8                          0x0000034f   Thumb Code     0  memcpya.o(.text)
    __aeabi_ui2d                             0x00000373   Thumb Code    26  dfltui.o(.text)
    __aeabi_ul2d                             0x0000038d   Thumb Code    24  dfltul.o(.text)
    __aeabi_d2f                              0x000003a5   Thumb Code    56  d2f.o(.text)
    __aeabi_cfcmpeq                          0x000003dd   Thumb Code     0  cfcmple.o(.text)
    __aeabi_cfcmple                          0x000003dd   Thumb Code    20  cfcmple.o(.text)
    CLK_SetSysClockSrc                       0x000003f1   Thumb Code    16  hc32_ll_clk.o(i.CLK_SetSysClockSrc)
    __I$use$fp                               0x000003f1   Thumb Code     0  iusefp.o(.text)
    u32ICGValue                              0x00000400   Data          32  hc32_ll_icg.o(.ARM.__AT_0x00000400)
    __aeabi_fadd                             0x00000421   Thumb Code   164  fadd.o(.text)
    __aeabi_fsub                             0x000004c5   Thumb Code     6  fadd.o(.text)
    __aeabi_frsub                            0x000004cb   Thumb Code     6  fadd.o(.text)
    __aeabi_ddiv                             0x000004d1   Thumb Code   222  ddiv.o(.text)
    __aeabi_uidiv                            0x000005af   Thumb Code     0  uidiv.o(.text)
    __aeabi_uidivmod                         0x000005af   Thumb Code    44  uidiv.o(.text)
    __aeabi_llsl                             0x000005db   Thumb Code    30  llshl.o(.text)
    _ll_shift_l                              0x000005db   Thumb Code     0  llshl.o(.text)
    __aeabi_llsr                             0x000005f9   Thumb Code    32  llushr.o(.text)
    _ll_ushift_r                             0x000005f9   Thumb Code     0  llushr.o(.text)
    _float_round                             0x00000619   Thumb Code    18  fepilogue.o(.text)
    _float_epilogue                          0x0000062b   Thumb Code    92  fepilogue.o(.text)
    _double_round                            0x00000687   Thumb Code    30  depilogue.o(.text)
    _double_epilogue                         0x000006a5   Thumb Code   156  depilogue.o(.text)
    __scatterload                            0x00000741   Thumb Code    28  init.o(.text)
    __scatterload_rt2                        0x00000741   Thumb Code     0  init.o(.text)
    __decompress                             0x00000765   Thumb Code     0  __dczerorl.o(.text)
    __decompress0                            0x00000765   Thumb Code    58  __dczerorl.o(.text)
    BSP_CLK_Init                             0x000007a1   Thumb Code   160  ev_hc32f460_lqfp100_v2.o(i.BSP_CLK_Init)
    BSP_KEY_KEY10_IrqHandler                 0x00000849   Thumb Code    36  ev_hc32f460_lqfp100_v2.o(i.BSP_KEY_KEY10_IrqHandler)
    BSP_LED_Init                             0x00000871   Thumb Code    56  ev_hc32f460_lqfp100_v2.o(i.BSP_LED_Init)
    BSP_PRINTF_Preinit                       0x000008a9   Thumb Code   132  ev_hc32f460_lqfp100_v2.o(i.BSP_PRINTF_Preinit)
    CLK_GetStableStatus                      0x00000939   Thumb Code    46  hc32_ll_clk.o(i.CLK_GetStableStatus)
    CLK_PLLCmd                               0x000009a9   Thumb Code   146  hc32_ll_clk.o(i.CLK_PLLCmd)
    CLK_PLLInit                              0x00000a81   Thumb Code   596  hc32_ll_clk.o(i.CLK_PLLInit)
    CLK_PLLStructInit                        0x00000d35   Thumb Code    82  hc32_ll_clk.o(i.CLK_PLLStructInit)
    CLK_PLLxCmd                              0x00000d89   Thumb Code   126  hc32_ll_clk.o(i.CLK_PLLxCmd)
    CLK_PLLxInit                             0x00000e4d   Thumb Code    50  hc32_ll_clk.o(i.CLK_PLLxInit)
    CLK_PLLxStructInit                       0x00000e85   Thumb Code    74  hc32_ll_clk.o(i.CLK_PLLxStructInit)
    CLK_SetClockDiv                          0x00000ecf   Thumb Code    20  hc32_ll_clk.o(i.CLK_SetClockDiv)
    CLK_SetUSBClockSrc                       0x00000ee5   Thumb Code    94  hc32_ll_clk.o(i.CLK_SetUSBClockSrc)
    CLK_XtalStructInit                       0x00000fb9   Thumb Code    30  hc32_ll_clk.o(i.CLK_XtalStructInit)
    DDL_AssertHandler                        0x0000120d   Thumb Code    18  hc32_ll_utility.o(i.DDL_AssertHandler)
    DDL_ConsoleOutputChar                    0x00001251   Thumb Code    68  hc32_ll_utility.o(i.DDL_ConsoleOutputChar)
    DDL_DelayUS                              0x0000129d   Thumb Code    52  hc32_ll_utility.o(i.DDL_DelayUS)
    EFM_SetWaitCycle                         0x000012dd   Thumb Code   126  hc32_ll_efm.o(i.EFM_SetWaitCycle)
    EXTINT_ClearExtIntStatus                 0x000013a5   Thumb Code    48  hc32_ll_interrupts.o(i.EXTINT_ClearExtIntStatus)
    FCG_Fcg1PeriphClockCmd                   0x000013dd   Thumb Code    80  hc32_ll_fcg.o(i.FCG_Fcg1PeriphClockCmd)
    GPIO_Init                                0x00001471   Thumb Code   460  hc32_ll_gpio.o(i.GPIO_Init)
    GPIO_ReadInputPins                       0x0000167d   Thumb Code    88  hc32_ll_gpio.o(i.GPIO_ReadInputPins)
    GPIO_SetFunc                             0x00001715   Thumb Code   186  hc32_ll_gpio.o(i.GPIO_SetFunc)
    GPIO_SetPins                             0x00001811   Thumb Code    82  hc32_ll_gpio.o(i.GPIO_SetPins)
    GPIO_SetReadWaitCycle                    0x000018a5   Thumb Code    90  hc32_ll_gpio.o(i.GPIO_SetReadWaitCycle)
    GPIO_StructInit                          0x00001941   Thumb Code    32  hc32_ll_gpio.o(i.GPIO_StructInit)
    INTC_IrqSignIn                           0x00001961   Thumb Code   168  hc32_ll_interrupts.o(i.INTC_IrqSignIn)
    IRQ000_Handler                           0x00001a15   Thumb Code    14  hc32_ll_interrupts.o(i.IRQ000_Handler)
    IRQ001_Handler                           0x00001a29   Thumb Code    14  hc32_ll_interrupts.o(i.IRQ001_Handler)
    IRQ002_Handler                           0x00001a3d   Thumb Code    14  hc32_ll_interrupts.o(i.IRQ002_Handler)
    IRQ003_Handler                           0x00001a51   Thumb Code    14  hc32_ll_interrupts.o(i.IRQ003_Handler)
    IRQ004_Handler                           0x00001a65   Thumb Code    14  hc32_ll_interrupts.o(i.IRQ004_Handler)
    IRQ005_Handler                           0x00001a79   Thumb Code    14  hc32_ll_interrupts.o(i.IRQ005_Handler)
    IRQ006_Handler                           0x00001a8d   Thumb Code    14  hc32_ll_interrupts.o(i.IRQ006_Handler)
    IRQ007_Handler                           0x00001aa1   Thumb Code    14  hc32_ll_interrupts.o(i.IRQ007_Handler)
    IRQ008_Handler                           0x00001ab5   Thumb Code    14  hc32_ll_interrupts.o(i.IRQ008_Handler)
    IRQ009_Handler                           0x00001ac9   Thumb Code    14  hc32_ll_interrupts.o(i.IRQ009_Handler)
    IRQ010_Handler                           0x00001add   Thumb Code    14  hc32_ll_interrupts.o(i.IRQ010_Handler)
    IRQ011_Handler                           0x00001af1   Thumb Code    14  hc32_ll_interrupts.o(i.IRQ011_Handler)
    IRQ012_Handler                           0x00001b05   Thumb Code    14  hc32_ll_interrupts.o(i.IRQ012_Handler)
    IRQ013_Handler                           0x00001b19   Thumb Code    14  hc32_ll_interrupts.o(i.IRQ013_Handler)
    IRQ014_Handler                           0x00001b2d   Thumb Code    14  hc32_ll_interrupts.o(i.IRQ014_Handler)
    IRQ015_Handler                           0x00001b41   Thumb Code    14  hc32_ll_interrupts.o(i.IRQ015_Handler)
    IRQ016_Handler                           0x00001b55   Thumb Code    14  hc32_ll_interrupts.o(i.IRQ016_Handler)
    IRQ017_Handler                           0x00001b69   Thumb Code    14  hc32_ll_interrupts.o(i.IRQ017_Handler)
    IRQ018_Handler                           0x00001b7d   Thumb Code    14  hc32_ll_interrupts.o(i.IRQ018_Handler)
    IRQ019_Handler                           0x00001b91   Thumb Code    14  hc32_ll_interrupts.o(i.IRQ019_Handler)
    IRQ020_Handler                           0x00001ba5   Thumb Code    14  hc32_ll_interrupts.o(i.IRQ020_Handler)
    IRQ021_Handler                           0x00001bb9   Thumb Code    14  hc32_ll_interrupts.o(i.IRQ021_Handler)
    IRQ022_Handler                           0x00001bcd   Thumb Code    14  hc32_ll_interrupts.o(i.IRQ022_Handler)
    IRQ023_Handler                           0x00001be1   Thumb Code    14  hc32_ll_interrupts.o(i.IRQ023_Handler)
    IRQ024_Handler                           0x00001bf5   Thumb Code    14  hc32_ll_interrupts.o(i.IRQ024_Handler)
    IRQ025_Handler                           0x00001c09   Thumb Code    14  hc32_ll_interrupts.o(i.IRQ025_Handler)
    IRQ026_Handler                           0x00001c1d   Thumb Code    14  hc32_ll_interrupts.o(i.IRQ026_Handler)
    IRQ027_Handler                           0x00001c31   Thumb Code    14  hc32_ll_interrupts.o(i.IRQ027_Handler)
    IRQ028_Handler                           0x00001c45   Thumb Code    14  hc32_ll_interrupts.o(i.IRQ028_Handler)
    IRQ029_Handler                           0x00001c59   Thumb Code    14  hc32_ll_interrupts.o(i.IRQ029_Handler)
    IRQ030_Handler                           0x00001c6d   Thumb Code    14  hc32_ll_interrupts.o(i.IRQ030_Handler)
    IRQ031_Handler                           0x00001c81   Thumb Code    14  hc32_ll_interrupts.o(i.IRQ031_Handler)
    IRQ032_Handler                           0x00001c95   Thumb Code    16  hc32_ll_interrupts.o(i.IRQ032_Handler)
    IRQ033_Handler                           0x00001ca9   Thumb Code    16  hc32_ll_interrupts.o(i.IRQ033_Handler)
    IRQ034_Handler                           0x00001cbd   Thumb Code    16  hc32_ll_interrupts.o(i.IRQ034_Handler)
    IRQ035_Handler                           0x00001cd1   Thumb Code    16  hc32_ll_interrupts.o(i.IRQ035_Handler)
    IRQ036_Handler                           0x00001ce5   Thumb Code    16  hc32_ll_interrupts.o(i.IRQ036_Handler)
    IRQ037_Handler                           0x00001cf9   Thumb Code    16  hc32_ll_interrupts.o(i.IRQ037_Handler)
    IRQ038_Handler                           0x00001d0d   Thumb Code    16  hc32_ll_interrupts.o(i.IRQ038_Handler)
    IRQ039_Handler                           0x00001d21   Thumb Code    16  hc32_ll_interrupts.o(i.IRQ039_Handler)
    IRQ040_Handler                           0x00001d35   Thumb Code    16  hc32_ll_interrupts.o(i.IRQ040_Handler)
    IRQ041_Handler                           0x00001d49   Thumb Code    16  hc32_ll_interrupts.o(i.IRQ041_Handler)
    IRQ042_Handler                           0x00001d5d   Thumb Code    16  hc32_ll_interrupts.o(i.IRQ042_Handler)
    IRQ043_Handler                           0x00001d71   Thumb Code    16  hc32_ll_interrupts.o(i.IRQ043_Handler)
    IRQ044_Handler                           0x00001d85   Thumb Code    16  hc32_ll_interrupts.o(i.IRQ044_Handler)
    IRQ045_Handler                           0x00001d99   Thumb Code    16  hc32_ll_interrupts.o(i.IRQ045_Handler)
    IRQ046_Handler                           0x00001dad   Thumb Code    16  hc32_ll_interrupts.o(i.IRQ046_Handler)
    IRQ047_Handler                           0x00001dc1   Thumb Code    16  hc32_ll_interrupts.o(i.IRQ047_Handler)
    IRQ048_Handler                           0x00001dd5   Thumb Code    16  hc32_ll_interrupts.o(i.IRQ048_Handler)
    IRQ049_Handler                           0x00001de9   Thumb Code    16  hc32_ll_interrupts.o(i.IRQ049_Handler)
    IRQ050_Handler                           0x00001dfd   Thumb Code    16  hc32_ll_interrupts.o(i.IRQ050_Handler)
    IRQ051_Handler                           0x00001e11   Thumb Code    16  hc32_ll_interrupts.o(i.IRQ051_Handler)
    IRQ052_Handler                           0x00001e25   Thumb Code    16  hc32_ll_interrupts.o(i.IRQ052_Handler)
    IRQ053_Handler                           0x00001e39   Thumb Code    16  hc32_ll_interrupts.o(i.IRQ053_Handler)
    IRQ054_Handler                           0x00001e4d   Thumb Code    16  hc32_ll_interrupts.o(i.IRQ054_Handler)
    IRQ055_Handler                           0x00001e61   Thumb Code    16  hc32_ll_interrupts.o(i.IRQ055_Handler)
    IRQ056_Handler                           0x00001e75   Thumb Code    16  hc32_ll_interrupts.o(i.IRQ056_Handler)
    IRQ057_Handler                           0x00001e89   Thumb Code    16  hc32_ll_interrupts.o(i.IRQ057_Handler)
    IRQ058_Handler                           0x00001e9d   Thumb Code    16  hc32_ll_interrupts.o(i.IRQ058_Handler)
    IRQ059_Handler                           0x00001eb1   Thumb Code    16  hc32_ll_interrupts.o(i.IRQ059_Handler)
    IRQ060_Handler                           0x00001ec5   Thumb Code    16  hc32_ll_interrupts.o(i.IRQ060_Handler)
    IRQ061_Handler                           0x00001ed9   Thumb Code    16  hc32_ll_interrupts.o(i.IRQ061_Handler)
    IRQ062_Handler                           0x00001eed   Thumb Code    16  hc32_ll_interrupts.o(i.IRQ062_Handler)
    IRQ063_Handler                           0x00001f01   Thumb Code    16  hc32_ll_interrupts.o(i.IRQ063_Handler)
    IRQ064_Handler                           0x00001f15   Thumb Code    16  hc32_ll_interrupts.o(i.IRQ064_Handler)
    IRQ065_Handler                           0x00001f29   Thumb Code    16  hc32_ll_interrupts.o(i.IRQ065_Handler)
    IRQ066_Handler                           0x00001f3d   Thumb Code    16  hc32_ll_interrupts.o(i.IRQ066_Handler)
    IRQ067_Handler                           0x00001f51   Thumb Code    16  hc32_ll_interrupts.o(i.IRQ067_Handler)
    IRQ068_Handler                           0x00001f65   Thumb Code    16  hc32_ll_interrupts.o(i.IRQ068_Handler)
    IRQ069_Handler                           0x00001f79   Thumb Code    16  hc32_ll_interrupts.o(i.IRQ069_Handler)
    IRQ070_Handler                           0x00001f8d   Thumb Code    16  hc32_ll_interrupts.o(i.IRQ070_Handler)
    IRQ071_Handler                           0x00001fa1   Thumb Code    16  hc32_ll_interrupts.o(i.IRQ071_Handler)
    IRQ072_Handler                           0x00001fb5   Thumb Code    16  hc32_ll_interrupts.o(i.IRQ072_Handler)
    IRQ073_Handler                           0x00001fc9   Thumb Code    16  hc32_ll_interrupts.o(i.IRQ073_Handler)
    IRQ074_Handler                           0x00001fdd   Thumb Code    16  hc32_ll_interrupts.o(i.IRQ074_Handler)
    IRQ075_Handler                           0x00001ff1   Thumb Code    16  hc32_ll_interrupts.o(i.IRQ075_Handler)
    IRQ076_Handler                           0x00002005   Thumb Code    16  hc32_ll_interrupts.o(i.IRQ076_Handler)
    IRQ077_Handler                           0x00002019   Thumb Code    16  hc32_ll_interrupts.o(i.IRQ077_Handler)
    IRQ078_Handler                           0x0000202d   Thumb Code    16  hc32_ll_interrupts.o(i.IRQ078_Handler)
    IRQ079_Handler                           0x00002041   Thumb Code    16  hc32_ll_interrupts.o(i.IRQ079_Handler)
    IRQ080_Handler                           0x00002055   Thumb Code    16  hc32_ll_interrupts.o(i.IRQ080_Handler)
    IRQ081_Handler                           0x00002069   Thumb Code    16  hc32_ll_interrupts.o(i.IRQ081_Handler)
    IRQ082_Handler                           0x0000207d   Thumb Code    16  hc32_ll_interrupts.o(i.IRQ082_Handler)
    IRQ083_Handler                           0x00002091   Thumb Code    16  hc32_ll_interrupts.o(i.IRQ083_Handler)
    IRQ084_Handler                           0x000020a5   Thumb Code    16  hc32_ll_interrupts.o(i.IRQ084_Handler)
    IRQ085_Handler                           0x000020b9   Thumb Code    16  hc32_ll_interrupts.o(i.IRQ085_Handler)
    IRQ086_Handler                           0x000020cd   Thumb Code    16  hc32_ll_interrupts.o(i.IRQ086_Handler)
    IRQ087_Handler                           0x000020e1   Thumb Code    16  hc32_ll_interrupts.o(i.IRQ087_Handler)
    IRQ088_Handler                           0x000020f5   Thumb Code    16  hc32_ll_interrupts.o(i.IRQ088_Handler)
    IRQ089_Handler                           0x00002109   Thumb Code    16  hc32_ll_interrupts.o(i.IRQ089_Handler)
    IRQ090_Handler                           0x0000211d   Thumb Code    16  hc32_ll_interrupts.o(i.IRQ090_Handler)
    IRQ091_Handler                           0x00002131   Thumb Code    16  hc32_ll_interrupts.o(i.IRQ091_Handler)
    IRQ092_Handler                           0x00002145   Thumb Code    16  hc32_ll_interrupts.o(i.IRQ092_Handler)
    IRQ093_Handler                           0x00002159   Thumb Code    16  hc32_ll_interrupts.o(i.IRQ093_Handler)
    IRQ094_Handler                           0x0000216d   Thumb Code    16  hc32_ll_interrupts.o(i.IRQ094_Handler)
    IRQ095_Handler                           0x00002181   Thumb Code    16  hc32_ll_interrupts.o(i.IRQ095_Handler)
    IRQ096_Handler                           0x00002195   Thumb Code    16  hc32_ll_interrupts.o(i.IRQ096_Handler)
    IRQ097_Handler                           0x000021a9   Thumb Code    16  hc32_ll_interrupts.o(i.IRQ097_Handler)
    IRQ098_Handler                           0x000021bd   Thumb Code    16  hc32_ll_interrupts.o(i.IRQ098_Handler)
    IRQ099_Handler                           0x000021d1   Thumb Code    16  hc32_ll_interrupts.o(i.IRQ099_Handler)
    IRQ100_Handler                           0x000021e5   Thumb Code    16  hc32_ll_interrupts.o(i.IRQ100_Handler)
    IRQ101_Handler                           0x000021f9   Thumb Code    16  hc32_ll_interrupts.o(i.IRQ101_Handler)
    IRQ102_Handler                           0x0000220d   Thumb Code    16  hc32_ll_interrupts.o(i.IRQ102_Handler)
    IRQ103_Handler                           0x00002221   Thumb Code    16  hc32_ll_interrupts.o(i.IRQ103_Handler)
    IRQ104_Handler                           0x00002235   Thumb Code    16  hc32_ll_interrupts.o(i.IRQ104_Handler)
    IRQ105_Handler                           0x00002249   Thumb Code    16  hc32_ll_interrupts.o(i.IRQ105_Handler)
    IRQ106_Handler                           0x0000225d   Thumb Code    16  hc32_ll_interrupts.o(i.IRQ106_Handler)
    IRQ107_Handler                           0x00002271   Thumb Code    16  hc32_ll_interrupts.o(i.IRQ107_Handler)
    IRQ108_Handler                           0x00002285   Thumb Code    16  hc32_ll_interrupts.o(i.IRQ108_Handler)
    IRQ109_Handler                           0x00002299   Thumb Code    16  hc32_ll_interrupts.o(i.IRQ109_Handler)
    IRQ110_Handler                           0x000022ad   Thumb Code    16  hc32_ll_interrupts.o(i.IRQ110_Handler)
    IRQ111_Handler                           0x000022c1   Thumb Code    16  hc32_ll_interrupts.o(i.IRQ111_Handler)
    IRQ112_Handler                           0x000022d5   Thumb Code    16  hc32_ll_interrupts.o(i.IRQ112_Handler)
    IRQ113_Handler                           0x000022e9   Thumb Code    16  hc32_ll_interrupts.o(i.IRQ113_Handler)
    IRQ114_Handler                           0x000022fd   Thumb Code    16  hc32_ll_interrupts.o(i.IRQ114_Handler)
    IRQ115_Handler                           0x00002311   Thumb Code    16  hc32_ll_interrupts.o(i.IRQ115_Handler)
    IRQ116_Handler                           0x00002325   Thumb Code    16  hc32_ll_interrupts.o(i.IRQ116_Handler)
    IRQ117_Handler                           0x00002339   Thumb Code    16  hc32_ll_interrupts.o(i.IRQ117_Handler)
    IRQ118_Handler                           0x0000234d   Thumb Code    16  hc32_ll_interrupts.o(i.IRQ118_Handler)
    IRQ119_Handler                           0x00002361   Thumb Code    16  hc32_ll_interrupts.o(i.IRQ119_Handler)
    IRQ120_Handler                           0x00002375   Thumb Code    16  hc32_ll_interrupts.o(i.IRQ120_Handler)
    IRQ121_Handler                           0x00002389   Thumb Code    16  hc32_ll_interrupts.o(i.IRQ121_Handler)
    IRQ122_Handler                           0x0000239d   Thumb Code    16  hc32_ll_interrupts.o(i.IRQ122_Handler)
    IRQ123_Handler                           0x000023b1   Thumb Code    16  hc32_ll_interrupts.o(i.IRQ123_Handler)
    IRQ124_Handler                           0x000023c5   Thumb Code    16  hc32_ll_interrupts.o(i.IRQ124_Handler)
    IRQ125_Handler                           0x000023d9   Thumb Code    16  hc32_ll_interrupts.o(i.IRQ125_Handler)
    IRQ126_Handler                           0x000023ed   Thumb Code    16  hc32_ll_interrupts.o(i.IRQ126_Handler)
    IRQ127_Handler                           0x00002401   Thumb Code    16  hc32_ll_interrupts.o(i.IRQ127_Handler)
    LL_PERIPH_WE                             0x00002499   Thumb Code   122  hc32_ll.o(i.LL_PERIPH_WE)
    LL_PrintfInit                            0x00002529   Thumb Code    98  hc32_ll_utility.o(i.LL_PrintfInit)
    PWC_HighSpeedToHighPerformance           0x0000283d   Thumb Code    68  hc32_ll_pwc.o(i.PWC_HighSpeedToHighPerformance)
    SRAM_SetWaitCycle                        0x000028d9   Thumb Code   182  hc32_ll_sram.o(i.SRAM_SetWaitCycle)
    SystemCoreClockUpdate                    0x000030b5   Thumb Code   174  system_hc32f460.o(i.SystemCoreClockUpdate)
    SystemInit                               0x00003181   Thumb Code    14  system_hc32f460.o(i.SystemInit)
    USART_ClearStatus                        0x00003429   Thumb Code   108  hc32_ll_usart.o(i.USART_ClearStatus)
    USART_FuncCmd                            0x000034e9   Thumb Code   124  hc32_ll_usart.o(i.USART_FuncCmd)
    USART_GetStatus                          0x000035d1   Thumb Code    88  hc32_ll_usart.o(i.USART_GetStatus)
    USART_ReadData                           0x00003719   Thumb Code    48  hc32_ll_usart.o(i.USART_ReadData)
    USART_SetBaudrate                        0x00003799   Thumb Code   198  hc32_ll_usart.o(i.USART_SetBaudrate)
    USART_SetClockDiv                        0x000038b1   Thumb Code    76  hc32_ll_usart.o(i.USART_SetClockDiv)
    USART_UART_Init                          0x0000394d   Thumb Code   436  hc32_ll_usart.o(i.USART_UART_Init)
    USART_UART_StructInit                    0x00003b51   Thumb Code    46  hc32_ll_usart.o(i.USART_UART_StructInit)
    USART_WriteData                          0x00003b81   Thumb Code    72  hc32_ll_usart.o(i.USART_WriteData)
    __0printf$3                              0x00003d2d   Thumb Code    22  printf3.o(i.__0printf$3)
    __1printf$3                              0x00003d2d   Thumb Code     0  printf3.o(i.__0printf$3)
    __2printf                                0x00003d2d   Thumb Code     0  printf3.o(i.__0printf$3)
    __scatterload_copy                       0x00003d4d   Thumb Code    14  handlers.o(i.__scatterload_copy)
    __scatterload_null                       0x00003d5b   Thumb Code     2  handlers.o(i.__scatterload_null)
    __scatterload_zeroinit                   0x00003d5d   Thumb Code    14  handlers.o(i.__scatterload_zeroinit)
    fputc                                    0x0000402d   Thumb Code    24  hc32_ll_utility.o(i.fputc)
    main                                     0x00004045   Thumb Code    26  main.o(i.main)
    process_asynchdata_uart2usb              0x00004071   Thumb Code   184  usb_dev_cdc_class.o(i.process_asynchdata_uart2usb)
    usb_addrset                              0x00004189   Thumb Code    18  usb_dev_driver.o(i.usb_addrset)
    usb_bsp_init                             0x0000419d   Thumb Code   104  usb_bsp.o(i.usb_bsp_init)
    usb_bsp_nvicconfig                       0x00004221   Thumb Code   130  usb_bsp.o(i.usb_bsp_nvicconfig)
    usb_clearepstall                         0x000042b5   Thumb Code    58  hc32_ll_usb.o(i.usb_clearepstall)
    usb_clrfeature                           0x000042ef   Thumb Code    66  usb_dev_stdreq.o(i.usb_clrfeature)
    usb_clrstall                             0x00004331   Thumb Code    94  usb_dev_driver.o(i.usb_clrstall)
    usb_coresoftrst                          0x00004391   Thumb Code   126  hc32_ll_usb.o(i.usb_coresoftrst)
    usb_ctrlconn                             0x00004415   Thumb Code    56  usb_dev_core.o(i.usb_ctrlconn)
    usb_ctrldatarx                           0x0000444d   Thumb Code    36  usb_dev_ctrleptrans.o(i.usb_ctrldatarx)
    usb_ctrldatatx                           0x00004471   Thumb Code    36  usb_dev_ctrleptrans.o(i.usb_ctrldatatx)
    usb_ctrlerr                              0x00004495   Thumb Code    28  usb_dev_stdreq.o(i.usb_ctrlerr)
    usb_ctrlstatusrx                         0x000044b1   Thumb Code    26  usb_dev_ctrleptrans.o(i.usb_ctrlstatusrx)
    usb_ctrlstatustx                         0x000044cb   Thumb Code    26  usb_dev_ctrleptrans.o(i.usb_ctrlstatustx)
    usb_datain_process                       0x000044e5   Thumb Code   202  usb_dev_core.o(i.usb_datain_process)
    usb_dataout_process                      0x000045b5   Thumb Code   148  usb_dev_core.o(i.usb_dataout_process)
    usb_dev_cdc_ctrlep_rxready               0x00004649   Thumb Code    34  usb_dev_cdc_class.o(i.usb_dev_cdc_ctrlep_rxready)
    usb_dev_cdc_datain                       0x00004679   Thumb Code   150  usb_dev_cdc_class.o(i.usb_dev_cdc_datain)
    usb_dev_cdc_dataout                      0x00004725   Thumb Code    44  usb_dev_cdc_class.o(i.usb_dev_cdc_dataout)
    usb_dev_cdc_deinit                       0x00004755   Thumb Code    34  usb_dev_cdc_class.o(i.usb_dev_cdc_deinit)
    usb_dev_cdc_getcfgdesc                   0x00004779   Thumb Code    10  usb_dev_cdc_class.o(i.usb_dev_cdc_getcfgdesc)
    usb_dev_cdc_init                         0x00004789   Thumb Code    58  usb_dev_cdc_class.o(i.usb_dev_cdc_init)
    usb_dev_cdc_setup                        0x000047c9   Thumb Code   212  usb_dev_cdc_class.o(i.usb_dev_cdc_setup)
    usb_dev_cdc_sof                          0x000048b1   Thumb Code    36  usb_dev_cdc_class.o(i.usb_dev_cdc_sof)
    usb_dev_configstrdesc                    0x000048d9   Thumb Code    18  usb_dev_desc.o(i.usb_dev_configstrdesc)
    usb_dev_ctrlconfig                       0x000048fd   Thumb Code    56  usb_dev_stdreq.o(i.usb_dev_ctrlconfig)
    usb_dev_desc                             0x00004935   Thumb Code    10  usb_dev_desc.o(i.usb_dev_desc)
    usb_dev_init                             0x00004945   Thumb Code    68  usb_dev_core.o(i.usb_dev_init)
    usb_dev_intfstrdesc                      0x00004989   Thumb Code    18  usb_dev_desc.o(i.usb_dev_intfstrdesc)
    usb_dev_langiddesc                       0x000049b1   Thumb Code    10  usb_dev_desc.o(i.usb_dev_langiddesc)
    usb_dev_manufacturerstr                  0x000049c1   Thumb Code    18  usb_dev_desc.o(i.usb_dev_manufacturerstr)
    usb_dev_productdesc                      0x000049e1   Thumb Code    18  usb_dev_desc.o(i.usb_dev_productdesc)
    usb_dev_resume                           0x00004a09   Thumb Code    22  usb_dev_core.o(i.usb_dev_resume)
    usb_dev_rst                              0x00004a1f   Thumb Code    44  usb_dev_core.o(i.usb_dev_rst)
    usb_dev_serialstr                        0x00004a4d   Thumb Code    18  usb_dev_desc.o(i.usb_dev_serialstr)
    usb_dev_susp                             0x00004a75   Thumb Code    28  usb_dev_core.o(i.usb_dev_susp)
    usb_dev_user_conn                        0x00004a91   Thumb Code    10  usb_dev_user.o(i.usb_dev_user_conn)
    usb_dev_user_devcfg                      0x00004ab9   Thumb Code    10  usb_dev_user.o(i.usb_dev_user_devcfg)
    usb_dev_user_devresume                   0x00004ae1   Thumb Code    10  usb_dev_user.o(i.usb_dev_user_devresume)
    usb_dev_user_devsusp                     0x00004b05   Thumb Code    10  usb_dev_user.o(i.usb_dev_user_devsusp)
    usb_dev_user_disconn                     0x00004b35   Thumb Code    10  usb_dev_user.o(i.usb_dev_user_disconn)
    usb_dev_user_init                        0x00004b61   Thumb Code     2  usb_dev_user.o(i.usb_dev_user_init)
    usb_dev_user_rst                         0x00004b65   Thumb Code    10  usb_dev_user.o(i.usb_dev_user_rst)
    usb_devepdis                             0x00004b8d   Thumb Code   166  hc32_ll_usb.o(i.usb_devepdis)
    usb_deveptx                              0x00004c33   Thumb Code    92  usb_dev_driver.o(i.usb_deveptx)
    usb_devinten                             0x00004c91   Thumb Code    60  hc32_ll_usb.o(i.usb_devinten)
    usb_devmodeinit                          0x00004cd5   Thumb Code   126  hc32_ll_usb.o(i.usb_devmodeinit)
    usb_ep0activate                          0x00004d79   Thumb Code    60  hc32_ll_usb.o(i.usb_ep0activate)
    usb_ep0outstart                          0x00004db5   Thumb Code    34  usb_dev_driver.o(i.usb_ep0outstart)
    usb_ep0revcfg                            0x00004dd9   Thumb Code    30  hc32_ll_usb.o(i.usb_ep0revcfg)
    usb_ep0transbegin                        0x00004dfd   Thumb Code   260  hc32_ll_usb.o(i.usb_ep0transbegin)
    usb_epactive                             0x00004f01   Thumb Code    92  hc32_ll_usb.o(i.usb_epactive)
    usb_epdeactive                           0x00004f5d   Thumb Code    96  hc32_ll_usb.o(i.usb_epdeactive)
    usb_epntransbegin                        0x00004fbd   Thumb Code   352  hc32_ll_usb.o(i.usb_epntransbegin)
    usb_getconfig                            0x0000511d   Thumb Code    72  usb_dev_stdreq.o(i.usb_getconfig)
    usb_getdesc                              0x00005169   Thumb Code   258  usb_dev_stdreq.o(i.usb_getdesc)
    usb_getintf                              0x0000526d   Thumb Code    20  usb_dev_stdreq.o(i.usb_getintf)
    usb_getlength                            0x00005285   Thumb Code    20  usb_dev_stdreq.o(i.usb_getlength)
    usb_getstatus                            0x000052ad   Thumb Code    68  usb_dev_stdreq.o(i.usb_getstatus)
    usb_getstring                            0x000052f5   Thumb Code    78  usb_dev_stdreq.o(i.usb_getstring)
    usb_initdev                              0x00005449   Thumb Code   186  usb_dev_driver.o(i.usb_initdev)
    usb_initusbcore                          0x00005503   Thumb Code   100  hc32_ll_usb.o(i.usb_initusbcore)
    usb_isoinincomplt_process                0x00005585   Thumb Code    16  usb_dev_core.o(i.usb_isoinincomplt_process)
    usb_isooutincomplt_process               0x000055b1   Thumb Code    16  usb_dev_core.o(i.usb_isooutincomplt_process)
    usb_isr_handler                          0x000055c1   Thumb Code   194  usb_dev_int.o(i.usb_isr_handler)
    usb_mdelay                               0x00005683   Thumb Code    18  usb_bsp.o(i.usb_mdelay)
    usb_modeset                              0x00005695   Thumb Code    52  hc32_ll_usb.o(i.usb_modeset)
    usb_opendevep                            0x000056c9   Thumb Code   118  usb_dev_driver.o(i.usb_opendevep)
    usb_parsesetupreq                        0x000058a1   Thumb Code    68  usb_dev_stdreq.o(i.usb_parsesetupreq)
    usb_rdpkt                                0x0000591b   Thumb Code    44  hc32_ll_usb.o(i.usb_rdpkt)
    usb_readytorx                            0x00005947   Thumb Code    96  usb_dev_driver.o(i.usb_readytorx)
    usb_setaddr                              0x00005b3d   Thumb Code    80  usb_dev_stdreq.o(i.usb_setaddr)
    usb_setconfig                            0x00005b8d   Thumb Code   208  usb_dev_stdreq.o(i.usb_setconfig)
    usb_setepstall                           0x00005c61   Thumb Code    80  hc32_ll_usb.o(i.usb_setepstall)
    usb_setfeature                           0x00005cb1   Thumb Code    82  usb_dev_stdreq.o(i.usb_setfeature)
    usb_setregaddr                           0x00005d09   Thumb Code   154  hc32_ll_usb.o(i.usb_setregaddr)
    usb_setup_process                        0x00005de5   Thumb Code    82  usb_dev_core.o(i.usb_setup_process)
    usb_shutdevep                            0x00005e37   Thumb Code    82  usb_dev_driver.o(i.usb_shutdevep)
    usb_sof_process                          0x00005ea5   Thumb Code    24  usb_dev_core.o(i.usb_sof_process)
    usb_stalldevep                           0x00005ebd   Thumb Code    94  usb_dev_driver.o(i.usb_stalldevep)
    usb_standarddevreq                       0x00005f1b   Thumb Code   138  usb_dev_stdreq.o(i.usb_standarddevreq)
    usb_standardepreq                        0x00005fa5   Thumb Code   416  usb_dev_stdreq.o(i.usb_standardepreq)
    usb_standarditfreq                       0x00006149   Thumb Code   118  usb_dev_stdreq.o(i.usb_standarditfreq)
    usb_txfifoflush                          0x0000621d   Thumb Code    80  hc32_ll_usb.o(i.usb_txfifoflush)
    usb_udelay                               0x00006271   Thumb Code    50  usb_bsp.o(i.usb_udelay)
    usb_wrpkt                                0x00006345   Thumb Code    50  hc32_ll_usb.o(i.usb_wrpkt)
    vcp_ctrlpare                             0x00006379   Thumb Code   160  cdc_data_process.o(i.vcp_ctrlpare)
    vcp_deinit                               0x0000641d   Thumb Code     2  cdc_data_process.o(i.vcp_deinit)
    vcp_init                                 0x00006421   Thumb Code   138  cdc_data_process.o(i.vcp_init)
    vcp_rxdata                               0x000064bd   Thumb Code    40  cdc_data_process.o(i.vcp_rxdata)
    vcp_txdata                               0x000064e9   Thumb Code    78  cdc_data_process.o(i.vcp_txdata)
    Region$$Table$$Base                      0x000065f4   Number         0  anon$$obj.o(Region$$Table)
    Region$$Table$$Limit                     0x00006614   Number         0  anon$$obj.o(Region$$Table)
    SystemCoreClock                          0x1fff8000   Data           4  system_hc32f460.o(.bss.noinit)
    HRC_VALUE                                0x1fff8004   Data           4  system_hc32f460.o(.bss.noinit)
    user_desc                                0x1fff8010   Data          28  usb_dev_desc.o(.data)
    user_cb                                  0x1fff8044   Data          28  usb_dev_user.o(.data)
    SET_TEST_MODE                            0x1fff8074   Data           4  usb_dev_core.o(.data)
    dev_int_cbkpr                            0x1fff80a0   Data           4  usb_dev_core.o(.data)
    class_cdc_cbk                            0x1fff80b4   Data          44  usb_dev_cdc_class.o(.data)
    APP_Rx_ptr_in                            0x1fff80ec   Data           4  usb_dev_cdc_class.o(.data)
    APP_Rx_ptr_out                           0x1fff80f0   Data           4  usb_dev_cdc_class.o(.data)
    __stdout                                 0x1fff8158   Data           4  stdout.o(.data)
    usb_dev                                  0x1fff815c   Data        1224  main.o(.bss)
    uart_rx_buffer                           0x1fff88e4   Data        2048  usb_dev_cdc_class.o(.bss)
    __initial_sp                             0x1fff9ce8   Data           0  startup_hc32f460.o(STACK)



==============================================================================

Memory Map of the image

  Image Entry point : 0x00000281

  Load Region LR_IROM1 (Base: 0x00000000, Size: 0x00006768, Max: 0x00080000, ABSOLUTE, COMPRESSED[0x000066e0])

    Execution Region ER_IROM1 (Base: 0x00000000, Size: 0x00006614, Max: 0x00080000, ABSOLUTE)

    Base Addr    Size         Type   Attr      Idx    E Section Name        Object

    0x00000000   0x00000280   Data   RO            3    RESET               startup_hc32f460.o
    0x00000280   0x00000000   Code   RO         4147  * .ARM.Collect$$$$00000000  mc_w.l(entry.o)
    0x00000280   0x00000004   Code   RO         4439    .ARM.Collect$$$$00000001  mc_w.l(entry2.o)
    0x00000284   0x00000004   Code   RO         4442    .ARM.Collect$$$$00000004  mc_w.l(entry5.o)
    0x00000288   0x00000000   Code   RO         4444    .ARM.Collect$$$$00000008  mc_w.l(entry7b.o)
    0x00000288   0x00000000   Code   RO         4446    .ARM.Collect$$$$0000000A  mc_w.l(entry8b.o)
    0x00000288   0x00000008   Code   RO         4447    .ARM.Collect$$$$0000000B  mc_w.l(entry9a.o)
    0x00000290   0x00000000   Code   RO         4449    .ARM.Collect$$$$0000000D  mc_w.l(entry10a.o)
    0x00000290   0x00000000   Code   RO         4451    .ARM.Collect$$$$0000000F  mc_w.l(entry11a.o)
    0x00000290   0x00000004   Code   RO         4440    .ARM.Collect$$$$00002712  mc_w.l(entry2.o)
    0x00000294   0x00000058   Code   RO            4    .text               startup_hc32f460.o
    0x000002ec   0x00000062   Code   RO         4150    .text               mc_w.l(uldiv.o)
    0x0000034e   0x00000024   Code   RO         4152    .text               mc_w.l(memcpya.o)
    0x00000372   0x0000001a   Code   RO         4427    .text               mf_w.l(dfltui.o)
    0x0000038c   0x00000018   Code   RO         4429    .text               mf_w.l(dfltul.o)
    0x000003a4   0x00000038   Code   RO         4433    .text               mf_w.l(d2f.o)
    0x000003dc   0x00000014   Code   RO         4435    .text               mf_w.l(cfcmple.o)
    0x000003f0   0x00000000   Code   RO         4460    .text               mc_w.l(iusefp.o)
    0x000003f0   0x00000010   Code   RO          565    i.CLK_SetSysClockSrc  hc32_ll_clk.o
    0x00000400   0x00000020   Data   RO         1533    .ARM.__AT_0x00000400  hc32_ll_icg.o
    0x00000420   0x000000b0   Code   RO         4417    .text               mf_w.l(fadd.o)
    0x000004d0   0x000000de   Code   RO         4423    .text               mf_w.l(ddiv.o)
    0x000005ae   0x0000002c   Code   RO         4454    .text               mc_w.l(uidiv.o)
    0x000005da   0x0000001e   Code   RO         4456    .text               mc_w.l(llshl.o)
    0x000005f8   0x00000020   Code   RO         4458    .text               mc_w.l(llushr.o)
    0x00000618   0x0000006e   Code   RO         4461    .text               mf_w.l(fepilogue.o)
    0x00000686   0x000000ba   Code   RO         4463    .text               mf_w.l(depilogue.o)
    0x00000740   0x00000024   Code   RO         4473    .text               mc_w.l(init.o)
    0x00000764   0x0000003a   Code   RO         4485    .text               mc_w.l(__dczerorl.o)
    0x0000079e   0x00000002   PAD
    0x000007a0   0x000000a8   Code   RO         3414    i.BSP_CLK_Init      ev_hc32f460_lqfp100_v2.o
    0x00000848   0x00000028   Code   RO         3423    i.BSP_KEY_KEY10_IrqHandler  ev_hc32f460_lqfp100_v2.o
    0x00000870   0x00000038   Code   RO         3428    i.BSP_LED_Init      ev_hc32f460_lqfp100_v2.o
    0x000008a8   0x00000090   Code   RO         3432    i.BSP_PRINTF_Preinit  ev_hc32f460_lqfp100_v2.o
    0x00000938   0x00000070   Code   RO          545    i.CLK_GetStableStatus  hc32_ll_clk.o
    0x000009a8   0x000000d8   Code   RO          555    i.CLK_PLLCmd        hc32_ll_clk.o
    0x00000a80   0x000002b4   Code   RO          556    i.CLK_PLLInit       hc32_ll_clk.o
    0x00000d34   0x00000052   Code   RO          557    i.CLK_PLLStructInit  hc32_ll_clk.o
    0x00000d86   0x00000002   PAD
    0x00000d88   0x000000c4   Code   RO          558    i.CLK_PLLxCmd       hc32_ll_clk.o
    0x00000e4c   0x00000038   Code   RO          559    i.CLK_PLLxInit      hc32_ll_clk.o
    0x00000e84   0x0000004a   Code   RO          560    i.CLK_PLLxStructInit  hc32_ll_clk.o
    0x00000ece   0x00000014   Code   RO          561    i.CLK_SetClockDiv   hc32_ll_clk.o
    0x00000ee2   0x00000002   PAD
    0x00000ee4   0x000000a4   Code   RO          567    i.CLK_SetUSBClockSrc  hc32_ll_clk.o
    0x00000f88   0x00000030   Code   RO          569    i.CLK_WaitStable    hc32_ll_clk.o
    0x00000fb8   0x0000001e   Code   RO          577    i.CLK_XtalStructInit  hc32_ll_clk.o
    0x00000fd6   0x00000002   PAD
    0x00000fd8   0x00000234   Code   RO         2886    i.ClockSync_CalculateBrr  hc32_ll_usart.o
    0x0000120c   0x00000044   Code   RO         3318    i.DDL_AssertHandler  hc32_ll_utility.o
    0x00001250   0x0000004c   Code   RO         3319    i.DDL_ConsoleOutputChar  hc32_ll_utility.o
    0x0000129c   0x00000040   Code   RO         3321    i.DDL_DelayUS       hc32_ll_utility.o
    0x000012dc   0x000000c8   Code   RO          828    i.EFM_SetWaitCycle  hc32_ll_efm.o
    0x000013a4   0x00000038   Code   RO         1554    i.EXTINT_ClearExtIntStatus  hc32_ll_interrupts.o
    0x000013dc   0x00000094   Code   RO         1016    i.FCG_Fcg1PeriphClockCmd  hc32_ll_fcg.o
    0x00001470   0x0000020c   Code   RO         1144    i.GPIO_Init         hc32_ll_gpio.o
    0x0000167c   0x00000098   Code   RO         1147    i.GPIO_ReadInputPins  hc32_ll_gpio.o
    0x00001714   0x000000fc   Code   RO         1153    i.GPIO_SetFunc      hc32_ll_gpio.o
    0x00001810   0x00000094   Code   RO         1154    i.GPIO_SetPins      hc32_ll_gpio.o
    0x000018a4   0x0000009c   Code   RO         1155    i.GPIO_SetReadWaitCycle  hc32_ll_gpio.o
    0x00001940   0x00000020   Code   RO         1157    i.GPIO_StructInit   hc32_ll_gpio.o
    0x00001960   0x000000b4   Code   RO         1560    i.INTC_IrqSignIn    hc32_ll_interrupts.o
    0x00001a14   0x00000014   Code   RO         1565    i.IRQ000_Handler    hc32_ll_interrupts.o
    0x00001a28   0x00000014   Code   RO         1566    i.IRQ001_Handler    hc32_ll_interrupts.o
    0x00001a3c   0x00000014   Code   RO         1567    i.IRQ002_Handler    hc32_ll_interrupts.o
    0x00001a50   0x00000014   Code   RO         1568    i.IRQ003_Handler    hc32_ll_interrupts.o
    0x00001a64   0x00000014   Code   RO         1569    i.IRQ004_Handler    hc32_ll_interrupts.o
    0x00001a78   0x00000014   Code   RO         1570    i.IRQ005_Handler    hc32_ll_interrupts.o
    0x00001a8c   0x00000014   Code   RO         1571    i.IRQ006_Handler    hc32_ll_interrupts.o
    0x00001aa0   0x00000014   Code   RO         1572    i.IRQ007_Handler    hc32_ll_interrupts.o
    0x00001ab4   0x00000014   Code   RO         1573    i.IRQ008_Handler    hc32_ll_interrupts.o
    0x00001ac8   0x00000014   Code   RO         1574    i.IRQ009_Handler    hc32_ll_interrupts.o
    0x00001adc   0x00000014   Code   RO         1575    i.IRQ010_Handler    hc32_ll_interrupts.o
    0x00001af0   0x00000014   Code   RO         1576    i.IRQ011_Handler    hc32_ll_interrupts.o
    0x00001b04   0x00000014   Code   RO         1577    i.IRQ012_Handler    hc32_ll_interrupts.o
    0x00001b18   0x00000014   Code   RO         1578    i.IRQ013_Handler    hc32_ll_interrupts.o
    0x00001b2c   0x00000014   Code   RO         1579    i.IRQ014_Handler    hc32_ll_interrupts.o
    0x00001b40   0x00000014   Code   RO         1580    i.IRQ015_Handler    hc32_ll_interrupts.o
    0x00001b54   0x00000014   Code   RO         1581    i.IRQ016_Handler    hc32_ll_interrupts.o
    0x00001b68   0x00000014   Code   RO         1582    i.IRQ017_Handler    hc32_ll_interrupts.o
    0x00001b7c   0x00000014   Code   RO         1583    i.IRQ018_Handler    hc32_ll_interrupts.o
    0x00001b90   0x00000014   Code   RO         1584    i.IRQ019_Handler    hc32_ll_interrupts.o
    0x00001ba4   0x00000014   Code   RO         1585    i.IRQ020_Handler    hc32_ll_interrupts.o
    0x00001bb8   0x00000014   Code   RO         1586    i.IRQ021_Handler    hc32_ll_interrupts.o
    0x00001bcc   0x00000014   Code   RO         1587    i.IRQ022_Handler    hc32_ll_interrupts.o
    0x00001be0   0x00000014   Code   RO         1588    i.IRQ023_Handler    hc32_ll_interrupts.o
    0x00001bf4   0x00000014   Code   RO         1589    i.IRQ024_Handler    hc32_ll_interrupts.o
    0x00001c08   0x00000014   Code   RO         1590    i.IRQ025_Handler    hc32_ll_interrupts.o
    0x00001c1c   0x00000014   Code   RO         1591    i.IRQ026_Handler    hc32_ll_interrupts.o
    0x00001c30   0x00000014   Code   RO         1592    i.IRQ027_Handler    hc32_ll_interrupts.o
    0x00001c44   0x00000014   Code   RO         1593    i.IRQ028_Handler    hc32_ll_interrupts.o
    0x00001c58   0x00000014   Code   RO         1594    i.IRQ029_Handler    hc32_ll_interrupts.o
    0x00001c6c   0x00000014   Code   RO         1595    i.IRQ030_Handler    hc32_ll_interrupts.o
    0x00001c80   0x00000014   Code   RO         1596    i.IRQ031_Handler    hc32_ll_interrupts.o
    0x00001c94   0x00000014   Code   RO         1597    i.IRQ032_Handler    hc32_ll_interrupts.o
    0x00001ca8   0x00000014   Code   RO         1598    i.IRQ033_Handler    hc32_ll_interrupts.o
    0x00001cbc   0x00000014   Code   RO         1599    i.IRQ034_Handler    hc32_ll_interrupts.o
    0x00001cd0   0x00000014   Code   RO         1600    i.IRQ035_Handler    hc32_ll_interrupts.o
    0x00001ce4   0x00000014   Code   RO         1601    i.IRQ036_Handler    hc32_ll_interrupts.o
    0x00001cf8   0x00000014   Code   RO         1602    i.IRQ037_Handler    hc32_ll_interrupts.o
    0x00001d0c   0x00000014   Code   RO         1603    i.IRQ038_Handler    hc32_ll_interrupts.o
    0x00001d20   0x00000014   Code   RO         1604    i.IRQ039_Handler    hc32_ll_interrupts.o
    0x00001d34   0x00000014   Code   RO         1605    i.IRQ040_Handler    hc32_ll_interrupts.o
    0x00001d48   0x00000014   Code   RO         1606    i.IRQ041_Handler    hc32_ll_interrupts.o
    0x00001d5c   0x00000014   Code   RO         1607    i.IRQ042_Handler    hc32_ll_interrupts.o
    0x00001d70   0x00000014   Code   RO         1608    i.IRQ043_Handler    hc32_ll_interrupts.o
    0x00001d84   0x00000014   Code   RO         1609    i.IRQ044_Handler    hc32_ll_interrupts.o
    0x00001d98   0x00000014   Code   RO         1610    i.IRQ045_Handler    hc32_ll_interrupts.o
    0x00001dac   0x00000014   Code   RO         1611    i.IRQ046_Handler    hc32_ll_interrupts.o
    0x00001dc0   0x00000014   Code   RO         1612    i.IRQ047_Handler    hc32_ll_interrupts.o
    0x00001dd4   0x00000014   Code   RO         1613    i.IRQ048_Handler    hc32_ll_interrupts.o
    0x00001de8   0x00000014   Code   RO         1614    i.IRQ049_Handler    hc32_ll_interrupts.o
    0x00001dfc   0x00000014   Code   RO         1615    i.IRQ050_Handler    hc32_ll_interrupts.o
    0x00001e10   0x00000014   Code   RO         1616    i.IRQ051_Handler    hc32_ll_interrupts.o
    0x00001e24   0x00000014   Code   RO         1617    i.IRQ052_Handler    hc32_ll_interrupts.o
    0x00001e38   0x00000014   Code   RO         1618    i.IRQ053_Handler    hc32_ll_interrupts.o
    0x00001e4c   0x00000014   Code   RO         1619    i.IRQ054_Handler    hc32_ll_interrupts.o
    0x00001e60   0x00000014   Code   RO         1620    i.IRQ055_Handler    hc32_ll_interrupts.o
    0x00001e74   0x00000014   Code   RO         1621    i.IRQ056_Handler    hc32_ll_interrupts.o
    0x00001e88   0x00000014   Code   RO         1622    i.IRQ057_Handler    hc32_ll_interrupts.o
    0x00001e9c   0x00000014   Code   RO         1623    i.IRQ058_Handler    hc32_ll_interrupts.o
    0x00001eb0   0x00000014   Code   RO         1624    i.IRQ059_Handler    hc32_ll_interrupts.o
    0x00001ec4   0x00000014   Code   RO         1625    i.IRQ060_Handler    hc32_ll_interrupts.o
    0x00001ed8   0x00000014   Code   RO         1626    i.IRQ061_Handler    hc32_ll_interrupts.o
    0x00001eec   0x00000014   Code   RO         1627    i.IRQ062_Handler    hc32_ll_interrupts.o
    0x00001f00   0x00000014   Code   RO         1628    i.IRQ063_Handler    hc32_ll_interrupts.o
    0x00001f14   0x00000014   Code   RO         1629    i.IRQ064_Handler    hc32_ll_interrupts.o
    0x00001f28   0x00000014   Code   RO         1630    i.IRQ065_Handler    hc32_ll_interrupts.o
    0x00001f3c   0x00000014   Code   RO         1631    i.IRQ066_Handler    hc32_ll_interrupts.o
    0x00001f50   0x00000014   Code   RO         1632    i.IRQ067_Handler    hc32_ll_interrupts.o
    0x00001f64   0x00000014   Code   RO         1633    i.IRQ068_Handler    hc32_ll_interrupts.o
    0x00001f78   0x00000014   Code   RO         1634    i.IRQ069_Handler    hc32_ll_interrupts.o
    0x00001f8c   0x00000014   Code   RO         1635    i.IRQ070_Handler    hc32_ll_interrupts.o
    0x00001fa0   0x00000014   Code   RO         1636    i.IRQ071_Handler    hc32_ll_interrupts.o
    0x00001fb4   0x00000014   Code   RO         1637    i.IRQ072_Handler    hc32_ll_interrupts.o
    0x00001fc8   0x00000014   Code   RO         1638    i.IRQ073_Handler    hc32_ll_interrupts.o
    0x00001fdc   0x00000014   Code   RO         1639    i.IRQ074_Handler    hc32_ll_interrupts.o
    0x00001ff0   0x00000014   Code   RO         1640    i.IRQ075_Handler    hc32_ll_interrupts.o
    0x00002004   0x00000014   Code   RO         1641    i.IRQ076_Handler    hc32_ll_interrupts.o
    0x00002018   0x00000014   Code   RO         1642    i.IRQ077_Handler    hc32_ll_interrupts.o
    0x0000202c   0x00000014   Code   RO         1643    i.IRQ078_Handler    hc32_ll_interrupts.o
    0x00002040   0x00000014   Code   RO         1644    i.IRQ079_Handler    hc32_ll_interrupts.o
    0x00002054   0x00000014   Code   RO         1645    i.IRQ080_Handler    hc32_ll_interrupts.o
    0x00002068   0x00000014   Code   RO         1646    i.IRQ081_Handler    hc32_ll_interrupts.o
    0x0000207c   0x00000014   Code   RO         1647    i.IRQ082_Handler    hc32_ll_interrupts.o
    0x00002090   0x00000014   Code   RO         1648    i.IRQ083_Handler    hc32_ll_interrupts.o
    0x000020a4   0x00000014   Code   RO         1649    i.IRQ084_Handler    hc32_ll_interrupts.o
    0x000020b8   0x00000014   Code   RO         1650    i.IRQ085_Handler    hc32_ll_interrupts.o
    0x000020cc   0x00000014   Code   RO         1651    i.IRQ086_Handler    hc32_ll_interrupts.o
    0x000020e0   0x00000014   Code   RO         1652    i.IRQ087_Handler    hc32_ll_interrupts.o
    0x000020f4   0x00000014   Code   RO         1653    i.IRQ088_Handler    hc32_ll_interrupts.o
    0x00002108   0x00000014   Code   RO         1654    i.IRQ089_Handler    hc32_ll_interrupts.o
    0x0000211c   0x00000014   Code   RO         1655    i.IRQ090_Handler    hc32_ll_interrupts.o
    0x00002130   0x00000014   Code   RO         1656    i.IRQ091_Handler    hc32_ll_interrupts.o
    0x00002144   0x00000014   Code   RO         1657    i.IRQ092_Handler    hc32_ll_interrupts.o
    0x00002158   0x00000014   Code   RO         1658    i.IRQ093_Handler    hc32_ll_interrupts.o
    0x0000216c   0x00000014   Code   RO         1659    i.IRQ094_Handler    hc32_ll_interrupts.o
    0x00002180   0x00000014   Code   RO         1660    i.IRQ095_Handler    hc32_ll_interrupts.o
    0x00002194   0x00000014   Code   RO         1661    i.IRQ096_Handler    hc32_ll_interrupts.o
    0x000021a8   0x00000014   Code   RO         1662    i.IRQ097_Handler    hc32_ll_interrupts.o
    0x000021bc   0x00000014   Code   RO         1663    i.IRQ098_Handler    hc32_ll_interrupts.o
    0x000021d0   0x00000014   Code   RO         1664    i.IRQ099_Handler    hc32_ll_interrupts.o
    0x000021e4   0x00000014   Code   RO         1665    i.IRQ100_Handler    hc32_ll_interrupts.o
    0x000021f8   0x00000014   Code   RO         1666    i.IRQ101_Handler    hc32_ll_interrupts.o
    0x0000220c   0x00000014   Code   RO         1667    i.IRQ102_Handler    hc32_ll_interrupts.o
    0x00002220   0x00000014   Code   RO         1668    i.IRQ103_Handler    hc32_ll_interrupts.o
    0x00002234   0x00000014   Code   RO         1669    i.IRQ104_Handler    hc32_ll_interrupts.o
    0x00002248   0x00000014   Code   RO         1670    i.IRQ105_Handler    hc32_ll_interrupts.o
    0x0000225c   0x00000014   Code   RO         1671    i.IRQ106_Handler    hc32_ll_interrupts.o
    0x00002270   0x00000014   Code   RO         1672    i.IRQ107_Handler    hc32_ll_interrupts.o
    0x00002284   0x00000014   Code   RO         1673    i.IRQ108_Handler    hc32_ll_interrupts.o
    0x00002298   0x00000014   Code   RO         1674    i.IRQ109_Handler    hc32_ll_interrupts.o
    0x000022ac   0x00000014   Code   RO         1675    i.IRQ110_Handler    hc32_ll_interrupts.o
    0x000022c0   0x00000014   Code   RO         1676    i.IRQ111_Handler    hc32_ll_interrupts.o
    0x000022d4   0x00000014   Code   RO         1677    i.IRQ112_Handler    hc32_ll_interrupts.o
    0x000022e8   0x00000014   Code   RO         1678    i.IRQ113_Handler    hc32_ll_interrupts.o
    0x000022fc   0x00000014   Code   RO         1679    i.IRQ114_Handler    hc32_ll_interrupts.o
    0x00002310   0x00000014   Code   RO         1680    i.IRQ115_Handler    hc32_ll_interrupts.o
    0x00002324   0x00000014   Code   RO         1681    i.IRQ116_Handler    hc32_ll_interrupts.o
    0x00002338   0x00000014   Code   RO         1682    i.IRQ117_Handler    hc32_ll_interrupts.o
    0x0000234c   0x00000014   Code   RO         1683    i.IRQ118_Handler    hc32_ll_interrupts.o
    0x00002360   0x00000014   Code   RO         1684    i.IRQ119_Handler    hc32_ll_interrupts.o
    0x00002374   0x00000014   Code   RO         1685    i.IRQ120_Handler    hc32_ll_interrupts.o
    0x00002388   0x00000014   Code   RO         1686    i.IRQ121_Handler    hc32_ll_interrupts.o
    0x0000239c   0x00000014   Code   RO         1687    i.IRQ122_Handler    hc32_ll_interrupts.o
    0x000023b0   0x00000014   Code   RO         1688    i.IRQ123_Handler    hc32_ll_interrupts.o
    0x000023c4   0x00000014   Code   RO         1689    i.IRQ124_Handler    hc32_ll_interrupts.o
    0x000023d8   0x00000014   Code   RO         1690    i.IRQ125_Handler    hc32_ll_interrupts.o
    0x000023ec   0x00000014   Code   RO         1691    i.IRQ126_Handler    hc32_ll_interrupts.o
    0x00002400   0x00000014   Code   RO         1692    i.IRQ127_Handler    hc32_ll_interrupts.o
    0x00002414   0x00000084   Code   RO          192    i.InstalIrqHandler  cdc_data_process.o
    0x00002498   0x00000090   Code   RO          489    i.LL_PERIPH_WE      hc32_ll.o
    0x00002528   0x000000b4   Code   RO         3322    i.LL_PrintfInit     hc32_ll_utility.o
    0x000025dc   0x00000260   Code   RO          579    i.PLLxParamCheck    hc32_ll_clk.o
    0x0000283c   0x00000084   Code   RO         2486    i.PWC_HighSpeedToHighPerformance  hc32_ll_pwc.o
    0x000028c0   0x00000018   Code   RO          492    i.PWC_REG_Unlock    hc32_ll.o
    0x000028d8   0x000000f8   Code   RO         2832    i.SRAM_SetWaitCycle  hc32_ll_sram.o
    0x000029d0   0x0000033c   Code   RO          580    i.SetSysClockDiv    hc32_ll_clk.o
    0x00002d0c   0x00000114   Code   RO          581    i.SetSysClockSrc    hc32_ll_clk.o
    0x00002e20   0x00000294   Code   RO         2887    i.SmartCard_CalculateBrr  hc32_ll_usart.o
    0x000030b4   0x000000cc   Code   RO           13    i.SystemCoreClockUpdate  system_hc32f460.o
    0x00003180   0x00000014   Code   RO           14    i.SystemInit        system_hc32f460.o
    0x00003194   0x00000294   Code   RO         2888    i.UART_CalculateBrr  hc32_ll_usart.o
    0x00003428   0x000000c0   Code   RO         2889    i.USART_ClearStatus  hc32_ll_usart.o
    0x000034e8   0x000000cc   Code   RO         2897    i.USART_FuncCmd     hc32_ll_usart.o
    0x000035b4   0x0000001c   Code   RO         2898    i.USART_GetBusClockFreq  hc32_ll_usart.o
    0x000035d0   0x000000ac   Code   RO         2901    i.USART_GetStatus   hc32_ll_usart.o
    0x0000367c   0x0000009c   Code   RO         2902    i.USART_GetUsartClockFreq  hc32_ll_usart.o
    0x00003718   0x00000080   Code   RO         2905    i.USART_ReadData    hc32_ll_usart.o
    0x00003798   0x00000118   Code   RO         2906    i.USART_SetBaudrate  hc32_ll_usart.o
    0x000038b0   0x0000009c   Code   RO         2907    i.USART_SetClockDiv  hc32_ll_usart.o
    0x0000394c   0x00000204   Code   RO         2921    i.USART_UART_Init   hc32_ll_usart.o
    0x00003b50   0x0000002e   Code   RO         2923    i.USART_UART_StructInit  hc32_ll_usart.o
    0x00003b7e   0x00000002   PAD
    0x00003b80   0x00000098   Code   RO         2926    i.USART_WriteData   hc32_ll_usart.o
    0x00003c18   0x00000010   Code   RO          275    i.USB_IRQ_Handler   usb_bsp.o
    0x00003c28   0x00000044   Code   RO          193    i.UsartErrIrqCallback  cdc_data_process.o
    0x00003c6c   0x00000018   Code   RO          194    i.UsartRxIrqCallback  cdc_data_process.o
    0x00003c84   0x00000056   Code   RO          276    i.UsbClockInit      usb_bsp.o
    0x00003cda   0x00000002   PAD
    0x00003cdc   0x00000050   Code   RO          195    i.VCP_COMConfigDefault  cdc_data_process.o
    0x00003d2c   0x00000020   Code   RO         4245    i.__0printf$3       mc_w.l(printf3.o)
    0x00003d4c   0x0000000e   Code   RO         4479    i.__scatterload_copy  mc_w.l(handlers.o)
    0x00003d5a   0x00000002   Code   RO         4480    i.__scatterload_null  mc_w.l(handlers.o)
    0x00003d5c   0x0000000e   Code   RO         4481    i.__scatterload_zeroinit  mc_w.l(handlers.o)
    0x00003d6a   0x00000002   PAD
    0x00003d6c   0x000001b8   Code   RO         4252    i._printf_core      mc_w.l(printf3.o)
    0x00003f24   0x00000108   Code   RO          196    i.comport_config    cdc_data_process.o
    0x0000402c   0x00000018   Code   RO         3329    i.fputc             hc32_ll_utility.o
    0x00004044   0x0000002c   Code   RO           84    i.main              main.o
    0x00004070   0x000000d0   Code   RO         4067    i.process_asynchdata_uart2usb  usb_dev_cdc_class.o
    0x00004140   0x00000048   Code   RO         3151    i.usb_DevFSFifoConfig  hc32_ll_usb.o
    0x00004188   0x00000012   Code   RO         3727    i.usb_addrset       usb_dev_driver.o
    0x0000419a   0x00000002   PAD
    0x0000419c   0x00000084   Code   RO          277    i.usb_bsp_init      usb_bsp.o
    0x00004220   0x00000094   Code   RO          278    i.usb_bsp_nvicconfig  usb_bsp.o
    0x000042b4   0x0000003a   Code   RO         3152    i.usb_clearepstall  hc32_ll_usb.o
    0x000042ee   0x00000042   Code   RO         3941    i.usb_clrfeature    usb_dev_stdreq.o
    0x00004330   0x0000005e   Code   RO         3728    i.usb_clrstall      usb_dev_driver.o
    0x0000438e   0x00000002   PAD
    0x00004390   0x00000084   Code   RO         3153    i.usb_coresoftrst   hc32_ll_usb.o
    0x00004414   0x00000038   Code   RO         3553    i.usb_ctrlconn      usb_dev_core.o
    0x0000444c   0x00000024   Code   RO         3666    i.usb_ctrldatarx    usb_dev_ctrleptrans.o
    0x00004470   0x00000024   Code   RO         3667    i.usb_ctrldatatx    usb_dev_ctrleptrans.o
    0x00004494   0x0000001c   Code   RO         3942    i.usb_ctrlerr       usb_dev_stdreq.o
    0x000044b0   0x0000001a   Code   RO         3668    i.usb_ctrlstatusrx  usb_dev_ctrleptrans.o
    0x000044ca   0x0000001a   Code   RO         3669    i.usb_ctrlstatustx  usb_dev_ctrleptrans.o
    0x000044e4   0x000000d0   Code   RO         3554    i.usb_datain_process  usb_dev_core.o
    0x000045b4   0x00000094   Code   RO         3555    i.usb_dataout_process  usb_dev_core.o
    0x00004648   0x00000030   Code   RO         4068    i.usb_dev_cdc_ctrlep_rxready  usb_dev_cdc_class.o
    0x00004678   0x000000ac   Code   RO         4069    i.usb_dev_cdc_datain  usb_dev_cdc_class.o
    0x00004724   0x00000030   Code   RO         4070    i.usb_dev_cdc_dataout  usb_dev_cdc_class.o
    0x00004754   0x00000022   Code   RO         4071    i.usb_dev_cdc_deinit  usb_dev_cdc_class.o
    0x00004776   0x00000002   PAD
    0x00004778   0x00000010   Code   RO         4072    i.usb_dev_cdc_getcfgdesc  usb_dev_cdc_class.o
    0x00004788   0x00000040   Code   RO         4073    i.usb_dev_cdc_init  usb_dev_cdc_class.o
    0x000047c8   0x000000e8   Code   RO         4074    i.usb_dev_cdc_setup  usb_dev_cdc_class.o
    0x000048b0   0x00000028   Code   RO         4075    i.usb_dev_cdc_sof   usb_dev_cdc_class.o
    0x000048d8   0x00000024   Code   RO          353    i.usb_dev_configstrdesc  usb_dev_desc.o
    0x000048fc   0x00000038   Code   RO         3943    i.usb_dev_ctrlconfig  usb_dev_stdreq.o
    0x00004934   0x00000010   Code   RO          354    i.usb_dev_desc      usb_dev_desc.o
    0x00004944   0x00000044   Code   RO         3557    i.usb_dev_init      usb_dev_core.o
    0x00004988   0x00000028   Code   RO          355    i.usb_dev_intfstrdesc  usb_dev_desc.o
    0x000049b0   0x00000010   Code   RO          356    i.usb_dev_langiddesc  usb_dev_desc.o
    0x000049c0   0x00000020   Code   RO          357    i.usb_dev_manufacturerstr  usb_dev_desc.o
    0x000049e0   0x00000028   Code   RO          358    i.usb_dev_productdesc  usb_dev_desc.o
    0x00004a08   0x00000016   Code   RO         3558    i.usb_dev_resume    usb_dev_core.o
    0x00004a1e   0x0000002c   Code   RO         3559    i.usb_dev_rst       usb_dev_core.o
    0x00004a4a   0x00000002   PAD
    0x00004a4c   0x00000028   Code   RO          359    i.usb_dev_serialstr  usb_dev_desc.o
    0x00004a74   0x0000001c   Code   RO         3560    i.usb_dev_susp      usb_dev_core.o
    0x00004a90   0x00000028   Code   RO          423    i.usb_dev_user_conn  usb_dev_user.o
    0x00004ab8   0x00000028   Code   RO          424    i.usb_dev_user_devcfg  usb_dev_user.o
    0x00004ae0   0x00000024   Code   RO          425    i.usb_dev_user_devresume  usb_dev_user.o
    0x00004b04   0x00000030   Code   RO          426    i.usb_dev_user_devsusp  usb_dev_user.o
    0x00004b34   0x0000002c   Code   RO          427    i.usb_dev_user_disconn  usb_dev_user.o
    0x00004b60   0x00000002   Code   RO          428    i.usb_dev_user_init  usb_dev_user.o
    0x00004b62   0x00000002   PAD
    0x00004b64   0x00000028   Code   RO          429    i.usb_dev_user_rst  usb_dev_user.o
    0x00004b8c   0x000000a6   Code   RO         3155    i.usb_devepdis      hc32_ll_usb.o
    0x00004c32   0x0000005c   Code   RO         3732    i.usb_deveptx       usb_dev_driver.o
    0x00004c8e   0x00000002   PAD
    0x00004c90   0x00000044   Code   RO         3156    i.usb_devinten      hc32_ll_usb.o
    0x00004cd4   0x0000007e   Code   RO         3157    i.usb_devmodeinit   hc32_ll_usb.o
    0x00004d52   0x00000026   Code   RO         3832    i.usb_enumfinish_isr  usb_dev_int.o
    0x00004d78   0x0000003c   Code   RO         3158    i.usb_ep0activate   hc32_ll_usb.o
    0x00004db4   0x00000022   Code   RO         3733    i.usb_ep0outstart   usb_dev_driver.o
    0x00004dd6   0x00000002   PAD
    0x00004dd8   0x00000024   Code   RO         3159    i.usb_ep0revcfg     hc32_ll_usb.o
    0x00004dfc   0x00000104   Code   RO         3160    i.usb_ep0transbegin  hc32_ll_usb.o
    0x00004f00   0x0000005c   Code   RO         3161    i.usb_epactive      hc32_ll_usb.o
    0x00004f5c   0x00000060   Code   RO         3162    i.usb_epdeactive    hc32_ll_usb.o
    0x00004fbc   0x00000160   Code   RO         3163    i.usb_epntransbegin  hc32_ll_usb.o
    0x0000511c   0x0000004c   Code   RO         3944    i.usb_getconfig     usb_dev_stdreq.o
    0x00005168   0x00000102   Code   RO         3945    i.usb_getdesc       usb_dev_stdreq.o
    0x0000526a   0x00000002   PAD
    0x0000526c   0x00000018   Code   RO         3946    i.usb_getintf       usb_dev_stdreq.o
    0x00005284   0x00000014   Code   RO         3947    i.usb_getlength     usb_dev_stdreq.o
    0x00005298   0x00000014   Code   RO         3833    i.usb_getoepintbit  usb_dev_int.o
    0x000052ac   0x00000048   Code   RO         3948    i.usb_getstatus     usb_dev_stdreq.o
    0x000052f4   0x0000004e   Code   RO         3949    i.usb_getstring     usb_dev_stdreq.o
    0x00005342   0x00000002   PAD
    0x00005344   0x00000104   Code   RO         3834    i.usb_inep_isr      usb_dev_int.o
    0x00005448   0x000000ba   Code   RO         3735    i.usb_initdev       usb_dev_driver.o
    0x00005502   0x00000064   Code   RO         3166    i.usb_initusbcore   hc32_ll_usb.o
    0x00005566   0x00000002   PAD
    0x00005568   0x0000001c   Code   RO         3835    i.usb_isoinincomplt_isr  usb_dev_int.o
    0x00005584   0x00000010   Code   RO         3561    i.usb_isoinincomplt_process  usb_dev_core.o
    0x00005594   0x0000001c   Code   RO         3836    i.usb_isooutincomplt_isr  usb_dev_int.o
    0x000055b0   0x00000010   Code   RO         3562    i.usb_isooutincomplt_process  usb_dev_core.o
    0x000055c0   0x000000c2   Code   RO         3837    i.usb_isr_handler   usb_dev_int.o
    0x00005682   0x00000012   Code   RO          279    i.usb_mdelay        usb_bsp.o
    0x00005694   0x00000034   Code   RO         3167    i.usb_modeset       hc32_ll_usb.o
    0x000056c8   0x00000076   Code   RO         3736    i.usb_opendevep     usb_dev_driver.o
    0x0000573e   0x00000002   PAD
    0x00005740   0x00000160   Code   RO         3838    i.usb_outep_isr     usb_dev_int.o
    0x000058a0   0x00000044   Code   RO         3950    i.usb_parsesetupreq  usb_dev_stdreq.o
    0x000058e4   0x00000026   Code   RO         3839    i.usb_rddevinep     usb_dev_int.o
    0x0000590a   0x00000010   Code   RO         3840    i.usb_rdineptxfspcavail  usb_dev_int.o
    0x0000591a   0x0000002c   Code   RO         3168    i.usb_rdpkt         hc32_ll_usb.o
    0x00005946   0x00000060   Code   RO         3737    i.usb_readytorx     usb_dev_driver.o
    0x000059a6   0x00000002   PAD
    0x000059a8   0x00000098   Code   RO         3841    i.usb_reset_isr     usb_dev_int.o
    0x00005a40   0x0000003c   Code   RO         3842    i.usb_resume_isr    usb_dev_int.o
    0x00005a7c   0x0000008c   Code   RO         3843    i.usb_rxstsqlvl_isr  usb_dev_int.o
    0x00005b08   0x00000034   Code   RO         3844    i.usb_sessionrequest_isr  usb_dev_int.o
    0x00005b3c   0x00000050   Code   RO         3951    i.usb_setaddr       usb_dev_stdreq.o
    0x00005b8c   0x000000d4   Code   RO         3952    i.usb_setconfig     usb_dev_stdreq.o
    0x00005c60   0x00000050   Code   RO         3171    i.usb_setepstall    hc32_ll_usb.o
    0x00005cb0   0x00000058   Code   RO         3953    i.usb_setfeature    usb_dev_stdreq.o
    0x00005d08   0x000000dc   Code   RO         3172    i.usb_setregaddr    hc32_ll_usb.o
    0x00005de4   0x00000052   Code   RO         3563    i.usb_setup_process  usb_dev_core.o
    0x00005e36   0x00000052   Code   RO         3738    i.usb_shutdevep     usb_dev_driver.o
    0x00005e88   0x0000001c   Code   RO         3845    i.usb_sof_isr       usb_dev_int.o
    0x00005ea4   0x00000018   Code   RO         3564    i.usb_sof_process   usb_dev_core.o
    0x00005ebc   0x0000005e   Code   RO         3739    i.usb_stalldevep    usb_dev_driver.o
    0x00005f1a   0x0000008a   Code   RO         3954    i.usb_standarddevreq  usb_dev_stdreq.o
    0x00005fa4   0x000001a4   Code   RO         3955    i.usb_standardepreq  usb_dev_stdreq.o
    0x00006148   0x00000076   Code   RO         3956    i.usb_standarditfreq  usb_dev_stdreq.o
    0x000061be   0x00000002   PAD
    0x000061c0   0x0000005c   Code   RO         3846    i.usb_susp_isr      usb_dev_int.o
    0x0000621c   0x00000054   Code   RO         3173    i.usb_txfifoflush   hc32_ll_usb.o
    0x00006270   0x00000040   Code   RO          280    i.usb_udelay        usb_bsp.o
    0x000062b0   0x00000094   Code   RO         3847    i.usb_wrblanktxfifo  usb_dev_int.o
    0x00006344   0x00000032   Code   RO         3174    i.usb_wrpkt         hc32_ll_usb.o
    0x00006376   0x00000002   PAD
    0x00006378   0x000000a4   Code   RO          197    i.vcp_ctrlpare      cdc_data_process.o
    0x0000641c   0x00000002   Code   RO          198    i.vcp_deinit        cdc_data_process.o
    0x0000641e   0x00000002   PAD
    0x00006420   0x0000009c   Code   RO          199    i.vcp_init          cdc_data_process.o
    0x000064bc   0x0000002c   Code   RO          200    i.vcp_rxdata        cdc_data_process.o
    0x000064e8   0x00000060   Code   RO          201    i.vcp_txdata        cdc_data_process.o
    0x00006548   0x00000058   Data   RO          202    .constdata          cdc_data_process.o
    0x000065a0   0x00000010   Data   RO         2928    .constdata          hc32_ll_usart.o
    0x000065b0   0x00000042   Data   RO         1699    .conststring        hc32_ll_interrupts.o
    0x000065f2   0x00000002   PAD
    0x000065f4   0x00000020   Data   RO         4477    Region$$Table       anon$$obj.o


    Execution Region RW_IRAM1 (Base: 0x1fff8000, Size: 0x00000008, Max: 0x00000008, ABSOLUTE, UNINIT)

    Base Addr    Size         Type   Attr      Idx    E Section Name        Object

    0x1fff8000   0x00000008   Zero   RW           15    .bss.noinit         system_hc32f460.o


    Execution Region RW_IRAM2 (Base: 0x1fff8008, Size: 0x00001ce0, Max: 0x00026ff8, ABSOLUTE, COMPRESSED[0x000000cc])

    Base Addr    Size         Type   Attr      Idx    E Section Name        Object

    0x1fff8008   0x00000008   Data   RW          203    .data               cdc_data_process.o
    0x1fff8010   0x00000032   Data   RW          361    .data               usb_dev_desc.o
    0x1fff8042   0x00000002   PAD
    0x1fff8044   0x0000001c   Data   RW          430    .data               usb_dev_user.o
    0x1fff8060   0x00000010   Data   RW         3330    .data               hc32_ll_utility.o
    0x1fff8070   0x00000004   Data   RW         3435    .data               ev_hc32f460_lqfp100_v2.o
    0x1fff8074   0x00000030   Data   RW         3565    .data               usb_dev_core.o
    0x1fff80a4   0x0000000d   Data   RW         3957    .data               usb_dev_stdreq.o
    0x1fff80b1   0x00000003   PAD
    0x1fff80b4   0x000000a4   Data   RW         4077    .data               usb_dev_cdc_class.o
    0x1fff8158   0x00000004   Data   RW         4453    .data               mc_w.l(stdout.o)
    0x1fff815c   0x000004c8   Zero   RW           85    .bss                main.o
    0x1fff8624   0x00000080   Zero   RW          360    .bss                usb_dev_desc.o
    0x1fff86a4   0x00000200   Zero   RW         1698    .bss                hc32_ll_interrupts.o
    0x1fff88a4   0x00000840   Zero   RW         4076    .bss                usb_dev_cdc_class.o
    0x1fff90e4   0x00000004   PAD
    0x1fff90e8   0x00000c00   Zero   RW            1    STACK               startup_hc32f460.o


    Execution Region RW_IRAMB (Base: 0x200f0000, Size: 0x00000000, Max: 0x00001000, ABSOLUTE)

    **** No section assigned to this execution region ****


==============================================================================

Image component sizes


      Code (inc. data)   RO Data    RW Data    ZI Data      Debug   Object Name

      1030         88         88          8          0      38484   cdc_data_process.o
       408         24          0          4          0       4294   ev_hc32f460_lqfp100_v2.o
       168         32          0          0          0      18947   hc32_ll.o
      3418        634          0          0          0      20792   hc32_ll_clk.o
       200         74          0          0          0        791   hc32_ll_efm.o
       148         68          0          0          0        749   hc32_ll_fcg.o
      1264        326          0          0          0       8277   hc32_ll_gpio.o
         0          0         32          0          0        874   hc32_ll_icg.o
      2796        596         66          0        512      82532   hc32_ll_interrupts.o
       132         64          0          0          0        669   hc32_ll_pwc.o
       248         66          0          0          0        896   hc32_ll_sram.o
      3914        984         16          0          0      15151   hc32_ll_usart.o
      2148         96          0          0          0      21819   hc32_ll_usb.o
       412        152          0         16          0       5154   hc32_ll_utility.o
        44         18          0          0       1224      33981   main.o
        88         20        640          0       3072        876   startup_hc32f460.o
       224         42          0          0          8     272589   system_hc32f460.o
       464         66          0          0          0       4768   usb_bsp.o
       862        100          0        164       2112       9073   usb_dev_cdc_class.o
       712          6          0         48          0      19124   usb_dev_core.o
       124          0          0          0          0       3584   usb_dev_ctrleptrans.o
       220        110          0         50        128       5398   usb_dev_desc.o
       814          0          0          0          0      16352   usb_dev_driver.o
      1646         54          0          0          0      22862   usb_dev_int.o
      1802         40          0         13          0      14029   usb_dev_stdreq.o
       250        188          0         28          0       4018   usb_dev_user.o

    ----------------------------------------------------------------------
     23576       3848        876        336       7060     626083   Object Totals
         0          0         32          0          0          0   (incl. Generated)
        40          0          2          5          4          0   (incl. Padding)

    ----------------------------------------------------------------------

      Code (inc. data)   RO Data    RW Data    ZI Data      Debug   Library Member Name

        58          0          0          0          0          0   __dczerorl.o
         0          0          0          0          0          0   entry.o
         0          0          0          0          0          0   entry10a.o
         0          0          0          0          0          0   entry11a.o
         8          4          0          0          0          0   entry2.o
         4          0          0          0          0          0   entry5.o
         0          0          0          0          0          0   entry7b.o
         0          0          0          0          0          0   entry8b.o
         8          4          0          0          0          0   entry9a.o
        30          0          0          0          0          0   handlers.o
        36          8          0          0          0         68   init.o
         0          0          0          0          0          0   iusefp.o
        30          0          0          0          0         68   llshl.o
        32          0          0          0          0         68   llushr.o
        36          0          0          0          0         68   memcpya.o
       472         14          0          0          0        184   printf3.o
         0          0          0          4          0          0   stdout.o
        44          0          0          0          0         80   uidiv.o
        98          0          0          0          0         92   uldiv.o
        20          0          0          0          0         68   cfcmple.o
        56          0          0          0          0         88   d2f.o
       222          0          0          0          0        100   ddiv.o
       186          0          0          0          0        176   depilogue.o
        26          0          0          0          0         76   dfltui.o
        24          0          0          0          0         76   dfltul.o
       176          0          0          0          0        140   fadd.o
       110          0          0          0          0        168   fepilogue.o

    ----------------------------------------------------------------------
      1680         30          0          4          0       1520   Library Totals
         4          0          0          0          0          0   (incl. Padding)

    ----------------------------------------------------------------------

      Code (inc. data)   RO Data    RW Data    ZI Data      Debug   Library Name

       856         30          0          4          0        628   mc_w.l
       820          0          0          0          0        892   mf_w.l

    ----------------------------------------------------------------------
      1680         30          0          4          0       1520   Library Totals

    ----------------------------------------------------------------------

==============================================================================


      Code (inc. data)   RO Data    RW Data    ZI Data      Debug   

     25256       3878        876        340       7060     611819   Grand Totals
     25256       3878        876        204       7060     611819   ELF Image Totals (compressed)
     25256       3878        876        204          0          0   ROM Totals

==============================================================================

    Total RO  Size (Code + RO Data)                26132 (  25.52kB)
    Total RW  Size (RW Data + ZI Data)              7400 (   7.23kB)
    Total ROM Size (Code + RO Data + RW Data)      26336 (  25.72kB)

==============================================================================

