:020000040000FA
:10000000E89CFF1F95020000C5020000C702000027
:10001000C9020000CB020000CD0200000000000079
:10002000000000000000000000000000CF020000FF
:10003000D102000000000000D3020000D502000041
:10004000151A0000291A00003D1A0000511A00007C
:10005000651A0000791A00008D1A0000A11A00002C
:10006000B51A0000C91A0000DD1A0000F11A0000DC
:10007000051B0000191B00002D1B0000411B000088
:10008000551B0000691B00007D1B0000911B000038
:10009000A51B0000B91B0000CD1B0000E11B0000E8
:1000A000F51B0000091C00001D1C0000311C000095
:1000B000451C0000591C00006D1C0000811C000044
:1000C000951C0000A91C0000BD1C0000D11C0000F4
:1000D000E51C0000F91C00000D1D0000211D0000A2
:1000E000351D0000491D00005D1D0000711D000050
:1000F000851D0000991D0000AD1D0000C11D000000
:10010000D51D0000E91D0000FD1D0000111E0000AE
:10011000251E0000391E00004D1E0000611E00005B
:10012000751E0000891E00009D1E0000B11E00000B
:10013000C51E0000D91E0000ED1E0000011F0000BA
:10014000151F0000291F00003D1F0000511F000067
:10015000651F0000791F00008D1F0000A11F000017
:10016000B51F0000C91F0000DD1F0000F11F0000C7
:1001700005200000192000002D2000004120000073
:1001800055200000692000007D2000009120000023
:10019000A5200000B9200000CD200000E1200000D3
:1001A000F5200000092100001D2100003121000080
:1001B00045210000592100006D210000812100002F
:1001C00095210000A9210000BD210000D1210000DF
:1001D000E5210000F92100000D220000212200008D
:1001E00035220000492200005D220000712200003B
:1001F0008522000099220000AD220000C1220000EB
:10020000D5220000E9220000FD2200001123000099
:1002100025230000392300004D2300006123000046
:1002200075230000892300009D230000B1230000F6
:10023000C5230000D9230000ED23000001240000A5
:10024000D7020000D7020000D7020000D70200004A
:10025000D7020000D7020000D7020000D70200003A
:10026000D7020000D7020000D7020000D70200002A
:10027000D7020000D7020000D7020000D70200001A
:10028000DFF80CD000F05CFA004800474540000061
:10029000E89CFF1F10484FF0770101600F484FF0B6
:1002A000770101600E484FF4885101600A484FF011
:1002B0007601016009484FF07601016009488047E6
:1002C00009480047FEE7FEE7FEE7FEE7FEE7FEE738
:1002D000FEE7FEE7FEE7FEE7040805400C080540E0
:1002E0000008054081310000810200002DE9F05F27
:1002F0000546002092469B46884606468146402495
:100300001BE0284641464746224600F075F9534611
:100310005A46C01A914110D311461846224600F0A1
:100320005CF92D1A67EB01084F4622460120002197
:1003300000F053F917EB00094E41201EA4F101040F
:10034000DFDC484631462A464346BDE8F09F40EA96
:1003500001039B0703D009E008C9121F08C0042A43
:10036000FAD203E011F8013B00F8013B521EF9D22A
:1003700070470EB540F2334102910021CDE90011E2
:100380000A460B4600F08EF903B000BD0EB540F2F0
:10039000334202920022CDE90022134600F082F996
:1003A00003B000BD01F0004330B421F0004150EA39
:1003B000010206D00A0DA2F56072C1F31301002AF2
:1003C00002DC30BC00207047440F44EAC104C10085
:1003D000E01830BC00EBC25000F01EB9002801DB71
:1003E000C0F10040002901DBC1F1004181427047AA
:1003F00010B50446204602F089FC02F05BFE10BDF9
:10040000BFFFDFFFFFFEFFFFFFFFFFFFFFFFFFFF5D
:10041000FFFFFFFFFFFFFFFFFFFFFFFFFFFFFFFFEC
:10042000F0B480EA0102D40F4200B2EB410F02D2D5
:100430000246084611464A0042D0C30DDDB2C1F360
:10044000C752AD1A202D35DAC1F3160141F400026E
:1004500004B15242C5F1200602FA06F12A411044C5
:10046000B3EBD05F23D0C4B1012DA0EBC35009DCA6
:10047000F0BC4FF0004202EAC352DBB200F50000CC
:1004800000F0D3B8400000F1807000EBC350A0F141
:10049000807040EAD170490009E0490841EAC07122
:1004A000A0EBC35000F50000400800EBC350F0BCC7
:1004B00000F0B2B86142012202EB4101001BF6E7F5
:1004C000F0BC704781F00041AAE780F00040A7E748
:1004D0002DE9F04D81EA030404F0004B21F00045C2
:1004E00014464FF0000A23F0004150EA050220D0E4
:1004F00054EA01021DD0C5F30A570246C5F313039F
:10050000C1F31300C1F30A5640F4801543F480137D
:10051000A7EB0608101BD64608F2FD3873EB050062
:1005200002D308F1010801E092185B41B8F1000F15
:1005300003DA00200146BDE8F08D00204FF4801161
:10054000064684460EE0171B73EB050705D3121B06
:1005500063EB050306434CEA010C49084FEA3000FF
:1005600092185B4150EA0107EDD152EA030012D024
:1005700082EA040083EA0501084305D0101BAB4161
:1005800006D20122002306E000224FF0004302E0E1
:100590006FF0010253101AEB06004CEB085110EB00
:1005A0000A0041EB0B01BDE8F04D00F06CB830B52E
:1005B0000B46014600202022012409E021FA02F521
:1005C0009D4205D303FA02F5491B04FA02F52844BB
:1005D000151EA2F10102F1DC30BD202A04DB203A15
:1005E00000FA02F1002070479140C2F1200320FA86
:1005F00003F3194390407047202A04DB203A21FA84
:1006000002F00021704721FA02F3D040C2F120022B
:1006100091400843194670470029A8BF7047401C05
:10062000490008BF20F00100704710B4B0FA80FC08
:1006300000FA0CF050EA010404BF10BC704749B145
:10064000CCF1200421FA04F411FA0CF118BF0121B5
:1006500021430843A3EB0C01CB1D4FEA00614FEA95
:10066000102042BF002010BC704700EBC350104464
:100670000029A4BF10BC7047401C490008BF20F0EF
:10068000010010BC704710B5141E73F1000408DAA5
:10069000401C41F1000192185B411A4301D120F046
:1006A000010010BD2DE9F04D92469B4611B1B1FA03
:1006B00081F202E0B0FA80F220329046FFF78DFF1F
:1006C00004460F4640EA0A0041EA0B0153465A46E7
:1006D000084313D0114653EA010019D0C8F1400273
:1006E0005046FFF789FF05460E465046594642469A
:1006F000FFF773FF084305D0012004E02046394688
:10070000BDE8F08D0020054346EAE0762C433743F0
:100710000A986305E40AA0EB08000022FD0A44EAF7
:1007200047540A3002D500200146E9E701051019B7
:100730006941DDE9084500196941BDE8F04DA2E7CE
:10074000064C074D06E0E06840F0010394E807001E
:1007500098471034AC42F6D3FFF796FDF4650000DD
:100760001466000030B58C1810F8012B12F00F033E
:1007700001D110F8013B120906D110F8012B03E05A
:1007800010F8015B01F8015B5B1EF9D101E001F893
:10079000013B521EFBD1A142E6D3002030BD000038
:1007A0001FB502A800F008FC684600F0C3FA24490F
:1007B000244800F08CFB00200190019820F01F00DD
:1007C00001901821019861F310200190019820F008
:1007D000704000F180500190019820F0706000F1AD
:1007E00080700190019820F4700000F58010019055
:1007F00000208DF80000019820F0800080300190EA
:10080000684600F03DF900BF202000F095F801286F
:10081000FAD100221146042002F05EF801221146AE
:100820000B2002F059F8502000F058FD4FF44040E2
:1008300001F038F802F002F80520FFF7D9FD1FBDDE
:10084000102211007777770710B50848006840F448
:1008500000600649086000BF0221012000F00EFF81
:100860000028F9D0022000F09DFD10BD7080FF1F10
:1008700000B585B0684601F063F80220ADF80200CB
:100880006A460221012000F0F3FD0221012000F060
:10089000BFFF6A461021022000F0EAFD102102206D
:1008A00000F0B6FF05B000BDF0B58DB007460D46AF
:1008B0006FF00206002D36D024224021042000F0E3
:1008C00029FF0121C80600F089FD01A803F040F9C5
:1008D0004FF400400890002201A9144803F036F8B4
:1008E00000241DE02146114802F0E2FF0CAA29462F
:1008F0000E4802F051FF06467EB90D480C99FFF7ED
:100900006DFD0AD80B490C98FFF768FD05D8012248
:100910000821064802F0E8FD04E04FF0FF36641CB1
:10092000032CDFD900BF30460DB0F0BD00140240EB
:10093000CDCCCCBCCDCCCC3C10B5044600BF24B152
:1009400044F06900692800D104E04FF4B26106A0C8
:1009500000F05CFC00BF13480078204008B1012083
:1009600010BD0020FCE700002E2E2F2E2E2F2E2E45
:100970002F2E2E2F2E2E2F2E2E2F6472697665721B
:10098000732F686333325F6C6C5F64726976657273
:100990002F7372632F686333325F6C6C5F636C6BB1
:1009A0002E6300003C40054070B50446002500BFA2
:1009B0000CB1012C00D104E040F2E6411FA000F090
:1009C00025FC00BF00BF2C48008800F0010000B1EA
:1009D00004E040F2E74119A000F018FC00BF64B940
:1009E0002648007800F00700052801D1C54322E021
:1009F00001202249091D08701DE02048DA300068F6
:100A0000C0F3C01030B94FF48051082000F0BCFA98
:100A1000054605E04FF48051012000F0B5FA054687
:100A20004DB900201549091D08704FF48051202050
:100A300000F0AAFA0546284670BD00002E2E2F2E83
:100A40002E2F2E2E2F2E2E2F2E2E2F2E2E2F647247
:100A500069766572732F686333325F6C6C5F6472A2
:100A6000697665722F7372632F686333325F6C6CC3
:100A70005F636C6B2E630000FE430540264005401B
:100A80002DE9F041044614B96FF002061FE100BFE2
:100A90002079C0F3C01018B12079C0F3C01000B1A4
:100AA00004E040F2B9418BA000F0B0FB00BF00BFF2
:100AB000207900F01F00401C182805D8207900F08C
:100AC0001F00401C00B104E040F2BA4181A000F0D8
:100AD0009DFB00BF00BF6068C0F30820401CB0F55C
:100AE000F07F06D86068C0F30820401C142800D3AB
:100AF00004E040F2BB4177A000F088FB00BF00BFDC
:100B00000121606801EB1070102805D8606801EBC6
:100B10001070022800D304E040F2BC416DA000F048
:100B200075FB00BF2079C0F3C01008B9784901E017
:100B300078480168207900F01F00401CB1FBF0F7F5
:100B40006068C0F30820401C00FB07F500BF724836
:100B5000874203D87148874200D304E040F2C14184
:100B60005CA000F053FB00BF00BF6D48854203D876
:100B70004010854200D304E040F2C24155A000F08D
:100B800045FB00BF00BF0121606801EB1070B5FBA1
:100B9000F0F06449884209D80121606801EB1070C7
:100BA000B5FBF0F06049884200D304E040F2C34155
:100BB00048A000F02BFB00BF00BF6068C0F30360DB
:100BC000401C102806D86068C0F30360401C02284F
:100BD00000D304E040F2C4413EA000F017FB00BF88
:100BE00000BF6068C0F30350401C102806D860683E
:100BF000C0F30350401C022800D304E040F2C5417A
:100C000034A000F003FB00BF00BF6068C0F30350D6
:100C1000401CB5FBF0F04349884209D86068C0F336
:100C20000350401CB5FBF0F03F49884200D304E07C
:100C300040F2C64127A000F0E9FA00BF00BF60689B
:100C4000C0F30360401CB5FBF0F03649884209D878
:100C50006068C0F30360401CB5FBF0F03249884285
:100C600000D304E040F2C7411AA000F0CFFA00BF61
:100C700000BF2078012801D0207800B904E040F2BC
:100C8000C94114A000F0C2FA00BF00BF2748008885
:100C900000F0010000B104E040F2CA410DA000F0F4
:100CA000B5FA00BF2079C1092148006861F3C71077
:100CB0001F49086060680860207820B90120FFF7AC
:100CC00073FE064603E00020FFF76EFE0646304640
:100CD000BDE8F0812E2E2F2E2E2F2E2E2F2E2E2FD2
:100CE0002E2E2F2E2E2F647269766572732F6863F5
:100CF00033325F6C6C5F6472697665722F737263F6
:100D00002F686333325F6C6C5F636C6B2E63000023
:100D100000127A000480FF1F40787D0140420F00DE
:100D200000389C1C00C2EB0BC0E1E400FE43054010
:100D3000004105400146002009B9C01E22E0002202
:100D40004A604A6822F080024A604A6822F01F0224
:100D50004A6013234A6863F310224A604A6822F00B
:100D6000704202F180524A604A6822F0706202F1D9
:100D700080724A604A6822F4700202F580124A606A
:100D800001220A707047000070B50446002500BFBC
:100D90000CB1012C00D104E040F24A511AA000F03D
:100DA00035FA00BF00BF2748008800F0010000B1FD
:100DB00004E040F24B5114A000F028FA00BF1CB927
:100DC0000120214908701CE01F48D2300068C0F3A0
:100DD000C01030B94FF48051082000F0D5F8054616
:100DE00005E04FF48051012000F0CEF8054645B9EA
:100DF0000020154908704FF48051402000F0C4F8DD
:100E00000546284670BD00002E2E2F2E2E2F2E2E8A
:100E10002F2E2E2F2E2E2F2E2E2F64726976657276
:100E2000732F686333325F6C6C5F647269766572CE
:100E30002F7372632F686333325F6C6C5F636C6B0C
:100E40002E630000FE4305402E40054070B5044669
:100E500014B96FF0020510E0204601F0BFFB08490D
:100E600060680860207820B90120FFF78DFF0546F3
:100E700003E00020FFF788FF0546284670BD00000C
:100E8000044105400146002009B9C01E1EE00022B1
:100E90004A6001220A704A6822F0704202F18052D0
:100EA0004A604A6822F0706202F180724A604A68C1
:100EB00022F4700202F580124A6013234A6863F339
:100EC00010224A604A6822F01F024A60704770B5DB
:100ED00004460D462946204601F07AFD02F0EAF864
:100EE00070BD000010B5044600BF202C0FD0302C80
:100EF0000DD0402C0BD0802C09D0902C07D0A02CEA
:100F000005D0B02C03D0C02C01D0D02C00D104E0EF
:100F100040F23E610BA000F079F900BF00BF184815
:100F2000008800F0010000B104E040F23F6105A03C
:100F300000F06CF900BF134804701E2000F0AEF9F9
:100F400010BD00002E2E2F2E2E2F2E2E2F2E2E2FA8
:100F50002E2E2F2E2E2F647269766572732F686382
:100F600033325F6C6C5F6472697665722F73726383
:100F70002F686333325F6C6C5F636C6B2E630000B1
:100F8000FE43054024400540F8B505460C460020C8
:100F900000906FF0070609E02846FFF7CDFC012816
:100FA00001D1002605E00098401C00900098A04266
:100FB000F2D900BF3046F8BD0146002009B9C01E75
:100FC00008E001220A7000228A704A708022CA70EA
:100FD00005220A71704700002DE9F04F8FB083465B
:100FE000894601200990801E089000BF7348834500
:100FF00008D07348834505D07248834502D07248B3
:10100000834500D104E040F29D1170A000F0FEF88D
:1010100000BFD9F80040D9F80460002C7ED0002E23
:10102000FCD0B000B4FBF0F0451EFF2D7ED8C9F80F
:101030000850B000B4FBF0F100FB11400B900B988E
:1010400020B90020C9F8100008906FE000206B1C48
:1010500040414FF0040C0022A3FB0C1E00FB0CE0EF
:1010600003FB02020020A1FB067302FB063201FB18
:1010700000284FF480710022A7FB01C308FB013157
:1010800007FB021052084FEA34031CEB03015041E6
:1010900022460023CDE9061008460799FFF726F9F6
:1010A0008021B0EB010ABAF17F0F3DD8C9F80CA03E
:1010B00048004FF0000C3B46A3FB002E08FB00E06D
:1010C00007FB0C081746002080221AEB020240EBB7
:1010D00000030021A2FB040C03FB04C302FB01314B
:1010E000CDE90C0138464146FFF750F9CDE9020140
:1010F000DDE90C01FFF74AF9CDE90001DDE9022342
:10110000FFF7E6F9CDE90401FFF74CF94FF07E5106
:101110000790FFF7D7F90A900A9800E045E0C9F870
:1011200010000020089001E0002009900998E0BB21
:1011300004EB84004000B100B0FBF1F0401D0A2137
:10114000B0FBF1F0451EFF2D34D8C9F8085000203F
:1011500015F1010C404104230022ACFB031E00FBEF
:1011600003E00CFB02020023A1FB067C02FB06C28B
:1011700001FB032838464146FFF708F9CDE9020193
:101180002046FFF7F6F8CDE90001DDE90223FFF77D
:101190009FF9CDE90401FFF705F94FF07E51079063
:1011A000FFF790F90A900A9800E003E0C9F81000F0
:1011B0000020089008980FB0BDE8F08F00D00140E3
:1011C00000D4014000100240001402402E2E2F2EA9
:1011D0002E2F2E2E2F2E2E2F2E2E2F2E2E2F6472B0
:1011E00069766572732F686333325F6C6C5F64720B
:1011F000697665722F7372632F686333325F6C6C2C
:101200005F75736172742E630000000004460D4622
:101210002A46214602A002F089FD00BFFEE7000039
:1012200057726F6E6720706172616D65746572735D
:101230002076616C75653A2066696C65202573209F
:101240006F6E206C696E652025640D0A0000000039
:1012500038B50246002300250095D81E00BF0D4D6D
:101260002D682C4600BF0C4D2D68294689B105E03C
:101270000D6805F08003009D6D1C0095009DA54242
:1012800001D8002BF4D013B18A80002001E06FF068
:10129000070038BD6C80FF1F6880FF1F08B50C4930
:1012A000096AC1F302630B490968D9400A4B194422
:1012B000491EB1FBF3F206E0009200BF00994B1EFD
:1012C00000930029FAD1011EA0F10100F4D108BD5C
:1012D000004005400080FF1F8096980070B50446CE
:1012E000002500BF1D480068012800D104E04FF42C
:1012F00089711BA0FFF78AFF00BF00BFF02C00D848
:1013000004E040F2131116A0FFF780FF00BF13485E
:101310000830006820F0F00004F0F00108430F49A5
:101320000831086010E06D1C1C48006AC0F30261BF
:101330001B480068C84044F62061B0FBF1F0A842A9
:1013400002D26FF0070070BD04480830006800F05A
:10135000F000A042E7D10020F5E7000000040140C2
:101360002E2E2F2E2E2F2E2E2F2E2E2F2E2E2F2E98
:101370002E2F647269766572732F686333325F6CE7
:101380006C5F6472697665722F7372632F68633362
:10139000325F6C6C5F65666D2E6300000040054037
:1013A0000080FF1F10B5044600BF3CB14FF6FF7030
:1013B00020434FF6FF71884200D104E040F20A2139
:1013C0000448FFF723FF00BF0348806D2043024914
:1013D000886510BDB06500000010054070B504467A
:1013E0000D4600BF2CB1114820431049884200D15E
:1013F00003E084210EA0FFF709FF00BF00BF0DB17D
:10140000012D00D103E0852109A0FFF7FFFE00BFF9
:10141000012D05D115484068A0431449486004E0F7
:101420001248406820431149486070BD79FD0F0F94
:101430002E2E2F2E2E2F2E2E2F2E2E2F2E2E2F2EC7
:101440002E2F647269766572732F686333325F6C16
:101450006C5F6472697665722F7372632F68633391
:10146000325F6C6C5F6663672E630000008004402F
:101470002DE9F05F05460E4614464FF0000B14B9F7
:101480006FF0020BD7E000BF6C48008800F001004D
:1014900000B103E0FE216AA0FFF7B8FE00BF00BF65
:1014A0004DB1012D07D0022D05D0032D03D0042D01
:1014B00001D0052D00D103E0FF2161A0FFF7A6FEBA
:1014C00000BF00BF16B1B0B200B104E04FF48071AC
:1014D0005BA0FFF79BFE00BF00BF208810B12088F3
:1014E000012800D104E040F2011155A0FFF78EFE63
:1014F00000BF00BF608810B16088022800D104E0FE
:101500004FF481714EA0FFF781FE00BF00BFA0889D
:1015100010B1A088042800D104E040F2031148A0D3
:10152000FFF774FE00BF00BFE08828B1E0881028F4
:1015300002D0E088202800D104E04FF4827140A05E
:10154000FFF764FE00BF00BF208918B12089B0F505
:10155000804F00D104E040F2051139A0FFF756FE9C
:1015600000BF00BF608910B16089402800D104E04D
:101570004FF4837132A0FFF749FE00BF00BFA0897E
:1015800018B1A089B0F5007F00D104E040F2071146
:101590002BA0FFF73BFE00BF00BFE08918B1E08938
:1015A000B0F5805F00D104E04FF4847124A0FFF710
:1015B0002DFE00BF00BF208A18B1208AB0F5004F71
:1015C00000D104E040F209111DA0FFF71FFE00BF8B
:1015D00000272DE006F0010028B320886188084329
:1015E000A1880843E188084361890843A189084329
:1015F000E1890843218940EA010A45F27728208AD7
:1016000040EA0A0A48F400480C48001D00EB851027
:1016100000EB8709B9F8000020EA08000AEA08018F
:101620000843A9F80000761006B903E0781CC7B299
:10163000102FCFD300BF5846BDE8F09FFC3B0540BC
:101640002E2E2F2E2E2F2E2E2F2E2E2F2E2E2F2EB5
:101650002E2F647269766572732F686333325F6C04
:101660006C5F6472697665722F7372632F6863337F
:10167000325F6C6C5F6770696F2E630070B50446F3
:101680000D4600BF4CB1012C07D0022C05D0032C15
:1016900003D0042C01D0052C00D104E040F2FD1150
:1016A0000CA0FFF7B3FD00BF00BF15B1A8B200B199
:1016B00004E04FF4FF7107A0FFF7A8FD00BF144935
:1016C00001EB0410B0F80008284008B1012070BDFB
:1016D0000020FCE72E2E2F2E2E2F2E2E2F2E2E2FDB
:1016E0002E2E2F2E2E2F647269766572732F6863EB
:1016F00033325F6C6C5F6472697665722F737263EC
:101700002F686333325F6C6C5F6770696F2E6300A4
:10171000003005402DE9F04104460D46164600BF55
:101720004CB1012C07D0022C05D0032C03D0042C83
:1017300001D0052C00D104E040F27B1124A0FFF77A
:1017400065FD00BF00BF15B1A8B200B104E04FF4C1
:10175000BE711FA0FFF75AFD00BF00BF0F2E03D9B7
:10176000202E02D33B2E00D804E040F27D1118A0B9
:10177000FFF74CFD00BF00BF2448008800F00100C7
:1017800000B104E04FF4BF7111A0FFF73FFD00BFAF
:10179000002717E005F0010078B11C48801D00EB20
:1017A000841000EB8708B8F800004FF6C0710840BD
:1017B00006F03F010843A8F800006D1005B903E0EA
:1017C000781CC7B2102FE5D300BFBDE8F081000040
:1017D0002E2E2F2E2E2F2E2E2F2E2E2F2E2E2F2E24
:1017E0002E2F647269766572732F686333325F6C73
:1017F0006C5F6472697665722F7372632F686333EE
:10180000325F6C6C5F6770696F2E6300FC3B054054
:1018100070B504460D4600BF4CB1012C07D0022C18
:1018200005D0032C03D0042C01D0052C00D104E0FA
:1018300040F237210BA0FFF7E9FC00BF00BF15B154
:10184000A8B200B104E04FF40E7106A0FFF7DEFC71
:1018500000BF1348102101FB040630882843308064
:1018600070BD00002E2E2F2E2E2F2E2E2F2E2E2F1F
:101870002E2E2F2E2E2F647269766572732F686359
:1018800033325F6C6C5F6472697665722F7372635A
:101890002F686333325F6C6C5F6770696F2E630013
:1018A0000838054010B5044600BF44B1B4F5804F78
:1018B00005D0B4F5004F02D0B4F5404F00D104E09C
:1018C00040F2D9110EA0FFF7A1FC00BF00BF1B48DA
:1018D000008800F0010000B104E04FF4ED7108A0B1
:1018E000FFF794FC00BF1548001F0088C0F30D00EF
:1018F00004F4404108431149091F088010BD00004D
:101900002E2E2F2E2E2F2E2E2F2E2E2F2E2E2F2EF2
:101910002E2F647269766572732F686333325F6C41
:101920006C5F6472697665722F7372632F686333BC
:10193000325F6C6C5F6770696F2E6300FC3B054023
:101940000146002009B9C01E09E000220A804A8031
:10195000CA800A820A814A818A81CA818A80704744
:1019600070B5044600260CB9F61E4BE000BF208877
:10197000B0F5007F00DA03E0CB212348FFF746FCF7
:1019800000BF2088400900EB4000202101EB40000F
:10199000B4F9021088420AD82088400900EB4000C0
:1019A000252101EB4000B4F90210884206D2B4F9B7
:1019B0000200202802D36FF0020623E0608813495A
:1019C000042212FB00152868C0F3080040F2FF1142
:1019D000884208D120882860B4F902100C4A606857
:1019E00042F821000EE020882968C1F308018842EE
:1019F00006D1B4F90210064A606842F8210001E0FD
:101A00006FF00106304670BDB06500005C10054007
:101A1000A486FF1F10B5034908688047BFF34F8FA6
:101A200010BD0000A486FF1F10B503494868804719
:101A3000BFF34F8F10BD0000A486FF1F10B50349F0
:101A400088688047BFF34F8F10BD0000A486FF1F3A
:101A500010B50349C8688047BFF34F8F10BD000021
:101A6000A486FF1F10B5034908698047BFF34F8F55
:101A700010BD0000A486FF1F10B5034948698047C8
:101A8000BFF34F8F10BD0000A486FF1F10B50349A0
:101A900088698047BFF34F8F10BD0000A486FF1FE9
:101AA00010B50349C8698047BFF34F8F10BD0000D0
:101AB000A486FF1F10B50349086A8047BFF34F8F04
:101AC00010BD0000A486FF1F10B50349486A804777
:101AD000BFF34F8F10BD0000A486FF1F10B5034950
:101AE000886A8047BFF34F8F10BD0000A486FF1F98
:101AF00010B50349C86A8047BFF34F8F10BD00007F
:101B0000A486FF1F10B50349086B8047BFF34F8FB2
:101B100010BD0000A486FF1F10B50349486B804725
:101B2000BFF34F8F10BD0000A486FF1F10B50349FF
:101B3000886B8047BFF34F8F10BD0000A486FF1F46
:101B400010B50349C86B8047BFF34F8F10BD00002D
:101B5000A486FF1F10B50349086C8047BFF34F8F61
:101B600010BD0000A486FF1F10B50349486C8047D4
:101B7000BFF34F8F10BD0000A486FF1F10B50349AF
:101B8000886C8047BFF34F8F10BD0000A486FF1FF5
:101B900010B50349C86C8047BFF34F8F10BD0000DC
:101BA000A486FF1F10B50349086D8047BFF34F8F10
:101BB00010BD0000A486FF1F10B50349486D804783
:101BC000BFF34F8F10BD0000A486FF1F10B503495F
:101BD000886D8047BFF34F8F10BD0000A486FF1FA4
:101BE00010B50349C86D8047BFF34F8F10BD00008B
:101BF000A486FF1F10B50349086E8047BFF34F8FBF
:101C000010BD0000A486FF1F10B50349486E804731
:101C1000BFF34F8F10BD0000A486FF1F10B503490E
:101C2000886E8047BFF34F8F10BD0000A486FF1F52
:101C300010B50349C86E8047BFF34F8F10BD000039
:101C4000A486FF1F10B50349086F8047BFF34F8F6D
:101C500010BD0000A486FF1F10B50349486F8047E0
:101C6000BFF34F8F10BD0000A486FF1F10B50349BE
:101C7000886F8047BFF34F8F10BD0000A486FF1F01
:101C800010B50349C86F8047BFF34F8F10BD0000E8
:101C9000A486FF1F10B50349D1F880008047BFF329
:101CA0004F8F10BDA486FF1F10B50349D1F88400E3
:101CB0008047BFF34F8F10BDA486FF1F10B50349A7
:101CC000D1F888008047BFF34F8F10BDA486FF1F57
:101CD00010B50349D1F88C008047BFF34F8F10BD7A
:101CE000A486FF1F10B50349D1F890008047BFF3C9
:101CF0004F8F10BDA486FF1F10B50349D1F8940083
:101D00008047BFF34F8F10BDA486FF1F10B5034956
:101D1000D1F898008047BFF34F8F10BDA486FF1FF6
:101D200010B50349D1F89C008047BFF34F8F10BD19
:101D3000A486FF1F10B50349D1F8A0008047BFF368
:101D40004F8F10BDA486FF1F10B50349D1F8A40022
:101D50008047BFF34F8F10BDA486FF1F10B5034906
:101D6000D1F8A8008047BFF34F8F10BDA486FF1F96
:101D700010B50349D1F8AC008047BFF34F8F10BDB9
:101D8000A486FF1F10B50349D1F8B0008047BFF308
:101D90004F8F10BDA486FF1F10B50349D1F8B400C2
:101DA0008047BFF34F8F10BDA486FF1F10B50349B6
:101DB000D1F8B8008047BFF34F8F10BDA486FF1F36
:101DC00010B50349D1F8BC008047BFF34F8F10BD59
:101DD000A486FF1F10B50349D1F8C0008047BFF3A8
:101DE0004F8F10BDA486FF1F10B50349D1F8C40062
:101DF0008047BFF34F8F10BDA486FF1F10B5034966
:101E0000D1F8C8008047BFF34F8F10BDA486FF1FD5
:101E100010B50349D1F8CC008047BFF34F8F10BDF8
:101E2000A486FF1F10B50349D1F8D0008047BFF347
:101E30004F8F10BDA486FF1F10B50349D1F8D40001
:101E40008047BFF34F8F10BDA486FF1F10B5034915
:101E5000D1F8D8008047BFF34F8F10BDA486FF1F75
:101E600010B50349D1F8DC008047BFF34F8F10BD98
:101E7000A486FF1F10B50349D1F8E0008047BFF3E7
:101E80004F8F10BDA486FF1F10B50349D1F8E400A1
:101E90008047BFF34F8F10BDA486FF1F10B50349C5
:101EA000D1F8E8008047BFF34F8F10BDA486FF1F15
:101EB00010B50349D1F8EC008047BFF34F8F10BD38
:101EC000A486FF1F10B50349D1F8F0008047BFF387
:101ED0004F8F10BDA486FF1F10B50349D1F8F40041
:101EE0008047BFF34F8F10BDA486FF1F10B5034975
:101EF000D1F8F8008047BFF34F8F10BDA486FF1FB5
:101F000010B50349D1F8FC008047BFF34F8F10BDD7
:101F1000A486FF1F10B50349D1F800018047BFF325
:101F20004F8F10BDA486FF1F10B50349D1F80401DF
:101F30008047BFF34F8F10BDA486FF1F10B5034924
:101F4000D1F808018047BFF34F8F10BDA486FF1F53
:101F500010B50349D1F80C018047BFF34F8F10BD76
:101F6000A486FF1F10B50349D1F810018047BFF3C5
:101F70004F8F10BDA486FF1F10B50349D1F814017F
:101F80008047BFF34F8F10BDA486FF1F10B50349D4
:101F9000D1F818018047BFF34F8F10BDA486FF1FF3
:101FA00010B50349D1F81C018047BFF34F8F10BD16
:101FB000A486FF1F10B50349D1F820018047BFF365
:101FC0004F8F10BDA486FF1F10B50349D1F824011F
:101FD0008047BFF34F8F10BDA486FF1F10B5034984
:101FE000D1F828018047BFF34F8F10BDA486FF1F93
:101FF00010B50349D1F82C018047BFF34F8F10BDB6
:10200000A486FF1F10B50349D1F830018047BFF304
:102010004F8F10BDA486FF1F10B50349D1F83401BE
:102020008047BFF34F8F10BDA486FF1F10B5034933
:10203000D1F838018047BFF34F8F10BDA486FF1F32
:1020400010B50349D1F83C018047BFF34F8F10BD55
:10205000A486FF1F10B50349D1F840018047BFF3A4
:102060004F8F10BDA486FF1F10B50349D1F844015E
:102070008047BFF34F8F10BDA486FF1F10B50349E3
:10208000D1F848018047BFF34F8F10BDA486FF1FD2
:1020900010B50349D1F84C018047BFF34F8F10BDF5
:1020A000A486FF1F10B50349D1F850018047BFF344
:1020B0004F8F10BDA486FF1F10B50349D1F85401FE
:1020C0008047BFF34F8F10BDA486FF1F10B5034993
:1020D000D1F858018047BFF34F8F10BDA486FF1F72
:1020E00010B50349D1F85C018047BFF34F8F10BD95
:1020F000A486FF1F10B50349D1F860018047BFF3E4
:102100004F8F10BDA486FF1F10B50349D1F864019D
:102110008047BFF34F8F10BDA486FF1F10B5034942
:10212000D1F868018047BFF34F8F10BDA486FF1F11
:1021300010B50349D1F86C018047BFF34F8F10BD34
:10214000A486FF1F10B50349D1F870018047BFF383
:102150004F8F10BDA486FF1F10B50349D1F874013D
:102160008047BFF34F8F10BDA486FF1F10B50349F2
:10217000D1F878018047BFF34F8F10BDA486FF1FB1
:1021800010B50349D1F87C018047BFF34F8F10BDD4
:10219000A486FF1F10B50349D1F880018047BFF323
:1021A0004F8F10BDA486FF1F10B50349D1F88401DD
:1021B0008047BFF34F8F10BDA486FF1F10B50349A2
:1021C000D1F888018047BFF34F8F10BDA486FF1F51
:1021D00010B50349D1F88C018047BFF34F8F10BD74
:1021E000A486FF1F10B50349D1F890018047BFF3C3
:1021F0004F8F10BDA486FF1F10B50349D1F894017D
:102200008047BFF34F8F10BDA486FF1F10B5034951
:10221000D1F898018047BFF34F8F10BDA486FF1FF0
:1022200010B50349D1F89C018047BFF34F8F10BD13
:10223000A486FF1F10B50349D1F8A0018047BFF362
:102240004F8F10BDA486FF1F10B50349D1F8A4011C
:102250008047BFF34F8F10BDA486FF1F10B5034901
:10226000D1F8A8018047BFF34F8F10BDA486FF1F90
:1022700010B50349D1F8AC018047BFF34F8F10BDB3
:10228000A486FF1F10B50349D1F8B0018047BFF302
:102290004F8F10BDA486FF1F10B50349D1F8B401BC
:1022A0008047BFF34F8F10BDA486FF1F10B50349B1
:1022B000D1F8B8018047BFF34F8F10BDA486FF1F30
:1022C00010B50349D1F8BC018047BFF34F8F10BD53
:1022D000A486FF1F10B50349D1F8C0018047BFF3A2
:1022E0004F8F10BDA486FF1F10B50349D1F8C4015C
:1022F0008047BFF34F8F10BDA486FF1F10B5034961
:10230000D1F8C8018047BFF34F8F10BDA486FF1FCF
:1023100010B50349D1F8CC018047BFF34F8F10BDF2
:10232000A486FF1F10B50349D1F8D0018047BFF341
:102330004F8F10BDA486FF1F10B50349D1F8D401FB
:102340008047BFF34F8F10BDA486FF1F10B5034910
:10235000D1F8D8018047BFF34F8F10BDA486FF1F6F
:1023600010B50349D1F8DC018047BFF34F8F10BD92
:10237000A486FF1F10B50349D1F8E0018047BFF3E1
:102380004F8F10BDA486FF1F10B50349D1F8E4019B
:102390008047BFF34F8F10BDA486FF1F10B50349C0
:1023A000D1F8E8018047BFF34F8F10BDA486FF1F0F
:1023B00010B50349D1F8EC018047BFF34F8F10BD32
:1023C000A486FF1F10B50349D1F8F0018047BFF381
:1023D0004F8F10BDA486FF1F10B50349D1F8F4013B
:1023E0008047BFF34F8F10BDA486FF1F10B5034970
:1023F000D1F8F8018047BFF34F8F10BDA486FF1FAF
:1024000010B50349D1F8FC018047BFF34F8F10BDD1
:10241000A486FF1F70B504460D46ACB32046FFF7F7
:102420009FFAB4F90200002807DB00F01F02012127
:102430009140164A430942F8231000BFB4F9020044
:102440002946002804DB0A07130E114A135406E03C
:102450000A07160E0F4A00F00F031B1FD65400BFC9
:10246000B4F9020000280DDB00BF00BF00F01F021E
:10247000012191404209920002F1E022C2F80011CC
:1024800000BF00BF00BF00BF70BD000080E200E0E1
:1024900000E400E018ED00E010B5044604F001008F
:1024A00048B100BF40F223101A49086043F21020DF
:1024B000086000BF00BF04F0020028B100BF16484A
:1024C0001649086100BF00BF04F0040030B100BF2E
:1024D0004AF201501249088000BF00BF04F010000A
:1024E00018B14AF2085000F0EBF904F0400018B1BE
:1024F0004AF2035000F0E4F904F0800040B100BF5C
:1025000077200849086007490831086000BF00BF0C
:1025100010BD0000000401400100A5A5008004409A
:10252000FC3B0540040805402DE9F04104460D46FA
:1025300016466FF00207002E24D029462046B047E9
:102540000746A7B900BF1148046000BF0DB90021BC
:1025500008E00F49096AC1F302620E490968D140D7
:10256000B1FBF5F108460C49086000BF0AE04FF0E6
:10257000FF3700BF07B904E040F27D1107A0FEF766
:1025800045FE00BF3846BDE8F08100006880FF1FAF
:10259000004005400080FF1F6C80FF1F2E2E2F2E55
:1025A0002E2F2E2E2F2E2E2F2E2E2F2E2E2F6472CC
:1025B00069766572732F686333325F6C6C5F647227
:1025C000697665722F7372632F686333325F6C6C48
:1025D0005F7574696C6974792E63000070B5044688
:1025E00000BF207900F01F00401C022806D320798C
:1025F00000F01F00401C182800D804E040F22721FA
:1026000076A0FEF703FE00BF00BF6068C0F308209D
:10261000401C142807D36068C0F30820401CB0F5A4
:10262000F07F00D804E04FF40A716CA0FEF7EEFDD5
:1026300000BF00BF6068C0F30350401C022806D3EF
:102640006068C0F30350401C102800D804E040F23A
:10265000292162A0FEF7DAFD00BF00BF6068C0F369
:102660000360401C022806D36068C0F30360401C6E
:10267000102800D804E040F22A2158A0FEF7C6FD39
:1026800000BF00BF0121606801EB1070022805D374
:10269000606801EB1070102800D804E040F22B2194
:1026A0004EA0FEF7B3FD00BF5B480068C0F3C0104A
:1026B00008B95A4901E05A480168207900F01F0022
:1026C000401CB1FBF0F66068C0F30820401C00FB22
:1026D00006F500BF5348864203D35348864200D8CC
:1026E00004E040F231213DA0FEF790FD00BF00BFA5
:1026F0004E48854203D34000854200D804E040F2B2
:10270000322136A0FEF782FD00BF00BF6068C0F333
:102710000350401CB5FBF0F04549884209D360687E
:10272000C0F30350401CB5FBF0F04249884200D88A
:1027300004E040F2332129A0FEF768FD00BF00BF8E
:102740006068C0F30360401CB5FBF0F03849884274
:1027500009D36068C0F30360401CB5FBF0F0354955
:10276000884200D804E04FF40D711CA0FEF74EFD26
:1027700000BF00BF0121606801EB1070B5FBF0F0F5
:102780002B49884209D30121606801EB1070B5FB29
:10279000F0F02849884200D804E040F235210FA02B
:1027A000FEF734FD00BF00BF2078012801D020785B
:1027B00000B904E040F2362108A0FEF727FD00BF73
:1027C00000BF1D48008800F0010000B104E040F2A5
:1027D000372102A0FEF71AFD00BF70BD2E2E2F2E4E
:1027E0002E2F2E2E2F2E2E2F2E2E2F2E2E2F64728A
:1027F00069766572732F686333325F6C6C5F6472E5
:10280000697665722F7372632F686333325F6C6C05
:102810005F636C6B2E6300000041054000127A007C
:102820000480FF1F40420F0040787D01001C4E0EC7
:10283000C0E1E40000C2EB0BFE43054010B500BF51
:102840000F48008800F00200022800D104E040F2A6
:1028500067410CA0FEF7DAFC00BF0948001D0078B4
:1028600000F0C00040F00F000549091D087010205D
:102870000349113108701E20FEF710FD002010BD25
:10288000FE4305402E2E2F2E2E2F2E2E2F2E2E2F96
:102890002E2E2F2E2E2F647269766572732F686329
:1028A00033325F6C6C5F6472697665722F7372632A
:1028B0002F686333325F6C6C5F7077632E63000048
:1028C000034909880143034AA2F8FE137047000038
:1028D000FE430540004005402DE9F04704460F4601
:1028E00090464FF0000900BF24B144F00F000F28BC
:1028F00000D103E0AB2126A0FEF788FC00BF00BF9B
:10290000072F00D803E0AC2121A0FEF77FFC00BF19
:1029100000BFB8F1070F00D803E0AD211CA0FEF7FF
:1029200075FC00BF00BF29480068772800D103E08C
:10293000AE2117A0FEF76AFC00BF24E004F00100FE
:10294000E0B14FEAC960050E281DC6B207FA06F0CD
:1029500008FA05F108430721B1400722AA401143B4
:1029600008400721B1400722AA401143174A121F0D
:1029700012688A4310431549091F0860640809F169
:10298000010000F0FF09002CD8D1BDE8F08700005D
:102990002E2E2F2E2E2F2E2E2F2E2E2F2E2E2F2E52
:1029A0002E2F647269766572732F686333325F6CA1
:1029B0006C5F6472697665722F7372632F6863331C
:1029C000325F6C6C5F7372616D2E630004080540AA
:1029D0007FB505460C460026B84800680390B74806
:1029E00040680290B54880680190B448C068009083
:1029F00000BF04F0E060E8B104F0E060B0F1807F77
:102A000018D004F0E060B0F1007F13D004F0E06073
:102A1000B0F1407F0ED004F0E060B0F1806F09D0DB
:102A200004F0E060B0F1A06F04D004F0E060B0F119
:102A3000C06F00D104E040F2AE21A1A0FEF7E6FB9A
:102A400000BF00BF04F07000B8B104F0700010289F
:102A500013D004F0700020280FD004F0700030284C
:102A60000BD004F07000402807D004F0700050280C
:102A700003D004F07000602800D104E040F2AF21E0
:102A80008FA0FEF7C3FB00BF00BF04F4E020E8B155
:102A900004F4E020B0F5803F18D004F4E020B0F555
:102AA000003F13D004F4E020B0F5403F0ED004F412
:102AB000E020B0F5802F09D004F4E020B0F5A02F7D
:102AC00004D004F4E020B0F5C02F00D104E04FF4AE
:102AD0002C717BA0FEF79AFB00BF00BF04F4E0005E
:102AE000E8B104F4E000B0F5801F18D004F4E00071
:102AF000B0F5001F13D004F4E000B0F5401F0ED075
:102B000004F4E000B0F5800F09D004F4E000B0F563
:102B1000A00F04D004F4E000B0F5C00F00D104E031
:102B200040F2B12166A0FEF771FB00BF00BF04F0C8
:102B30000700B8B104F00700012813D004F0070023
:102B400002280FD004F0070003280BD004F0070080
:102B5000042807D004F00700052803D004F007007C
:102B6000062800D104E040F2B22155A0FEF74EFB4A
:102B700000BF00BF04F4E060E8B104F4E060B0F529
:102B8000807F18D004F4E060B0F5007F13D004F427
:102B9000E060B0F5407F0ED004F4E060B0F5806FE7
:102BA00009D004F4E060B0F5A06F04D004F4E06054
:102BB000B0F5C06F00D104E040F2B32140A0FEF7B1
:102BC00025FB00BF00BF04F4E040E8B104F4E0409E
:102BD000B0F5805F18D004F4E040B0F5005F13D08A
:102BE00004F4E040B0F5405F0ED004F4E040B0F5EE
:102BF000804F09D004F4E040B0F5A04F04D004F4B5
:102C0000E040B0F5C04F00D104E04FF42D712CA08E
:102C1000FEF7FCFA00BF00BF3848284000B104E0CE
:102C200040F2B52126A0FEF7F1FA00BF00BF3448FC
:102C3000008800F0010000B104E040F2B62120A0BD
:102C4000FEF7E4FA00BF2F48007800F007000528DF
:102C500017D1012600BF1948006900F0010000B13A
:102C600004E040F2BD2116A0FEF7D0FA00BF2648CE
:102C700012490860C01248608860C8601E20FEF7D4
:102C80000DFB20482638006AA84304EA05010843E2
:102C90001C49263908621E20FEF700FB012E0BD1CD
:102CA0000649039808600298486001988860009877
:102CB000C8601E20FEF7F2FA7FBD000000800440CD
:102CC0002E2E2F2E2E2F2E2E2F2E2E2F2E2E2F2E1F
:102CD0002E2F647269766572732F686333325F6C6E
:102CE0006C5F6472697665722F7372632F686333E9
:102CF000325F6C6C5F636C6B2E63000077777707D5
:102D0000FE43054026400540EEFAFFFF7FB504462E
:102D100000253048006803902E48406802902D48F6
:102D2000806801902B48C068009000BF4CB1012C16
:102D300007D0022C05D0032C03D0042C01D0052C85
:102D400000D104E04FF4117123A0FEF75FFA00BF39
:102D500000BF3048008800F0010000B104E040F2FC
:102D600045211DA0FEF752FA00BF2B48007800F065
:102D70000700052801D0052C17D1012500BF1548F3
:102D8000006900F0010000B104E040F24D2112A002
:102D9000FEF73CFA00BF21480E490860C0124860A7
:102DA0008860C8601E20FEF779FA1B4804701E2058
:102DB000FEF774FA012D0BD10649039808600298BA
:102DC0004860019888600098C8601E20FEF766FA87
:102DD0007FBD0000008004402E2E2F2E2E2F2E2E81
:102DE0002F2E2E2F2E2E2F2E2E2F64726976657287
:102DF000732F686333325F6C6C5F647269766572DF
:102E00002F7372632F686333325F6C6C5F636C6B1C
:102E10002E630000FE43054026400540EEFAFFFF0A
:102E20002DE9F34F91B08A468D4B0FCB08AC0FC400
:102E30004FF0FF30079000BF8A49119888420BD0AD
:102E400089491198884207D088491198884203D04F
:102E500087491198884200D104E040F2EB1185A027
:102E6000FEF7D4F900BFDAF80040DAF80490002C3D
:102E70007DD0B9F1000FFBD01198406900F46005D6
:102E800000BF5DB1B5F5001F08D0B5F5C00F05D086
:102E9000B5F5200F02D0B5F5400F00D104E040F2A7
:102EA000F11174A0FEF7B2F900BF680D08A931F85E
:102EB000105009FB05F04000B4FBF0F0461EFF2E59
:102EC0000FD8CAF8086009FB05F04000B4FBF0F128
:102ED00000FB11400D900D9820B90020CAF8100099
:102EE00007906FE00220A0FB053200204FF0010C9C
:102EF00016EB0C0C4041A3FB0C1E02FB0CE203FB87
:102F000000220020A1FB097302FB093201FB00280B
:102F10004FF480710022A7FB01C308FB013107FBBE
:102F2000021052084FEA34031CEB030150412246C1
:102F30000023CDE9041008460599FDF7D7F9802153
:102F4000B0EB010BBBF17F0F3CD8CAF80CB04FF4CB
:102F5000807C00223946A1FB0C0E08FB0CE307FB2A
:102F600002380746002080221BEB020200E072E0DC
:102F700040EB00030021A2FB040C03FB04C302FB93
:102F80000131CDE90E0138464146FDF7FFF9CDE9A3
:102F90000201DDE90E01FDF7F9F9CDE90001DDE9F6
:102FA0000223FDF795FACDE90401FDF7FBF94FF097
:102FB0007E510690FDF786FA0C900C98CAF8100026
:102FC000002007900798B0F1FF3F44D104EB840044
:102FD000410009FB05F04000B1FBF0F0401D0A2163
:102FE000B0FBF1F0461EFF2E35D8CAF8086002206B
:102FF000A0FB053200204FF0010C16EB0C0C4041F9
:10300000A3FB0C1E02FB0CE203FB00220023A1FB2E
:10301000097C02FB09C201FB032838464146FDF743
:10302000B5F9CDE902012046FDF7A3F9CDE900018C
:10303000DDE90223FDF74CFACDE90401FDF7B2F911
:103040004FF07E510690FDF73DFA0C900C98CAF8AF
:10305000100000200790079813B0BDE8F08F000023
:10306000A065000000D0014000D4014000100240E3
:10307000001402402E2E2F2E2E2F2E2E2F2E2E2FCE
:103080002E2E2F2E2E2F647269766572732F686331
:1030900033325F6C6C5F6472697665722F73726332
:1030A0002F686333325F6C6C5F75736172742E636B
:1030B0000000000070B52B4D2D6805F001051DB115
:1030C000294D2A4E356002E0294D284E3560294DA4
:1030D0002D7805F00700062840D2DFE800F003084D
:1030E0000C11151A214D2D68234E356037E0234D04
:1030F000214E356033E04FF400451F4E35602EE021
:103100001E4D1D4E35602AE04FF400451A4E3560C5
:1031100025E0184DDA352D68C5F30822154D263DFA
:10312000D5F800512B0F134DDA352D6805F01F042B
:10313000104D263DD5F8005105F080050DB90F4919
:1031400001E00A4D2968651CB1FBF5F5561C754375
:103150005E1CB5FBF6F5084E356000E000BF00BF11
:1031600070BD0000840601400024F4000480FF1FAD
:10317000002D3101264005400080FF1F00127A001B
:1031800000B5FFF797FF00200149086000BD00006F
:1031900008ED00E02DE9F34F91B08A460120099037
:1031A000801E089000BF8C49119888420BD08B4933
:1031B0001198884207D08A491198884203D08949DA
:1031C0001198884200D104E04FF4A37186A0FEF765
:1031D0001DF800BFDAF80040DAF80480002C7CD03B
:1031E000B8F1000FFBD01198C068C0F3C0394FEAA6
:1031F000C800C9F102014843B4FBF0F0471EFF2F9D
:1032000011D8CAF808704FEAC800C9F10201484352
:10321000B4FBF0F100FB11400B900B9820B900209B
:10322000CAF8100008907FE00021D9F1020261EB9A
:10323000010008238C46A2FB031E00FB03E002FBF7
:103240000C0200204FF0010C17EB0C0C40EB0003BC
:10325000A1FB0C0E02FB0CE201FB03220021A0FBF0
:10326000083C02FB08C200FB0120CDE90E30DDE97D
:103270000E21080240EA12601102CDE90E10002072
:1032800040084FEA3403DDE90E125D1840EB0206F8
:103290000020D5F1FF31B04108D222460023284654
:1032A0003146FDF723F8A0F1800B03E0B5FBF4F005
:1032B000A0F1800BBBF17F0F34D8CAF80CB0DDE968
:1032C0000E56002080221BEB020240EB000300217F
:1032D000A2FB040C03FB04C300E079E002FB013114
:1032E000CDE90C0128463146FDF750F8CDE9020141
:1032F000DDE90C01FDF74AF8CDE90001DDE9022323
:10330000FDF7E6F8CDE90401FDF74CF84FF07E51EA
:103310000790FDF7D7F80A900A98CAF81000002025
:10332000089001E0002009900998002850D14FEA48
:10333000C800C9F10201484304EB84014900B1FB14
:10334000F0F0401D0A21B0FBF1F0471EFF2F3FD8DF
:10335000CAF808700021D9F1020261EB01000823CC
:103360008C46A2FB031E00FB03E002FB0C030020C3
:103370004FF0010C17EB0C0C4041A1FB0C2E03FB92
:103380000CE301FB00310023A2FB085C01FB08C138
:1033900002FB031628463146FCF7F8FFCDE902018F
:1033A0002046FCF7E6FFCDE90001DDE90223FDF749
:1033B0008FF8CDE90401FCF7F5FF4FF07E5107903F
:1033C000FDF780F80A900A98CAF8100000200890CB
:1033D000089813B0BDE8F08F00D0014000D4014040
:1033E00000100240001402402E2E2F2E2E2F2E2EC3
:1033F0002F2E2E2F2E2E2F2E2E2F64726976657271
:10340000732F686333325F6C6C5F647269766572C8
:103410002F7372632F686333325F6C6C5F757361F7
:1034200072742E630000000070B504460D4600BFA4
:103430001848844208D01848844205D0174884426E
:1034400002D01748844200D104E040F2DA3115A0DE
:10345000FDF7DCFE00BF00BF2DB122482843214903
:10346000884200D104E040F2DB310EA0FDF7CEFE31
:1034700000BF05F00B0028B1E06805F00B0140EA41
:103480000140E06005F4807018B1E06840F48010FD
:10349000E06070BD00D0014000D401400010024047
:1034A000001402402E2E2F2E2E2F2E2E2F2E2E2F9A
:1034B0002E2E2F2E2E2F647269766572732F6863FD
:1034C00033325F6C6C5F6472697665722F737263FE
:1034D0002F686333325F6C6C5F75736172742E6337
:1034E00000000000EB0101002DE9F04104460D460B
:1034F000164600BF1B48844208D01B48844205D0B2
:103500001A48844202D01A48844200D104E040F2B2
:10351000B33118A0FDF77AFE00BF00BF0EB1012E37
:1035200000D104E04FF46D7112A0FDF76FFE00BFF3
:1035300000BF25B145F0EF00EF2800D104E040F2D4
:10354000B5310CA0FDF762FE00BFAFB247B1012E4E
:1035500003D1E0683843E06002E0E068B843E0602F
:10356000BDE8F08100D0014000D4014000100240CD
:10357000001402402E2E2F2E2E2F2E2E2F2E2E2FC9
:103580002E2E2F2E2E2F647269766572732F68632C
:1035900033325F6C6C5F6472697665722F7372632D
:1035A0002F686333325F6C6C5F75736172742E6366
:1035B000000000000146044A126AC2F30213034AE3
:1035C000126822FA03F07047004005400080FF1F98
:1035D00070B504460D4600BF1348844208D0134816
:1035E000844205D01248844202D01248844200D15D
:1035F00004E040F2C93110A0FDF708FE00BF00BF93
:103600002DB11D4828431C49884200D104E040F2F6
:10361000CA3109A0FDF7FAFD00BF2068284008B1B3
:10362000012070BD0020FCE700D0014000D4014023
:1036300000100240001402402E2E2F2E2E2F2E2E70
:103640002F2E2E2F2E2E2F2E2E2F6472697665721E
:10365000732F686333325F6C6C5F64726976657276
:103660002F7372632F686333325F6C6C5F757361A5
:1036700072742E6300000000EB0101002DE9F0419F
:10368000044600BF1048844208D01048844205D048
:103690000F48844202D00F48844200D104E040F237
:1036A00041210DA0FDF7B2FD00BF2046FFF782FFCC
:1036B0000746A0698007410F012000FA01F5B7FB1A
:1036C000F5F63046BDE8F08100D0014000D401405D
:1036D00000100240001402402E2E2F2E2E2F2E2ED0
:1036E0002F2E2E2F2E2E2F2E2E2F6472697665727E
:1036F000732F686333325F6C6C5F647269766572D6
:103700002F7372632F686333325F6C6C5F75736104
:1037100072742E630000000010B5044600BF0A4812
:10372000844208D00948844205D00948844202D026
:103730000848844200D104E040F2F74106A0FDF7BA
:1037400065FD00BFE08810BD00D0014000D40140FD
:1037500000100240001402402E2E2F2E2E2F2E2E4F
:103760002F2E2E2F2E2E2F2E2E2F647269766572FD
:10377000732F686333325F6C6C5F64726976657255
:103780002F7372632F686333325F6C6C5F75736184
:1037900072742E63000000002DE9F04186B00446EB
:1037A0000E46174600BF06B104E040F22E512CA091
:1037B000FDF72CFD00BF00BF3948844208D03948CE
:1037C000844205D03848844202D03848844200D12F
:1037D00004E040F22F5122A0FDF718FD00BF204663
:1037E000FFF74CFF0190029600200590FF20049007
:1037F000E06800F08078B8F1000F0FD1606900F048
:10380000200028B901A92046FFF7C4FC05460AE0BC
:1038100001A92046FFF704FB054604E001A9204664
:10382000FDF7DAFB05469DB9DDE9031040EA01200A
:103830004FF67F710840A1684FF67F7291430843AD
:10384000A0600498FF2803D0E06840F00050E060DA
:103850000FB105983860284606B0BDE8F081000039
:103860002E2E2F2E2E2F2E2E2F2E2E2F2E2E2F2E73
:103870002E2F647269766572732F686333325F6CC2
:103880006C5F6472697665722F7372632F6863333D
:10389000325F6C6C5F75736172742E6300000000A0
:1038A00000D0014000D4014000100240001402404A
:1038B00070B504460D4600BF1048844208D0104839
:1038C000844205D00F48844202D00F48844200D180
:1038D00004E040F279410DA0FDF798FC00BF00BF65
:1038E000032D00D804E040F27A4108A0FDF78EFCD9
:1038F00000BFA06965F30100A06170BD00D0014068
:1039000000D4014000100240001402402E2E2F2E41
:103910002E2F2E2E2F2E2E2F2E2E2F2E2E2F647248
:1039200069766572732F686333325F6C6C5F6472A3
:10393000697665722F7372632F686333325F6C6CC4
:103940005F75736172742E63000000002DE9F0470B
:1039500005460C4690466FF0020A002C73D000BF5B
:103960006748854208D06748854205D06648854249
:1039700002D06648854200D104E040F2253164A0BF
:10398000FDF744FC00BF00BF2068B0F5805F01D0A8
:10399000206800B904E040F226315DA0FDF736FC56
:1039A00000BF00BFA068B0F5006F01D0A06800B9EB
:1039B00004E040F2273156A0FDF728FC00BF00BF0D
:1039C000A069B0F5C06F05D0A069B0F5806F01D0D7
:1039D000A06900B904E04FF44A714DA0FDF716FC50
:1039E00000BF00BF206918B12069B0F5805F00D129
:1039F00004E040F2293146A0FDF708FC00BF00BFFB
:103A0000606918B16069B0F5005F00D104E040F270
:103A10002A313FA0FDF7FAFB00BF00BFE069B0F517
:103A2000004F01D0E06900B904E040F22B3138A02A
:103A3000FDF7ECFB00BF00BF206AB0F1805F01D052
:103A4000206A08B905E058E04FF44B7130A0FDF74B
:103A5000DDFB00BF00BF606A18B1606AB0F1004FC3
:103A600000D104E040F22D3129A0FDF7CFFB00BFCB
:103A700000BFA06AB0F5007F03D0A06AB0F5807FD8
:103A800000D104E040F22E3121A0FDF7BFFB00BFC2
:103A90002169A0690843216A0843E1690843616A12
:103AA00040EA0106A16820680843616940EA01070D
:103AB000A06AB0F5007F02D14FF4007000E0002052
:103AC0008146EE602F61C5F81490206898B900BF58
:103AD0006068032800D804E04FF44F710CA0FDF794
:103AE00095FB00BF6068A86142462846E168FFF781
:103AF00053FE824601E04FF0000A5046BDE8F087D1
:103B000000D0014000D401400010024000140240E7
:103B10002E2E2F2E2E2F2E2E2F2E2E2F2E2E2F2EC0
:103B20002E2F647269766572732F686333325F6C0F
:103B30006C5F6472697665722F7372632F6863338A
:103B4000325F6C6C5F75736172742E6300000000ED
:103B500001466FF0020089B100220A604A608A6063
:103B60004FF41652CA6000220A614A618A61CA6132
:103B70000A62C2074A62D20D8A62002070470000C2
:103B800070B504460D4600BF0F48844208D00F4868
:103B9000844205D00E48844202D00E48844200D1AF
:103BA00004E040F206510CA0FDF730FB00BF00BF5F
:103BB000B5F5007F00D204E040F2075106A0FDF702
:103BC00025FB00BFA58070BD00D0014000D401409E
:103BD00000100240001402402E2E2F2E2E2F2E2ECB
:103BE0002F2E2E2F2E2E2F2E2E2F64726976657279
:103BF000732F686333325F6C6C5F647269766572D1
:103C00002F7372632F686333325F6C6C5F757361FF
:103C100072742E630000000010B5024801F0D0FC61
:103C200010BD00005C81FF1F10B502210E48FFF798
:103C3000CFFC012803D102210B48FFF7F5FB01213E
:103C40000948FFF7C5FC012803D101210648FFF709
:103C5000EBFB08210448FFF7BBFC012803D1082136
:103C60000148FFF7E1FB10BD0010024010B5202114
:103C70000348FFF7ADFC012801D102F035FC10BD6F
:103C8000001002401CB56846FDF7FCF800208DF8D6
:103C900000000190019820F01F00401C01903B2182
:103CA000019861F310200190019820F4700000F554
:103CB000C0000190019820F0706000F1C060019098
:103CC000019820F07040A0F1E04001906846FDF7B7
:103CD000BDF8B020FDF706F91CBD000038B5002581
:103CE000002416E06A460F490F48FFF755FD50B90A
:103CF00001220C210C48FFF7F7FB012220210A4882
:103D0000FFF7F2FB07E021460748FFF7D1FD601CF3
:103D1000C4B2042CE6D300BF042C00D102252846EF
:103D200038BD000020A10700001002400FB4054B71
:103D300010B503A9044A029800F018F810BC5DF809
:103D400014FB00002D4000005881FF1F02E008C84E
:103D5000121F08C1002AFAD170477047002001E005
:103D600001C1121F002AFBD1704700002DE9FF4F4F
:103D70008BB09A460F460546002606E025280BD054
:103D800052460D9990476D1C761C28780028F5D175
:103D90000FB03046BDE8F08F0024A04601226049F4
:103DA00000E0044315F8013F203B02FA03F008420B
:103DB000F7D128782E2817D115F8010F44F0040404
:103DC0002A280ED06FF02F022878A0F1300109299F
:103DD0000AD808EB880102EB410100EB01086D1CD9
:103DE000F2E757F8048B6D1C287869283ED006DC72
:103DF0000028CDD063280BD0642804D136E0732886
:103E000010D075284BD052460D999047761C85E00E
:103E100017F8040B8DF8000000208DF80100E9462A
:103E2000012003E057F8049B4FF0FF3061074FF08B
:103E3000000401D40AE0641C44450DDA8442FADB34
:103E400019F804100029F6D106E0641C8442FCDB5A
:103E500019F804100029F8D1264404E019F8010BE0
:103E600052460D999047641EF8D257E001CF4FF0AB
:103E70000A0B002802DA40422D2102E0210504D578
:103E80002B218DF82410012103E0E10705D020212A
:103E9000F7E70DF1200908910CE00021F9E701CFC7
:103EA0004FF00A0BF9E75946FCF781FB01F13002AC
:103EB00009F8012D0028F6D1ADEB090000F1200B27
:103EC000600701D44FF00108D84502DDA8EB0B00D4
:103ED00000E000208046002406E009A85246005D6C
:103EE0000D999047641C761C08988442F5DB04E029
:103EF000302052460D999047761CB8F10001A8F188
:103F00000108F5DC05E019F8010B52460D999047C0
:103F1000761CBBF10001ABF1010BF4DC6D1C34E746
:103F20000928010070B58CB0002600252C223C49E0
:103F30006846FCF70CFA3B48007920B1012805D00F
:103F400002280AD105E0002005900BE00020059032
:103F500008E04FF40050059004E0FFF7BFFE022692
:103F6000012500BF00BF012D57D02E48407920B158
:103F7000012805D002280BD106E0002006900CE0B5
:103F80004FF48060069008E04FF4C060069004E0B3
:103F9000FFF7A4FE0226012500BF00BF012D3CD083
:103FA00020488079072802D008280CD102E00020A0
:103FB00004900DE0069810B90020049002E04FF440
:103FC0008050049004E0FFF789FE0226012500BF1F
:103FD00000BF012D21D01348006803900BAA694649
:103FE0001148FFF7B3FC002411E00BAA0E48039917
:103FF000FFF7D2FB28B901222C210B48FFF774FAF6
:1040000007E021460848FFF753FC601CC4B2042CAB
:10401000EBD300BF042C00D1022630460CB070BD9B
:10402000746500000880FF1F0010024070B5044650
:104030000D46E0B2FDF70CF908B9204670BD4FF00F
:10404000FF30FBE71CB5002001900548054B064AF0
:1040500001A90090054800F075FC00BFFEE70000D4
:104060004480FF1FB480FF1F1080FF1F5C81FF1F73
:1040700070B506462C480078012854D02B480068BB
:10408000B0F5006F02D10020284908602748006879
:1040900027490968884203D100202349087042E07B
:1040A0002248006822490968884206D91F480068EA
:1040B000C0F500601F49086006E01D4800681B4904
:1040C0000968401A1B4908601A48006840280ED346
:1040D0001648008885B23F24144800683F301349D1
:1040E0000860144800683F38124908600FE00F4824
:1040F000008885B20F48008884B20C4800680D49DA
:10410000096808440949086000200A49086001203C
:10411000054908700848421923468221304600F0BC
:1041200088FD0648046070BDF880FF1FF080FF1F07
:10413000EC80FF1FF480FF1FE488FF1F0481FF1F36
:10414000014680220B685A6280200E4A0B689A62F0
:1041500040300A68C2F8040100BF40F400130A6846
:10416000C2F8083120300A68C2F80C0100BF0A68A2
:10417000C2F8100100BF40F400130A68C2F81431FD
:10418000704700008000400000BFC268126861F301
:104190000A12C3681A6000BF7047000030B585B0CE
:1041A00004460D46C720FEF777F9FCF7F9FAFCF74D
:1041B0005FFB144A4FF4E1311348FEF7B5F9FFF7FE
:1041C00061FD12A0FFF7B2FD6846FDF7B9FB4FF4A1
:1041D0000040ADF810006A4601110020FDF748F9D3
:1041E0006A464FF480510020FDF742F90A224FF44D
:1041F00000710020FDF78EFA01210802FDF7EEF8AC
:1042000005B030BDA90800000014024055534246D5
:10421000532073746172742021210D0A0000000084
:104220007CB504461E20ADF8020040F21310ADF834
:1042300000001C4801906846FDF792FBBDF90200A2
:10424000002807DB00F01F0201219140164A4309B4
:1042500042F8231000BFBDF902000F21002804DB43
:104260000A07130E114A135406E00A07150E104AE6
:1042700000F00F031B1FD55400BFBDF9020000283A
:104280000DDB00BF00BF00F01F0201219140420979
:10429000920002F1E022C2F8001100BF00BF00BF8F
:1042A0007CBD0000193C000080E200E000E400E07A
:1042B00018ED00E030B502464C78012C05D10D78A0
:1042C00002F10C0454F8250004E00D7802F13C04DE
:1042D00054F82500036823F400138C78032C02D0D3
:1042E0008C78022C01D143F08053036030BD70B54F
:1042F00004460D46E020005D022802D0032811D1BB
:1043000000E000BF688801280BD10021E2200155A0
:10431000D4F8BC042946826820469047204600F025
:10432000D4F803E0204600F0B5F800BF00BF70BD30
:104330007CB505460E46F011019006F07F00009016
:104340009DF8040040B19DF8000000EB800105F1EC
:10435000E40000EBC10407E09DF8000000EB8001E1
:1043600005F5317000EBC1040020E0709DF80000FD
:1043700020709DF8040010B10120607001E0002061
:104380006070214605F10800FFF794FF7CBD000036
:104390003EB50446002002900190009000BF01202D
:1043A00001F066FF2068006901900098401C1849E0
:1043B0000090884201D901200290019800F000404D
:1043C0000028ECD09DF8080000BB00200090019868
:1043D00040F00100019001982168086100BF206849
:1043E000006901900A490098884200D90AE00098C3
:1043F000401C0090012001F03BFF019800F00100FB
:104400000028ECD100BF032001F032FF3EBD0000C8
:10441000A086010038B504460D4600959DF80000C1
:1044200038B1D4F8C014486980470121E120015512
:104430000BE0D4F8C01488698047D4F8BC04416804
:10444000204688470021E120015538BD70B504465B
:104450000E461546C4F8D452C4F8D0520321DE20CB
:1044600001552B4632460021204601F06CFA70BD02
:1044700070B504460E461546C4F8F450C4F8F05022
:104480000221DE2001552B4632460021204600F055
:10449000D0FB70BD10B504468021204601F00EFD12
:1044A0000021204601F00AFD204600F083FC10BDEB
:1044B00010B504460521DE200155002304F2A44274
:1044C0001946204601F03FFA10BD10B504460421FC
:1044D000DE200155002304F2A4421946204600F0D4
:1044E000A8FB10BD70B505460E46002E50D105F153
:1044F000E404DE20405D02283DD1D4E90210884268
:1045000011D9D4E90210401AE060A878012803D13B
:10451000A168606A0844606200212846E368626A14
:1045200000F087FB27E0A1682069B0FBF1F201FBF6
:10453000120080B9A168206988420CD3D4E9040133
:10454000884208D200231A461946284600F071FB1B
:10455000002060610FE0E020405D032808D1D5F81D
:10456000BC04C06820B1D5F8BC04C168284688479F
:104570002846FFF79DFFE320405D012816D10C4936
:104580000868E968486000BF0021E32041550DE05C
:10459000E020405D032809D1D5F8BC04C06928B1EA
:1045A000D5F8BC043146C2692846904770BD00006A
:1045B0007480FF1F70B505460E46002E35D105F5F7
:1045C0003174DE20405D03283DD1D4E902108842D9
:1045D00018D9D4E90210401AE060A878012803D164
:1045E000A168606A08446062D4E90210884201D27E
:1045F000E06800E0A06883B200212846626A01F00A
:10460000A2F920E00020E060E020405D032808D10E
:10461000D5F8BC04006920B1D5F8BC04016928466E
:1046200088472846FFF751FF0DE0E020405D032852
:1046300009D1D5F8BC04006A28B1D5F8BC043146CC
:10464000026A2846904770BD10B5044607480068C6
:10465000FF2809D00648074902680448006801F0AD
:104660008BFEFF200149086010BD0000FC80FF1F89
:104670000081FF1FE480FF1F2DE9F04106460F4631
:1046800023480078012840D12248006888B9224890
:104690000068402809D100231A468221304600F0E4
:1046A000C8FA00201C4908602FE000201849087053
:1046B0002BE01848006840280ED31848008885B2BF
:1046C0003F24164800683F301449086011480068CC
:1046D0003F38104908600FE01048008885B20D4847
:1046E000008884B20D4800680A49096808440B49EB
:1046F00008600020074908600948421923468221C2
:10470000304600F096FA04480460BDE8F0810000ED
:10471000F880FF1FF480FF1F0481FF1FF080FF1F40
:10472000E488FF1F70B504460D4605EB850104F5CE
:10473000317000EBC100008C86B23146044801F0B4
:10474000BDFE4023024A0121204601F0FCF870BD65
:10475000A488FF1F10B504468221204601F06BFBA0
:104760000121204601F067FB8521204601F063FB13
:1047700001F054FE10BD000001464B2008800148A6
:10478000704700000881FF1F10B504460223402235
:104790008221204600F098FF02234022012120467A
:1047A00000F092FF032308228521204600F08CFFB1
:1047B00001F036FE4023034A0121204601F0C3F8F0
:1047C00010BD0000A488FF1F2DE9F04105460C46EE
:1047D0004226324F4FF00008207800F0600020B3EE
:1047E000202851D1E088D0B1207800F0800050B16D
:1047F000E28860782A4901F0BFFDE288284928460E
:10480000FFF736FE10E0607826490860E088264908
:104810000860E28822492846FFF718FE04E0607825
:104820000022114601F0A8FD34E06078062804D08B
:104830000A2816D00B2824D119E060882121B1EB79
:10484000202F08D1154F0937E088422801D942208E
:1048500000E0E0880646324639462846FFF708FE63
:1048600010E0012211492846FFF702FE0AE0A07875
:1048700018B9A0780D49086002E02846FFF70AFE43
:1048800000E000BF00BF05E02846FFF703FE4FF041
:10489000020800BF00BF4046BDE8F0811181FF1F44
:1048A000E480FF1FFC80FF1F0081FF1FE080FF1FCF
:1048B00010B50446074801680068401C054A1060AE
:1048C000052905D10020114608602046FFF7D0FBDE
:1048D000002010BD5481FF1F10B504462246034935
:1048E00003A000F007FD014810BD00002486FF1F53
:1048F00043444320436F6E6669670000F8B5044681
:104900000E46154600959DF80000012809D1D4F8FF
:10491000BC04016820468847D4F8C01488688047E2
:1049200007E09DF8000020B9D4F8BC044168204697
:104930008847F8BD014612200880014870470000F2
:104940002C80FF1F2DE9F04104460F4615461E46F8
:10495000DDF8188039462046FFF720FCC4F8BC6417
:10496000C4F8C084C4F8C4543946204600F06CFD35
:10497000D4F8C014086880470021DE200155204685
:10498000FFF74EFCBDE8F08110B50446224603490E
:1049900003A000F0AFFC014810BD00002486FF1FFB
:1049A00043444320496E746572666163650000008C
:1049B0000146042008800148704700003E80FF1F28
:1049C00010B504462246034903A000F093FC0148B9
:1049D00010BD00002486FF1F58485343000000000C
:1049E00010B504462246034903A000F083FC0148A9
:1049F00010BD00002486FF1F446576696365206F43
:104A0000662043444300000010B50446D4F8C014A7
:104A100008698047DF20015DE020015510BD10B519
:104A20000446002340221946204600F04DFE002394
:104A300040228021204600F047FE0121E020015560
:104A4000D4F8C0144868804710BD000010B5044673
:104A50002246034903A000F04DFC014810BD0000B0
:104A60002486FF1F30303030303030303035304326
:104A70000000000010B50446E020015DDF20015574
:104A80000421E0200155D4F8C014C868804710BD47
:104A900010B502A0FFF74AF910BD00003E3E555385
:104AA000422064657669636520636F6E6E6563742A
:104AB000732E0D0A0000000010B502A0FFF736F9B2
:104AC00010BD00003E3E43444320696E746572662B
:104AD000616365207374617274732E0D0A000000A7
:104AE00010B502A0FFF722F910BD00003E3E55535D
:104AF000422064657669636520726573756D6573C0
:104B00002E0D0A0010B502A0FFF710F910BD00002D
:104B10003E3E5553422064657669636520696E2088
:104B200073757370656E64207374617475732E0D84
:104B30000A00000010B502A0FFF7F8F810BD000051
:104B40003E3E55534220646576696365206469730F
:104B5000636F6E6E65637465642E0D0A000000005D
:104B60007047000010B502A0FFF7E0F810BD00008C
:104B70003E3E555342204465766963652068617303
:104B80002072657365742E0D0A00000010B5024690
:104B9000002023E002F10C0353F820301B6803F0DF
:104BA00000433BB14FF0904402F10C0353F8203026
:104BB0001C6005E0002402F10C0353F820301C6057
:104BC000002402F10C0353F820301C61FF2402F191
:104BD0000C0353F820309C60431CD8B28842D9DBC8
:104BE000002023E002F13C0353F820301B6803F05F
:104BF00000433BB14FF0904402F13C0353F82030A6
:104C00001C6005E0002402F13C0353F820301C60D6
:104C1000002402F13C0353F820301C61FF2402F110
:104C20003C0353F820309C60431CD8B28842D9DB47
:104C300010BD2DE9F84305460F461646984607F085
:104C40007F0000909DF8000000EB800105F1E4007A
:104C500000EBC104012060709DF8000020706662C6
:104C6000A66100202062C4F81C809DF8000030B9C5
:104C7000AA78214605F1080000F0C0F805E0AA78FE
:104C8000214605F1080000F099F9BDE8F88300001D
:104C900010B50A46002100230468A3616FF0804329
:104CA0000468636100BF04686361084B0468A36122
:104CB00000BF0AB941F01001054B194341F0804192
:104CC00003689B690B430468A36110BD0008008062
:104CD00008383C0070B504460D460020616809683C
:104CE00021F4C0516268116000BF2879012806D103
:104CF0006168096821F003016268116005E061687C
:104D0000096841F003016268116000BF687910B959
:104D10002046FFF715FA00BF00206168086161684E
:104D20004861401E6168886100206168C86100BFF9
:104D300069782046FFF72AFF00BF6068406820F0CE
:104D400002006168486000BFA9782046FFF7A0FF15
:104D500070BD10B5044604F1080000F00DF800BF66
:104D6000A068C06840F47050A168C86000BF4FF4EC
:104D70000050A168486110BD10B543689B6803F0FE
:104D80000601C3681A6819B1022901D0062902D1A7
:104D90006FF30A0205E0042903D16FF30A0242F01F
:104DA0000302C3681A6043685B6843F48073446815
:104DB000636010BD10B504464021C4F8E012C4F889
:104DC000D012C4F8D412A17804F2A44204F108006D
:104DD00000F002F810BD000030B5074CC56B2C6127
:104DE000012907D1C56B6A61C56B2B6843F080232D
:104DF000C56B2B6030BD0000400008602DE9F0411C
:104E000016464F78012F3FD1C7683C68CF6927B954
:104E10000022012342EAC3450CE0D1F808C0CF6963
:104E2000674503D98F68CF618A6800E0CA690123AA
:104E300042EAC345C7683F6965F31C07D0F80CC058
:104E4000CCF81070012E09D191F8008000F10C0708
:104E500057F82870D1F818C0C7F814C044F00444BB
:104E6000C7683C60F6BBCF69E7B347687F6B91F8D2
:104E700000804FF0010C0CFA08FC47EA0C07D0F850
:104E800004C0CCF8347039E0C76B3C68CF6917B9FF
:104E90000022012309E0D1E902C7674501D2CF68AA
:104EA00000E08F68CF61CA69012342EAC34591F8E7
:104EB00000C000F13C0757F82C703F6965F31C07F0
:104EC000E04600F13C0C5CF828C0CCF81070012ED4
:104ED0000BD191F8008000F13C0757F82870D1F809
:104EE00018C000E00AE0C7F814C044F0044491F888
:104EF00000C000F13C0757F82C703C60BDE8F08121
:104F000070B54D78012D09D10E7800F10C0555F8DA
:104F100026200E78012505FA06F409E00E7800F146
:104F20003C0555F826200D781035012606FA05F4C3
:104F3000136803F400455DB98E788D6845EA8645AF
:104F4000CE8845EA865545F0805545F40043136008
:104F50004568ED6925434668F56170BD30B54B780D
:104F6000012B12D10C7800F10C0353F824301B688C
:104F700023F400440D7800F10C0353F825301C6035
:104F80000C78012303FA04F212E00C7800F13C03E0
:104F900053F824301B6823F400440D7800F13C03DF
:104FA00053F825301C600B781033012404FA03F207
:104FB0004368DB6993434468E36130BD2DE9F847FA
:104FC00005460C469246607801285FD1217805F1AC
:104FD0000C0050F821000668E06928B94FF000087D
:104FE000012748EAC74909E0D4F81C80E069401E5F
:104FF000A1680844B0FBF1F748EAC749217805F1F8
:105000000C0050F82100006969F31C000A4605F104
:105010000C0151F822100861BAF1010F07D1227872
:1050200005F10C0050F82200A16941610CE0A07864
:10503000012809D0E06938B16868406B2278012105
:105040009140084369684863A078012809D16868DD
:105050008068C0F3002010B946F0005601E046F029
:10506000805646F00446217805F10C0050F82100E6
:105070000660A07801284FD1CDF800A0A08B83B2A4
:1050800022782846616A01F05DF945E0217805F152
:105090003C0050F821000668E06928B9D4F808807F
:1050A000012748EAC7490DE0A068401EE1690844AD
:1050B000A168B0FBF1F7A06800FB07F848EAC74910
:1050C000C4F81C80217805F13C0050F821000069EB
:1050D00069F31C000A4605F13C0151F822100861F1
:1050E000BAF1010F06D1227805F13C0050F82200F8
:1050F000A1694161A078012806D1607910B146F01C
:10510000005601E046F0805646F00446217805F14D
:105110003C0050F821000660BDE8F88770B50446F1
:105120000D46E888012803D02046FFF7B3F918E0C0
:10513000E020005D022802D003280DD105E0012205
:1051400008492046FFF794F90AE0012204F1DC0146
:105150002046FFF78DF903E02046FFF79BF900BFDB
:1051600000BF70BDA880FF1FF8B504460D460020A3
:1051700000900026002768880012082858D2DFE82F
:1051800000F057040B1457574D52D4F8C40401686B
:1051900068468847064650E0D4F8BC044169684632
:1051A000884706460220707047E0A87806282ED26D
:1051B000DFE800F0030A11181F26D4F8C404416880
:1051C00068468847064627E0D4F8C40481686846E4
:1051D0008847064620E0D4F8C404C168684688477A
:1051E000064619E0D4F8C4040169684688470646B3
:1051F00012E0D4F8C40441696846884706460BE0CB
:10520000D4F8C404816968468847064604E020460D
:10521000FFF740F9012700BF00BF0EE02046FFF76F
:1052200039F9012709E02046FFF734F9012704E0A6
:105230002046FFF72FF9012700BF00BFA7B9BDF82F
:10524000000088B1E88878B1E888BDF8001088428D
:1052500002DDBDF8000000E0E8880090BDF8002005
:1052600031462046FFF704F9F8BD000010B50446AA
:1052700000200349086001222046FFF7F9F810BD1D
:10528000AC80FF1F0146002002E0421CD0B2491C46
:105290000A78002AF9D17047024602F13C0353F81C
:1052A0002130986853685B691840704770B50446B0
:1052B0000D46E020005D022802D0032812D100E054
:1052C00000BF00200A490860E220005D20B10846C6
:1052D000006840F002000860022205492046FFF7FE
:1052E000C7F803E02046FFF7D5F800BF00BF70BD48
:1052F000AC80FF1F70B503460C4616460025FBB177
:105300001846FFF7BFFF022101EB400030803278E2
:105310002846691CCDB2225403222846691CCDB20E
:1053200022540AE013F8012B2846691CCDB22254FE
:1053300000222846691CCDB2225418780028F1D1E9
:1053400070BD00002DE9F041044600BFE1688869A6
:10535000E168C969084081B20F4600256DE007F099
:105360000100002866D02946204600F0BBFA064618
:1053700006F0010068B3012000FA05F8E068406B10
:1053800020EA0800E1684863012104F1140050F8A4
:10539000250081602B4800682946C2692046904755
:1053A000A078012815D1DE20005D042811D185B92F
:1053B0004021C4F8E012C4F8D012C4F8D412A17885
:1053C00004F2A44204F10800FFF706FD0021DE20EC
:1053D000015506F0020028B1022104F1140050F832
:1053E0002500816006F0080028B1082104F11400AE
:1053F00050F82500816006F0100028B1102104F15A
:10540000140050F82500816006F0400028B14021CA
:1054100004F1140050F82500816006F0800048B1C6
:105420002946204600F044FF802104F1140050F882
:1054300025008160681CC5B27F080FB10C2D8ED38A
:10544000BDE8F081A080FF1F2DE9F04104468846A9
:105450002246414604F1080000F056FC0121E020FC
:1054600001550021DD200155002700BF07EB870112
:1054700004F1E40000EBC10507EB870104F531708E
:1054800000EBC10601206870002070702F70287832
:105490003070EF80E888F0800020A870A878B070A5
:1054A0004020A860A868B06000206862686A7062E6
:1054B0000020E861E869F0617F1C6078B842D5D8C7
:1054C00000BFA068806820F00100A168886000BF6C
:1054D000214604F1080000F014F8002104F108004E
:1054E00000F0D8F8214604F10800FFF7F3FB00BFF5
:1054F000A068806840F00100A168886000BFBDE836
:10550000F08170B504460D462046FEF741FF28792C
:10551000012806D12168C96821F040012268D160C4
:1055200005E02168C96841F040012268D16000BFF0
:105530002046FEF72DFF142000F0A3F8A8780128DC
:1055400010D105202168896860F3440122689160C8
:1055500000BF01202168896860F3451122689160CD
:1055600000BF00BF70BD000010B5044604480068CD
:10557000016A204688474FF48010A168486110BD39
:10558000A080FF1F10B50446D4F8BC04416A204631
:10559000884710BD10B5044604480068416A20469B
:1055A00088474FF40010A168486110BDA080FF1F1C
:1055B00010B50446D4F8BC04816A2046884710BD63
:1055C00070B5054600BFA868406900F0010008B149
:1055D000012000E00020002851D100BFA9684869DF
:1055E000A9688969084000BF044604B970BD04F485
:1055F000002010B1284600F0A3F804F4802010B178
:105600002846FFF79FFE04F0020010B10220A968AF
:10561000486104F0004010B1284600F011FA04F48B
:10562000006010B1284600F0CBFD04F0080010B176
:10563000284600F029FC04F0100010B1284600F0C4
:105640001DFA04F4805010B1284600F0ADF904F4BE
:10565000005010B12846FFF77CFB04F4801010B115
:105660002846FFF781FF04F4001010B12846FFF729
:1056700091FF04F0804010B1284600F045FA00BFC9
:10568000B4E710B504464FF47A7104FB01F000F062
:10569000EFFD10BD70B504460D46012D08D1206800
:1056A000C06820F0C04040F000502168C86007E0AA
:1056B0002068C06820F0C04040F080402168C86089
:1056C0003220FFF7DEFF70BD2DE9FC4105460E4696
:1056D00090461F46F011019006F07F0000909DF863
:1056E0000400012808D19DF8000000EB800105F1BD
:1056F000E40000EBC10407E09DF8000000EB80012E
:1057000005F5317000EBC1049DF8000020709DF894
:1057100004006070C4F80880A7709DF80400012898
:1057200002D19DF80000E080022F01D100202071FD
:10573000214605F10800FFF7E3FBBDE8FC8100000E
:105740002DE9F0470446002500BFE1688869E1685B
:10575000C9690840010C0E4699E006F001000028D6
:105760007ED0294604F10800FFF796FD074607F0B2
:105770000100002868D0012104F1440050F8250000
:105780008160A078012840D104F1440050F8250040
:105790000069C0F3120805EB850104F5317000EBD8
:1057A000C10005EB8502816804F5317000EBC20091
:1057B000C069814207D205EB850104F5317000EB29
:1057C000C100806806E005EB850104F5317000EB4F
:1057D000C100C0698146A9EB080105EB850204F50B
:1057E000317000EBC20001627DB105EB850104F56B
:1057F000317000EBC100C069A0EB080105EB850228
:1058000004F5317000EBC2000162244800682946AB
:10581000826920469047A078012815D1DE20005DDE
:10582000052811D185B94021C4F8E012C4F8D0127E
:10583000C4F8D412A17804F2A44204F10800FFF7DE
:10584000CBFA0021DE20015507F0020028B1022129
:1058500004F1440050F8250081600DB9294600E0AC
:1058600012E004F10800FFF717FD074607F00800F3
:1058700050B10A480068416920468847082104F170
:10588000440050F825008160681CC5B2760816B146
:105890000C2DFFF462AFBDE8F0870000A080FF1F71
:1058A00090F8A4240A7090F8A5244A7090F8A634C1
:1058B00090F8A72403EB02224A8090F8A83490F8CD
:1058C000A92403EB02228A8090F8AA3490F8AB2432
:1058D00003EB0222CA80CB88F82213500123DE2278
:1058E0001354704710B50246D0680369D068446B02
:1058F00024FA01F000F0010043EAC01302F11400A1
:1059000050F821008068184010BD024602F11400D2
:1059100050F82100806980B270473CB5D0F8A040B3
:10592000D51C0195019DAD0801950025009500232A
:1059300005E025680D600091009D291D5B1C019DFF
:10594000AB42F6D33CBD2DE9F84304460F4616465C
:10595000984607F07F0000909DF8000000EB800162
:1059600004F5317000EBC1056E62C5F81C800020A3
:10597000286268709DF800002870A078012800D186
:10598000AE619DF8000030B9A278294604F1080004
:10599000FFF734FA05E0A278294604F10800FFF782
:1059A0000DFBBDE8F883000070B50446E068406870
:1059B00020F00101E0684160002104F1080000F0DE
:1059C0002DFC00250BE0FF2104F1140050F8250008
:1059D000816004F1440050F8250081606D1C6078FE
:1059E000A842F0D84FF0FF31E06881614FF001111B
:1059F000E068C1610B21E0684161E0680161E06835
:105A0000006820F4FE61E06801604021C4F8E01203
:105A1000C4F8D012C4F8D412A17804F2A44204F15C
:105A20000800FFF7D9F94FF48050A1684861034896
:105A3000006801682046884770BD0000A080FF1FF5
:105A400010B50446E07838B1D4F8D800006820F0EA
:105A50000301D4F8D8000160E068406820F001013B
:105A6000E068416004480068C168204688474FF0FC
:105A70000040A168486110BDA080FF1F2DE9F047DC
:105A80000446A068806920F01000A1688861A068C1
:105A9000076A07F00F09C7F34348C7F30A1609EB73
:105AA000890104F5317000EBC105B8F1070F21D26F
:105AB000DFE808F0201D041E1F2012005EB13246F0
:105AC00004F10800696AFFF728FF686A30446862D9
:105AD000286A304428620EE0082204F2A44104F14E
:105AE0000800FFF71AFF286A3044286203E000BF6D
:105AF00000BF00E000BF00BFA068806940F0100058
:105B0000A1688861BDE8F08710B504460A480068BE
:105B100001214268204690474FF08040A1684861CB
:105B2000E07838B1D4F8D800006820F00301D4F848
:105B3000D800016010BD0000A080FF1F70B50446B2
:105B40000D46A888F0B9E888E0B9A87800F07F068B
:105B5000E020005D032803D12046FEF79BFC14E003
:105B6000DD20065531462046FEF70EFB2046FEF7A7
:105B7000ACFC1EB10221E020015506E00121E0202D
:105B8000015502E02046FEF785FC70BD70B5044665
:105B90000D46A8783149087008460078012803D9D5
:105BA0002046FEF777FC58E0E020005D022804D094
:105BB00003281AD004284BD149E02848007880B146
:105BC0002648007884F8DC000321E02001550122FA
:105BD000224801782046FEF791FE2046FEF775FC2C
:105BE00002E02046FEF771FC36E01C48007880B9E0
:105BF0000221E02001551948007884F8DC000022D9
:105C0000164801782046FEF779FE2046FEF75DFC37
:105C10001CE094F8DC0011490978884213D094F80C
:105C2000DC1000222046FEF769FE0C48007884F85C
:105C3000DC000122094801782046FEF75FFE20467D
:105C4000FEF743FC02E02046FEF73FFC04E003E0E1
:105C50002046FEF71FFC00BF00BF70BDB080FF1FD5
:105C600010B502464B78012B13D10C7802F10C03CE
:105C700053F82430186800F000430BB140F0804026
:105C800040F400100C7802F10C0353F82430186033
:105C90000DE00C7802F13C0353F82430186840F40E
:105CA00000100C7802F13C0353F82430186010BD4A
:105CB0002DE9F04104460D46688801280CD10121E8
:105CC000E2200155D4F8BC0429468268204690475A
:105CD0002046FEF7FAFB12E0688802280FD12879E7
:105CE00068B9E06847682879061200BF370105489F
:105CF00007600121E32001552046FEF7E6FBBDE8E1
:105D0000F08100007480FF1F2DE9F04106468846AF
:105D100015460024234F00BF98F8000000B903E0A7
:105D2000B92121A0FBF772FA00BF0020A8700C2057
:105D300028700620687098F80000687100202871AB
:105D400098F8000000B9174F376007F500607060E1
:105D500010E007F5106000EB441106F10C0040F86C
:105D6000241007F5306000EB441106F13C0040F8C8
:105D70002410641C6878A042EBD8002408E007F5E2
:105D8000805000EB043106F1A00040F82410641CA0
:105D90006878A042F3D807F56060C6F8D000BDE887
:105DA000F081000000000C402E2E2F2E2E2F2E2EC4
:105DB0002F2E2E2F2E2E2F2E2E2F64726976657287
:105DC000732F686333325F6C6C5F647269766572DF
:105DD0002F7372632F686333325F6C6C5F7573620D
:105DE0002E6300001CB5044669462046FFF758FDA7
:105DF0009DF8000000F01F0020B1012807D0022804
:105E00000FD109E06946204600F087F811E06946A5
:105E1000204600F099F90CE06946204600F0C2F8EF
:105E200007E09DF8000000F08001204600F046F8F1
:105E300000BF00BF1CBD7CB505460E46F0110190A9
:105E400006F07F0000909DF80400012808D19DF81D
:105E5000000000EB800105F1E40000EBC10407E065
:105E60009DF8000000EB800105F5317000EBC104E6
:105E70009DF8000020709DF804006070214605F137
:105E80000800FFF76BF87CBD10B5044604480068B5
:105E90000169204688470820A168486110BD0000BC
:105EA000A080FF1F10B50446D4F8BC04806920B15F
:105EB000D4F8BC0481692046884710BD7CB50546EE
:105EC0000E46F011019006F07F0000909DF804004E
:105ED00040B19DF8000000EB800105F1E40000EB0B
:105EE000C10407E09DF8000000EB800105F531706A
:105EF00000EBC1040120E0709DF8000020709DF8C7
:105F0000040010B10120607001E0002060702146A3
:105F100005F10800FFF7A4FE7CBD70B505460C46F0
:105F20006078062804D121462846FFF71DF938E09D
:105F30006078052804D121462846FFF7FFFD30E0B0
:105F40006078092804D121462846FFF71FFE28E083
:105F50006078082804D121462846FFF7DFF820E0C2
:105F6000607820B921462846FFF7A0F919E060784B
:105F7000032804D121462846FFF79AFE11E06078F5
:105F8000012804D121462846FEF7B1F909E0D5F8E9
:105F9000BC04214682682846904710B12846FEF787
:105FA00079FA70BD38B504460D46287900906878B6
:105FB000002867D0012833D0032877D1E020005D86
:105FC000022802D0032825D10CE09DF8000040B142
:105FD0009DF80000802804D09DF800102046FFF7AF
:105FE0006DFF1BE0688858B99DF8000040B19DF82E
:105FF0000000802804D09DF800102046FFF75EFFC7
:10600000D4F8BC0429468268204690472046FEF713
:106010005CFA03E02046FEF73DFA00BF00BF8FE0C8
:10602000E020005D022802D0032825D10CE09DF875
:10603000000040B19DF80000802804D09DF80010B9
:106040002046FFF73BFF1BE06888A0B99DF80000E1
:1060500070B19DF8000080280AD09DF800102046FD
:10606000FEF766F9D4F8BC042946826820469047BA
:106070002046FEF72AFA03E02046FEF70BFA00BF9F
:1060800000BF5DE0E020005D022802D0032850D16F
:106090000DE09DF8000040B19DF80000802804D07C
:1060A0009DF800102046FFF709FF46E047E09DF805
:1060B000000000F08000802818D19DF8000000F05A
:1060C0007F000C21B0FBF1F201FB120000EB80011C
:1060D00004F1E40000EBC100C07818B101201949B7
:1060E000086020E00020174908601CE09DF80000CF
:1060F00000F08000B8B99DF8000000F07F000C218E
:10610000B0FBF1F201FB120000EB800104F53170ED
:1061100000EBC100C07818B101200A49086002E014
:10612000002008490860022206492046FEF7A0F92F
:1061300003E02046FEF7AEF900BF00BF00E000BF5D
:1061400000BF38BDA480FF1F70B505460C46002671
:10615000607828B921462846FFF7A8F8012611E003
:1061600060780A2807D1207821280BD02846FFF72D
:106170007DF8012606E06078FE2803D12846FFF767
:1061800075F80126012E19D0E020405D032812D1B8
:10619000207901280BD8D5F8BC042146826828460E
:1061A0009047E08850B92846FEF78FF906E0284668
:1061B000FEF770F902E02846FEF76CF970BD0000AA
:1061C00070B5044614480068816820468847E06836
:1061D00085684FF40060A1684861DF20065DE1201A
:1061E000005D012816D1032E14D1E07890B105F09E
:1061F000010078B1D4F8D800006840F00101D4F86B
:10620000D8000160D4F8D800006840F00201D4F84A
:10621000D800016070BD0000A080FF1F7CB504465F
:106220000D460020009005F01F00202141EA80105B
:10623000019001982168086100BF20680069019001
:106240000A490098884203D80098401C009000E05A
:1062500007E0012000F00CF8019800F02000002871
:10626000EBD100BF032000F003F87CBD400D03001C
:1062700008B50C4A126AC2F302630B4A1268DA408C
:106280000A4B1A44521EB2FBF3F202FB00F1002249
:10629000009202E0009A521C0092009A8A42F9D3BE
:1062A00008BD0000004005400080FF1F40420F0075
:1062B0002DE9F84F06460F4607EB870106F1E4008B
:1062C00000EBC104D4E90701451AA068A84200D236
:1062D000A568E81C4FEA900939463046FFF715FBE0
:1062E00080461DE0D4E90701451AA068A84200D203
:1062F000A568E81C4FEA9009B078ABB2FAB20090FA
:1063000006F10800616A00F01DF8606A28446062C6
:10631000206A2844206239463046FFF7F6FA804664
:10632000C84503D3D4E907108842DBD345B901201F
:1063300000FA07FAF068406B20EA0A00F168486347
:10634000BDE8F88FF8B50446069F9FB9DE1CB60875
:1063500004F1A00C5CF82250002009E0D1F800C044
:10636000C5F800C00091DDF800C00CF10401401C2C
:10637000B042F3D3F8BD000070B505460C46164692
:10638000042D15D007DC7DB1012D0ED0022D0DD0CE
:10639000032D3ED10BE0202D0BD0212D1ED0222D20
:1063A00035D0232D35D133E034E033E032E031E035
:1063B00030E02078617840EA0120A17840EA01408D
:1063C000E17840EA01601449086020790871607939
:1063D0004871A0798871FDF7A5FD1BE00E48007893
:1063E00020700D480088000A60700B480068000C9F
:1063F000A07009480068000EE0700748007920711D
:1064000005484079607104488079A07102E001E09C
:1064100000E000BF00BF70BD0880FF1F7047000094
:1064200000B58DB02C2221496846F9F790FF212252
:106430004FF400510220FBF76DF9202204210520C2
:10644000FBF768F901218806FAF7C8FF00226946C0
:106450001748FDF77BFA20BB0020ADF82E004FF463
:106460009070ADF82C0013480C9001210BA8FBF79D
:10647000D1FF0120ADF82E0040F22110ADF82C0024
:106480000D480C9001210BA8FBF7C4FF01220C2141
:106490000748FDF729F8012220210548FDF724F8D7
:1064A00001E00DB000BD00BFFBE700004865000043
:1064B00000100240293C00006D3C000070B505460C
:1064C0000E4600240BE000BF80210648FDF780F84F
:1064D0000128F9D1295D0348FDF752FB641CB44241
:1064E000F1D370BD0010024010B513488079072821
:1064F00009D11248FDF710F900F07F001049114A48
:10650000126888540AE00C488079082806D10B48A4
:10651000FDF702F90A490B4A1268885409480068D5
:10652000401C0849086008460068B0F5006F01D1BA
:106530000020086010BD00000880FF1F001002400E
:10654000E488FF1FEC80FF1F000000000000000037
:106550000000000020A10700000000000000000073
:10656000000000000080000000000000000000802B
:10657000000100000000000000000000000000001A
:1065800020A1070000000000000000000000000043
:1065900000800000000000000000008000010000FA
:1065A000200040005D008000BA000001740100027C
:1065B0002E2E2F2E2E2F2E2E2F2E2E2F2E2E2F2EF6
:1065C0002E2F647269766572732F686333325F6C45
:1065D0006C5F6472697665722F7372632F686333C0
:1065E000325F6C6C5F696E74657272757074732E55
:1065F00063000000146600000880FF1F54010000C3
:1066000064070000E06600005C81FF1F8C1B000037
:106610005C3D00004400C201350800354933B149F2
:1066200033C14933E149334D4A33D9483389494568
:10663000120100022640882E03463A02010203019D
:106640000403090433614B33654B33B94A33054BBB
:1066500033E14A33914A031B354B331F4A33154408
:1066600033754A33094A33A55E33E55D33B54533A7
:10667000E54433855533B15505117880FF1F3389C3
:106680004733554773C94733494633794733B14890
:1066900033794603272547C2FF2C09024B0002012C
:1066A00000C032080B38020202010409042E010264
:1066B000020100052400100105240129010424021F
:1066C000020524064F01070585030800FF090401A0
:1066D00000020A360705010240C607058202400093
:040000050000028174
:00000001FF
